{
  "contractName": "Adoption",
  "abi": [
    {
      "inputs": [
        {
          "internalType": "uint256",
          "name": "",
          "type": "uint256"
        }
      ],
      "name": "adoptors",
      "outputs": [
        {
          "internalType": "address",
          "name": "",
          "type": "address"
        }
      ],
      "stateMutability": "view",
      "type": "function"
    },
    {
      "inputs": [],
      "name": "getAdoptors",
      "outputs": [
        {
          "internalType": "address[16]",
          "name": "",
          "type": "address[16]"
        }
      ],
      "stateMutability": "view",
      "type": "function"
    },
    {
      "inputs": [
        {
          "internalType": "uint256",
          "name": "_petId",
          "type": "uint256"
        }
      ],
      "name": "adopt",
      "outputs": [
        {
          "internalType": "uint256",
          "name": "",
          "type": "uint256"
        }
      ],
      "stateMutability": "nonpayable",
      "type": "function"
    }
  ],
  "bytecode": "0x608060405234801561001057600080fd5b5061049e806100206000396000f3fe608060405234801561001057600080fd5b50600436106100415760003560e01c80638588b2c514610046578063c71834dd14610076578063f500364c146100a6575b600080fd5b610060600480360381019061005b91906102bf565b6100c4565b60405161006d91906102fb565b60405180910390f35b610090600480360381019061008b91906102bf565b6101aa565b60405161009d9190610357565b60405180910390f35b6100ae6101e0565b6040516100bb919061041d565b60405180910390f35b60008082101580156100d75750600f8211155b6100e057600080fd5b600073ffffffffffffffffffffffffffffffffffffffff166000836010811061010c5761010b610439565b5b0160009054906101000a900473ffffffffffffffffffffffffffffffffffffffff1673ffffffffffffffffffffffffffffffffffffffff161461014e57600080fd5b336000836010811061016357610162610439565b5b0160006101000a81548173ffffffffffffffffffffffffffffffffffffffff021916908373ffffffffffffffffffffffffffffffffffffffff160217905550819050919050565b600081601081106101ba57600080fd5b016000915054906101000a900473ffffffffffffffffffffffffffffffffffffffff1681565b6101e8610261565b6000601080602002604051908101604052809291908260108015610257576020028201915b8160009054906101000a900473ffffffffffffffffffffffffffffffffffffffff1673ffffffffffffffffffffffffffffffffffffffff168152602001906001019080831161020d575b5050505050905090565b604051806102000160405280601090602082028036833780820191505090505090565b600080fd5b6000819050919050565b61029c81610289565b81146102a757600080fd5b50565b6000813590506102b981610293565b92915050565b6000602082840312156102d5576102d4610284565b5b60006102e3848285016102aa565b91505092915050565b6102f581610289565b82525050565b600060208201905061031060008301846102ec565b92915050565b600073ffffffffffffffffffffffffffffffffffffffff82169050919050565b600061034182610316565b9050919050565b61035181610336565b82525050565b600060208201905061036c6000830184610348565b92915050565b600060109050919050565b600081905092915050565b6000819050919050565b61039b81610336565b82525050565b60006103ad8383610392565b60208301905092915050565b6000602082019050919050565b6103cf81610372565b6103d9818461037d565b92506103e482610388565b8060005b838110156104155781516103fc87826103a1565b9650610407836103b9565b9250506001810190506103e8565b505050505050565b60006102008201905061043360008301846103c6565b92915050565b7f4e487b7100000000000000000000000000000000000000000000000000000000600052603260045260246000fdfea26469706673582212208cd3dc0d5aba06cff692fec3495e6bf78c5bfe1004467a8a12bf97c5687b723b64736f6c63430008140033",
  "immutableReferences": {},
  "source": "// SPDX-License-Identifier: MIT\npragma solidity ^0.8.20;\n\ncontract Adoption {\n    address[16] public adoptors;\n\n    function getAdoptors() public view returns (address[16] memory) {\n        return adoptors;\n    }\n\n    function adopt(uint _petId) public returns (uint) {\n        require(_petId >= 0 && _petId <= 15);\n        require(adoptors[_petId] == address(0x0));\n        adoptors[_petId] = msg.sender;\n        return (_petId);\n    }\n}\n",
  "sourcePath": "C:\\Users\\farid\\Desktop\\CertifiedBlockchainTruffle\\truffle\\contracts\\Adoption.sol",
  "compiler": {
    "name": "solc",
    "version": "0.8.20+commit.a1b79de6.Emscripten.clang"
  },
  "schemaVersion": "3.4.16",
  "updatedAt": "2024-04-25T06:59:30.810Z",
  "devdoc": {
    "kind": "dev",
    "methods": {},
    "version": 1
  },
  "userdoc": {
    "kind": "user",
    "methods": {},
    "version": 1
  }
}