{
  "contractName": "Auction",
  "abi": [
    {
      "inputs": [],
      "stateMutability": "nonpayable",
      "type": "constructor"
    },
    {
      "inputs": [],
      "name": "putBid",
      "outputs": [],
      "stateMutability": "payable",
      "type": "function",
      "payable": true
    },
    {
      "inputs": [],
      "name": "getOwnerAddress",
      "outputs": [
        {
          "internalType": "address",
          "name": "",
          "type": "address"
        }
      ],
      "stateMutability": "view",
      "type": "function",
      "constant": true
    },
    {
      "inputs": [],
      "name": "getEndTime",
      "outputs": [
        {
          "internalType": "uint256",
          "name": "",
          "type": "uint256"
        }
      ],
      "stateMutability": "view",
      "type": "function",
      "constant": true
    },
    {
      "inputs": [],
      "name": "getAuctionEnded",
      "outputs": [
        {
          "internalType": "bool",
          "name": "",
          "type": "bool"
        }
      ],
      "stateMutability": "view",
      "type": "function",
      "constant": true
    },
    {
      "inputs": [
        {
          "internalType": "address",
          "name": "_address",
          "type": "address"
        }
      ],
      "name": "getBidderBid",
      "outputs": [
        {
          "internalType": "uint256",
          "name": "",
          "type": "uint256"
        }
      ],
      "stateMutability": "view",
      "type": "function",
      "constant": true
    },
    {
      "inputs": [],
      "name": "HighestBid",
      "outputs": [
        {
          "internalType": "uint256",
          "name": "",
          "type": "uint256"
        }
      ],
      "stateMutability": "view",
      "type": "function",
      "constant": true
    },
    {
      "inputs": [],
      "name": "HighestBidder",
      "outputs": [
        {
          "internalType": "address",
          "name": "",
          "type": "address"
        }
      ],
      "stateMutability": "view",
      "type": "function",
      "constant": true
    },
    {
      "inputs": [
        {
          "internalType": "uint256",
          "name": "_endTime",
          "type": "uint256"
        }
      ],
      "name": "putEndTime",
      "outputs": [],
      "stateMutability": "nonpayable",
      "type": "function"
    },
    {
      "inputs": [
        {
          "internalType": "bool",
          "name": "_trueFalse",
          "type": "bool"
        }
      ],
      "name": "endAuction",
      "outputs": [],
      "stateMutability": "nonpayable",
      "type": "function"
    },
    {
      "inputs": [
        {
          "internalType": "address payable",
          "name": "_address",
          "type": "address"
        }
      ],
      "name": "withdrawBid",
      "outputs": [],
      "stateMutability": "nonpayable",
      "type": "function"
    }
  ],
  "bytecode": "0x6080604052426003556000600560146101000a81548160ff02191690831515021790555034801561002f57600080fd5b5033600560006101000a81548173ffffffffffffffffffffffffffffffffffffffff021916908373ffffffffffffffffffffffffffffffffffffffff160217905550610ac6806100806000396000f3fe6080604052600436106100915760003560e01c80637f6a9d50116100595780637f6a9d5014610169578063996657af14610192578063d5e51de3146101bd578063e71ba2bd146101e8578063f5cc772a1461022557610091565b80630c4f65bd14610096578063167fb50e146100c1578063439f5ac2146100ec5780634ede36481461011757806378ed134f14610140575b600080fd5b3480156100a257600080fd5b506100ab61022f565b6040516100b891906106d8565b60405180910390f35b3480156100cd57600080fd5b506100d6610259565b6040516100e3919061070c565b60405180910390f35b3480156100f857600080fd5b50610101610263565b60405161010e919061070c565b60405180910390f35b34801561012357600080fd5b5061013e6004803603810190610139919061076a565b61026d565b005b34801561014c57600080fd5b50610167600480360381019061016291906107cf565b61033d565b005b34801561017557600080fd5b50610190600480360381019061018b9190610828565b6103b0565b005b34801561019e57600080fd5b506101a7610410565b6040516101b491906106d8565b60405180910390f35b3480156101c957600080fd5b506101d261043a565b6040516101df9190610864565b60405180910390f35b3480156101f457600080fd5b5061020f600480360381019061020a91906108ab565b610451565b60405161021c919061070c565b60405180910390f35b61022d610499565b005b6000600560009054906101000a900473ffffffffffffffffffffffffffffffffffffffff16905090565b6000600154905090565b6000600454905090565b60008060008373ffffffffffffffffffffffffffffffffffffffff1673ffffffffffffffffffffffffffffffffffffffff16815260200190815260200160002054111561033a578073ffffffffffffffffffffffffffffffffffffffff166108fc6000808473ffffffffffffffffffffffffffffffffffffffff1673ffffffffffffffffffffffffffffffffffffffff168152602001908152602001600020549081150290604051600060405180830381858888f19350505050158015610338573d6000803e3d6000fd5b505b50565b600560009054906101000a900473ffffffffffffffffffffffffffffffffffffffff1673ffffffffffffffffffffffffffffffffffffffff163373ffffffffffffffffffffffffffffffffffffffff16036103ad5780600560146101000a81548160ff0219169083151502179055505b50565b600560009054906101000a900473ffffffffffffffffffffffffffffffffffffffff1673ffffffffffffffffffffffffffffffffffffffff163373ffffffffffffffffffffffffffffffffffffffff160361040d57806004819055505b50565b6000600260009054906101000a900473ffffffffffffffffffffffffffffffffffffffff16905090565b6000600560149054906101000a900460ff16905090565b60008060008373ffffffffffffffffffffffffffffffffffffffff1673ffffffffffffffffffffffffffffffffffffffff168152602001908152602001600020549050919050565b6000346000803373ffffffffffffffffffffffffffffffffffffffff1673ffffffffffffffffffffffffffffffffffffffff168152602001908152602001600020546104e59190610907565b905060001515600560149054906101000a900460ff1615151461053d576040517f08c379a000000000000000000000000000000000000000000000000000000000815260040161053490610998565b60405180910390fd5b600454421115610582576040517f08c379a000000000000000000000000000000000000000000000000000000000815260040161057990610998565b60405180910390fd5b600034116105c5576040517f08c379a00000000000000000000000000000000000000000000000000000000081526004016105bc90610a04565b60405180910390fd5b6001548111610609576040517f08c379a000000000000000000000000000000000000000000000000000000000815260040161060090610a70565b60405180910390fd5b806000803373ffffffffffffffffffffffffffffffffffffffff1673ffffffffffffffffffffffffffffffffffffffff168152602001908152602001600020819055508060018190555033600260006101000a81548173ffffffffffffffffffffffffffffffffffffffff021916908373ffffffffffffffffffffffffffffffffffffffff16021790555050565b600073ffffffffffffffffffffffffffffffffffffffff82169050919050565b60006106c282610697565b9050919050565b6106d2816106b7565b82525050565b60006020820190506106ed60008301846106c9565b92915050565b6000819050919050565b610706816106f3565b82525050565b600060208201905061072160008301846106fd565b92915050565b600080fd5b600061073782610697565b9050919050565b6107478161072c565b811461075257600080fd5b50565b6000813590506107648161073e565b92915050565b6000602082840312156107805761077f610727565b5b600061078e84828501610755565b91505092915050565b60008115159050919050565b6107ac81610797565b81146107b757600080fd5b50565b6000813590506107c9816107a3565b92915050565b6000602082840312156107e5576107e4610727565b5b60006107f3848285016107ba565b91505092915050565b610805816106f3565b811461081057600080fd5b50565b600081359050610822816107fc565b92915050565b60006020828403121561083e5761083d610727565b5b600061084c84828501610813565b91505092915050565b61085e81610797565b82525050565b60006020820190506108796000830184610855565b92915050565b610888816106b7565b811461089357600080fd5b50565b6000813590506108a58161087f565b92915050565b6000602082840312156108c1576108c0610727565b5b60006108cf84828501610896565b91505092915050565b7f4e487b7100000000000000000000000000000000000000000000000000000000600052601160045260246000fd5b6000610912826106f3565b915061091d836106f3565b9250828201905080821115610935576109346108d8565b5b92915050565b600082825260208201905092915050565b7f41756e6374696f6e20697320456e646465640000000000000000000000000000600082015250565b600061098260128361093b565b915061098d8261094c565b602082019050919050565b600060208201905081810360008301526109b181610975565b9050919050565b7f42696420416d6f20756e742043616e6e6f74204265205a65726f000000000000600082015250565b60006109ee601a8361093b565b91506109f9826109b8565b602082019050919050565b60006020820190508181036000830152610a1d816109e1565b9050919050565b7f486967686573742042696420416c72656164792050726573656e740000000000600082015250565b6000610a5a601b8361093b565b9150610a6582610a24565b602082019050919050565b60006020820190508181036000830152610a8981610a4d565b905091905056fea2646970667358221220a918c7a9b3a92590416fb5588d05dbdf0c8a407efee32975b7143054404fa76764736f6c63430008140033",
  "immutableReferences": {},
  "source": "// SPDX-License-Identifier: MIT\r\npragma solidity ^0.8.20;\r\n\r\ncontract Auction {\r\n    mapping(address => uint) biddersData;\r\n    uint highestBidAmount;\r\n    address highestBidder;\r\n    uint startTime = block.timestamp;\r\n    uint endTime;\r\n    address owner;\r\n    bool auctionEnded = false;\r\n    constructor() {\r\n        owner = msg.sender;\r\n    }\r\n\r\n    // put new bid\r\n    function putBid() public payable {\r\n        //verify value is not zero\r\n        uint calculateAmount = biddersData[msg.sender] + msg.value;\r\n        // check session not ended\r\n        require(auctionEnded == false, \"Aunction is Endded\");\r\n        require(block.timestamp <= endTime, \"Aunction is Endded\");\r\n        require(msg.value > 0, \"Bid Amo unt Cannot Be Zero\");\r\n\r\n        //check Highest Bid\r\n        require(\r\n            calculateAmount > highestBidAmount,\r\n            \"Highest Bid Already Present\"\r\n        );\r\n        biddersData[msg.sender] = calculateAmount;\r\n        highestBidAmount = calculateAmount;\r\n        highestBidder = msg.sender;\r\n    }\r\n\r\n    function getOwnerAddress() public view returns (address) {\r\n        return owner;\r\n    }\r\n\r\n    function getEndTime() public view returns (uint) {\r\n        return endTime;\r\n    }\r\n\r\n    function getAuctionEnded() public view returns (bool) {\r\n        return auctionEnded;\r\n    }\r\n\r\n    // get Contract Balance (Only for testing)\r\n    function getBidderBid(address _address) public view returns (uint) {\r\n        return biddersData[_address];\r\n    }\r\n    // get Highest BidAmount\r\n    function HighestBid() public view returns (uint) {\r\n        return highestBidAmount;\r\n    }\r\n\r\n    // get Highest Bidder Address\r\n    function HighestBidder() public view returns (address) {\r\n        return highestBidder;\r\n    }\r\n\r\n    // put endTime\r\n    function putEndTime(uint _endTime) public {\r\n        if (msg.sender == owner) {\r\n            endTime = _endTime;\r\n        }\r\n    }\r\n\r\n    // put endTime\r\n    function endAuction(bool _trueFalse) public {\r\n        if (msg.sender == owner) {\r\n            auctionEnded = _trueFalse;\r\n        }\r\n    }\r\n\r\n    //withdraw Bid\r\n    function withdrawBid(address payable _address) public {\r\n        if (biddersData[_address] > 0) {\r\n            _address.transfer(biddersData[_address]);\r\n        }\r\n    }\r\n}\r\n",
  "sourcePath": "C:\\Users\\farid\\Desktop\\CertifiedBlockchainTruffle\\truffle\\contracts\\Auction.sol",
  "compiler": {
    "name": "solc",
    "version": "0.8.20+commit.a1b79de6.Emscripten.clang"
  },
  "schemaVersion": "3.4.16",
  "updatedAt": "2024-04-25T06:59:34.607Z",
  "networkType": "ethereum",
  "devdoc": {
    "kind": "dev",
    "methods": {},
    "version": 1
  },
  "userdoc": {
    "kind": "user",
    "methods": {},
    "version": 1
  }
}