{
  "contractName": "Certificate",
  "abi": [
    {
      "inputs": [],
      "stateMutability": "nonpayable",
      "type": "constructor"
    },
    {
      "inputs": [
        {
          "internalType": "uint256",
          "name": "",
          "type": "uint256"
        }
      ],
      "name": "certified",
      "outputs": [
        {
          "internalType": "string",
          "name": "credentialID",
          "type": "string"
        },
        {
          "internalType": "string",
          "name": "name",
          "type": "string"
        },
        {
          "internalType": "string",
          "name": "courseName",
          "type": "string"
        },
        {
          "internalType": "string",
          "name": "issuingOrganization",
          "type": "string"
        },
        {
          "internalType": "uint256",
          "name": "issueDate",
          "type": "uint256"
        },
        {
          "internalType": "uint256",
          "name": "expirationDate",
          "type": "uint256"
        },
        {
          "internalType": "string",
          "name": "reasonForAward",
          "type": "string"
        }
      ],
      "stateMutability": "view",
      "type": "function"
    },
    {
      "inputs": [],
      "name": "getNumberOfCertificates",
      "outputs": [
        {
          "internalType": "uint256",
          "name": "",
          "type": "uint256"
        }
      ],
      "stateMutability": "view",
      "type": "function"
    },
    {
      "inputs": [],
      "name": "getOwner",
      "outputs": [
        {
          "internalType": "address",
          "name": "",
          "type": "address"
        }
      ],
      "stateMutability": "view",
      "type": "function"
    },
    {
      "inputs": [
        {
          "internalType": "string",
          "name": "_credentialID",
          "type": "string"
        },
        {
          "internalType": "string",
          "name": "_name",
          "type": "string"
        },
        {
          "internalType": "string",
          "name": "_courseName",
          "type": "string"
        },
        {
          "internalType": "string",
          "name": "_issuingOrganization",
          "type": "string"
        },
        {
          "internalType": "uint256",
          "name": "_issueDate",
          "type": "uint256"
        },
        {
          "internalType": "uint256",
          "name": "_expirationDate",
          "type": "uint256"
        },
        {
          "internalType": "string",
          "name": "_reasonForAward",
          "type": "string"
        }
      ],
      "name": "addCertificate",
      "outputs": [],
      "stateMutability": "nonpayable",
      "type": "function"
    },
    {
      "inputs": [
        {
          "internalType": "string",
          "name": "_credentialID",
          "type": "string"
        }
      ],
      "name": "checkCertificate",
      "outputs": [
        {
          "internalType": "string",
          "name": "",
          "type": "string"
        },
        {
          "internalType": "string",
          "name": "",
          "type": "string"
        },
        {
          "internalType": "string",
          "name": "",
          "type": "string"
        },
        {
          "internalType": "string",
          "name": "",
          "type": "string"
        },
        {
          "internalType": "uint256",
          "name": "",
          "type": "uint256"
        },
        {
          "internalType": "uint256",
          "name": "",
          "type": "uint256"
        },
        {
          "internalType": "string",
          "name": "",
          "type": "string"
        }
      ],
      "stateMutability": "view",
      "type": "function"
    }
  ],
  "bytecode": "0x60806040526000805534801561001457600080fd5b5033600460006101000a81548173ffffffffffffffffffffffffffffffffffffffff021916908373ffffffffffffffffffffffffffffffffffffffff160217905550600080819055506114078061006c6000396000f3fe608060405234801561001057600080fd5b50600436106100565760003560e01c80623f82021461005b5780634415345914610091578063893d20e8146100ad578063b6428fe1146100cb578063ffbd4dd5146100e9575b600080fd5b61007560048036038101906100709190610b12565b61011f565b6040516100889796959493929190610bde565b60405180910390f35b6100ab60048036038101906100a69190610da5565b610419565b005b6100b5610575565b6040516100c29190610f14565b60405180910390f35b6100d361059f565b6040516100e09190610f2f565b60405180910390f35b61010360048036038101906100fe9190610f4a565b6105a8565b6040516101169796959493929190610bde565b60405180910390f35b6003818154811061012f57600080fd5b906000526020600020906007020160009150905080600001805461015290610fc2565b80601f016020809104026020016040519081016040528092919081815260200182805461017e90610fc2565b80156101cb5780601f106101a0576101008083540402835291602001916101cb565b820191906000526020600020905b8154815290600101906020018083116101ae57829003601f168201915b5050505050908060010180546101e090610fc2565b80601f016020809104026020016040519081016040528092919081815260200182805461020c90610fc2565b80156102595780601f1061022e57610100808354040283529160200191610259565b820191906000526020600020905b81548152906001019060200180831161023c57829003601f168201915b50505050509080600201805461026e90610fc2565b80601f016020809104026020016040519081016040528092919081815260200182805461029a90610fc2565b80156102e75780601f106102bc576101008083540402835291602001916102e7565b820191906000526020600020905b8154815290600101906020018083116102ca57829003601f168201915b5050505050908060030180546102fc90610fc2565b80601f016020809104026020016040519081016040528092919081815260200182805461032890610fc2565b80156103755780601f1061034a57610100808354040283529160200191610375565b820191906000526020600020905b81548152906001019060200180831161035857829003601f168201915b50505050509080600401549080600501549080600601805461039690610fc2565b80601f01602080910402602001604051908101604052809291908181526020018280546103c290610fc2565b801561040f5780601f106103e45761010080835404028352916020019161040f565b820191906000526020600020905b8154815290600101906020018083116103f257829003601f168201915b5050505050905087565b3373ffffffffffffffffffffffffffffffffffffffff16600460009054906101000a900473ffffffffffffffffffffffffffffffffffffffff1673ffffffffffffffffffffffffffffffffffffffff161461047357600080fd5b60036040518060e0016040528089815260200188815260200187815260200186815260200185815260200184815260200183815250908060018154018082558091505060019003906000526020600020906007020160009091909190915060008201518160000190816104e6919061119f565b5060208201518160010190816104fc919061119f565b506040820151816002019081610512919061119f565b506060820151816003019081610528919061119f565b506080820151816004015560a0820151816005015560c0820151816006019081610552919061119f565b505050600080815480929190610567906112a0565b919050555050505050505050565b6000600460009054906101000a900473ffffffffffffffffffffffffffffffffffffffff16905090565b60008054905090565b606080606080600080606060005b600054811015610a52578880519060200120600382815481106105dc576105db6112e8565b5b90600052602060002090600702016000016040516105fa91906113ba565b604051809103902003610a3f576003818154811061061b5761061a6112e8565b5b9060005260206000209060070201600501544211158061066457506409502f9000600382815481106106505761064f6112e8565b5b906000526020600020906007020160050154145b15610a3e576003818154811061067d5761067c6112e8565b5b9060005260206000209060070201600001600382815481106106a2576106a16112e8565b5b9060005260206000209060070201600101600383815481106106c7576106c66112e8565b5b9060005260206000209060070201600201600384815481106106ec576106eb6112e8565b5b906000526020600020906007020160030160038581548110610711576107106112e8565b5b90600052602060002090600702016004015460038681548110610737576107366112e8565b5b9060005260206000209060070201600501546003878154811061075d5761075c6112e8565b5b906000526020600020906007020160060186805461077a90610fc2565b80601f01602080910402602001604051908101604052809291908181526020018280546107a690610fc2565b80156107f35780601f106107c8576101008083540402835291602001916107f3565b820191906000526020600020905b8154815290600101906020018083116107d657829003601f168201915b5050505050965085805461080690610fc2565b80601f016020809104026020016040519081016040528092919081815260200182805461083290610fc2565b801561087f5780601f106108545761010080835404028352916020019161087f565b820191906000526020600020905b81548152906001019060200180831161086257829003601f168201915b5050505050955084805461089290610fc2565b80601f01602080910402602001604051908101604052809291908181526020018280546108be90610fc2565b801561090b5780601f106108e05761010080835404028352916020019161090b565b820191906000526020600020905b8154815290600101906020018083116108ee57829003601f168201915b5050505050945083805461091e90610fc2565b80601f016020809104026020016040519081016040528092919081815260200182805461094a90610fc2565b80156109975780601f1061096c57610100808354040283529160200191610997565b820191906000526020600020905b81548152906001019060200180831161097a57829003601f168201915b505050505093508080546109aa90610fc2565b80601f01602080910402602001604051908101604052809291908181526020018280546109d690610fc2565b8015610a235780601f106109f857610100808354040283529160200191610a23565b820191906000526020600020905b815481529060010190602001808311610a0657829003601f168201915b50505050509050975097509750975097509750975050610abd565b5b8080610a4a906112a0565b9150506105b6565b506000806040518060200160405280600081525091906040518060200160405280600081525091906040518060200160405280600081525091906040518060200160405280600081525091906040518060200160405280600081525096509650965096509650965096505b919395979092949650565b6000604051905090565b600080fd5b600080fd5b6000819050919050565b610aef81610adc565b8114610afa57600080fd5b50565b600081359050610b0c81610ae6565b92915050565b600060208284031215610b2857610b27610ad2565b5b6000610b3684828501610afd565b91505092915050565b600081519050919050565b600082825260208201905092915050565b60005b83811015610b79578082015181840152602081019050610b5e565b60008484015250505050565b6000601f19601f8301169050919050565b6000610ba182610b3f565b610bab8185610b4a565b9350610bbb818560208601610b5b565b610bc481610b85565b840191505092915050565b610bd881610adc565b82525050565b600060e0820190508181036000830152610bf8818a610b96565b90508181036020830152610c0c8189610b96565b90508181036040830152610c208188610b96565b90508181036060830152610c348187610b96565b9050610c436080830186610bcf565b610c5060a0830185610bcf565b81810360c0830152610c628184610b96565b905098975050505050505050565b600080fd5b600080fd5b7f4e487b7100000000000000000000000000000000000000000000000000000000600052604160045260246000fd5b610cb282610b85565b810181811067ffffffffffffffff82111715610cd157610cd0610c7a565b5b80604052505050565b6000610ce4610ac8565b9050610cf08282610ca9565b919050565b600067ffffffffffffffff821115610d1057610d0f610c7a565b5b610d1982610b85565b9050602081019050919050565b82818337600083830152505050565b6000610d48610d4384610cf5565b610cda565b905082815260208101848484011115610d6457610d63610c75565b5b610d6f848285610d26565b509392505050565b600082601f830112610d8c57610d8b610c70565b5b8135610d9c848260208601610d35565b91505092915050565b600080600080600080600060e0888a031215610dc457610dc3610ad2565b5b600088013567ffffffffffffffff811115610de257610de1610ad7565b5b610dee8a828b01610d77565b975050602088013567ffffffffffffffff811115610e0f57610e0e610ad7565b5b610e1b8a828b01610d77565b965050604088013567ffffffffffffffff811115610e3c57610e3b610ad7565b5b610e488a828b01610d77565b955050606088013567ffffffffffffffff811115610e6957610e68610ad7565b5b610e758a828b01610d77565b9450506080610e868a828b01610afd565b93505060a0610e978a828b01610afd565b92505060c088013567ffffffffffffffff811115610eb857610eb7610ad7565b5b610ec48a828b01610d77565b91505092959891949750929550565b600073ffffffffffffffffffffffffffffffffffffffff82169050919050565b6000610efe82610ed3565b9050919050565b610f0e81610ef3565b82525050565b6000602082019050610f296000830184610f05565b92915050565b6000602082019050610f446000830184610bcf565b92915050565b600060208284031215610f6057610f5f610ad2565b5b600082013567ffffffffffffffff811115610f7e57610f7d610ad7565b5b610f8a84828501610d77565b91505092915050565b7f4e487b7100000000000000000000000000000000000000000000000000000000600052602260045260246000fd5b60006002820490506001821680610fda57607f821691505b602082108103610fed57610fec610f93565b5b50919050565b60008190508160005260206000209050919050565b60006020601f8301049050919050565b600082821b905092915050565b6000600883026110557fffffffffffffffffffffffffffffffffffffffffffffffffffffffffffffffff82611018565b61105f8683611018565b95508019841693508086168417925050509392505050565b6000819050919050565b600061109c61109761109284610adc565b611077565b610adc565b9050919050565b6000819050919050565b6110b683611081565b6110ca6110c2826110a3565b848454611025565b825550505050565b600090565b6110df6110d2565b6110ea8184846110ad565b505050565b5b8181101561110e576111036000826110d7565b6001810190506110f0565b5050565b601f8211156111535761112481610ff3565b61112d84611008565b8101602085101561113c578190505b61115061114885611008565b8301826110ef565b50505b505050565b600082821c905092915050565b600061117660001984600802611158565b1980831691505092915050565b600061118f8383611165565b9150826002028217905092915050565b6111a882610b3f565b67ffffffffffffffff8111156111c1576111c0610c7a565b5b6111cb8254610fc2565b6111d6828285611112565b600060209050601f83116001811461120957600084156111f7578287015190505b6112018582611183565b865550611269565b601f19841661121786610ff3565b60005b8281101561123f5784890151825560018201915060208501945060208101905061121a565b8683101561125c5784890151611258601f891682611165565b8355505b6001600288020188555050505b505050505050565b7f4e487b7100000000000000000000000000000000000000000000000000000000600052601160045260246000fd5b60006112ab82610adc565b91507fffffffffffffffffffffffffffffffffffffffffffffffffffffffffffffffff82036112dd576112dc611271565b5b600182019050919050565b7f4e487b7100000000000000000000000000000000000000000000000000000000600052603260045260246000fd5b600081905092915050565b60008190508160005260206000209050919050565b6000815461134481610fc2565b61134e8186611317565b94506001821660008114611369576001811461137e576113b1565b60ff19831686528115158202860193506113b1565b61138785611322565b60005b838110156113a95781548189015260018201915060208101905061138a565b838801955050505b50505092915050565b60006113c68284611337565b91508190509291505056fea2646970667358221220dfa049eed76a64506e22bb27856b09abd6b5067e8566e7f2b692f5623ba65d2d64736f6c63430008140033",
  "immutableReferences": {},
  "source": "// SPDX-License-Identifier: MIT\r\npragma solidity ^0.8.20;\r\n\r\ncontract Certificate {\r\n    struct Certified {\r\n        string credentialID;\r\n        string name;\r\n        string courseName;\r\n        string issuingOrganization;\r\n        uint issueDate;\r\n        uint expirationDate;\r\n        string reasonForAward;\r\n    }\r\n\r\n    uint numberOfCertificates = 0;\r\n\r\n    mapping(string => Certified) newCertified;\r\n    mapping(string => Certified) selectedCertified;\r\n\r\n    Certified[] public certified;\r\n\r\n    address owner;\r\n\r\n    constructor() {\r\n        owner = msg.sender;\r\n        numberOfCertificates = 0;\r\n    }\r\n\r\n    function getNumberOfCertificates() public view returns (uint) {\r\n        return (numberOfCertificates);\r\n    }\r\n\r\n    function getOwner() public view returns (address) {\r\n        return (owner);\r\n    }\r\n\r\n    function addCertificate(\r\n        string memory _credentialID,\r\n        string memory _name,\r\n        string memory _courseName,\r\n        string memory _issuingOrganization,\r\n        uint _issueDate,\r\n        uint _expirationDate,\r\n        string memory _reasonForAward\r\n    ) public {\r\n        require(owner == msg.sender);\r\n        certified.push(\r\n            Certified({\r\n                credentialID: _credentialID,\r\n                name: _name,\r\n                courseName: _courseName,\r\n                issuingOrganization: _issuingOrganization,\r\n                issueDate: _issueDate,\r\n                expirationDate: _expirationDate,\r\n                reasonForAward: _reasonForAward\r\n            })\r\n        );\r\n        numberOfCertificates++;\r\n    }\r\n\r\n    function checkCertificate(\r\n        string memory _credentialID\r\n    )\r\n        public\r\n        view\r\n        returns (\r\n            string memory,\r\n            string memory,\r\n            string memory,\r\n            string memory,\r\n            uint,\r\n            uint,\r\n            string memory\r\n        )\r\n    {\r\n        for (uint m = 0; m < numberOfCertificates; m++) {\r\n            if (\r\n                keccak256(bytes(certified[m].credentialID)) ==\r\n                keccak256(bytes(_credentialID))\r\n            ) {\r\n                if (\r\n                    (block.timestamp <= certified[m].expirationDate) ||\r\n                    (certified[m].expirationDate == 40000000000)\r\n                ) {\r\n                    return (\r\n                        certified[m].credentialID,\r\n                        certified[m].name,\r\n                        certified[m].courseName,\r\n                        certified[m].issuingOrganization,\r\n                        certified[m].issueDate,\r\n                        certified[m].expirationDate,\r\n                        certified[m].reasonForAward\r\n                    );\r\n                }\r\n            }\r\n        }\r\n        return (\"\", \"\", \"\", \"\", 0, 0, \"\");\r\n    }\r\n}\r\n",
  "sourcePath": "C:\\Users\\farid\\Desktop\\CertifiedBlockchainTruffle\\truffle\\contracts\\certificate.sol",
  "compiler": {
    "name": "solc",
    "version": "0.8.20+commit.a1b79de6.Emscripten.clang"
  },
  "schemaVersion": "3.4.16",
  "updatedAt": "2024-04-25T06:59:30.979Z",
  "devdoc": {
    "kind": "dev",
    "methods": {},
    "version": 1
  },
  "userdoc": {
    "kind": "user",
    "methods": {},
    "version": 1
  }
}