{
  "contractName": "CoderToken",
  "abi": [
    {
      "inputs": [],
      "stateMutability": "nonpayable",
      "type": "constructor"
    },
    {
      "anonymous": false,
      "inputs": [
        {
          "indexed": true,
          "internalType": "address",
          "name": "owner",
          "type": "address"
        },
        {
          "indexed": true,
          "internalType": "address",
          "name": "spender",
          "type": "address"
        },
        {
          "indexed": false,
          "internalType": "uint256",
          "name": "value",
          "type": "uint256"
        }
      ],
      "name": "Approval",
      "type": "event"
    },
    {
      "anonymous": false,
      "inputs": [
        {
          "indexed": true,
          "internalType": "address",
          "name": "from",
          "type": "address"
        },
        {
          "indexed": true,
          "internalType": "address",
          "name": "to",
          "type": "address"
        },
        {
          "indexed": false,
          "internalType": "uint256",
          "name": "value",
          "type": "uint256"
        }
      ],
      "name": "Transfer",
      "type": "event"
    },
    {
      "inputs": [],
      "name": "Owner",
      "outputs": [
        {
          "internalType": "address",
          "name": "",
          "type": "address"
        }
      ],
      "stateMutability": "view",
      "type": "function"
    },
    {
      "inputs": [
        {
          "internalType": "address",
          "name": "",
          "type": "address"
        },
        {
          "internalType": "address",
          "name": "",
          "type": "address"
        }
      ],
      "name": "allowance",
      "outputs": [
        {
          "internalType": "uint256",
          "name": "",
          "type": "uint256"
        }
      ],
      "stateMutability": "view",
      "type": "function"
    },
    {
      "inputs": [
        {
          "internalType": "address",
          "name": "",
          "type": "address"
        }
      ],
      "name": "balanceOf",
      "outputs": [
        {
          "internalType": "uint256",
          "name": "",
          "type": "uint256"
        }
      ],
      "stateMutability": "view",
      "type": "function"
    },
    {
      "inputs": [],
      "name": "decimals",
      "outputs": [
        {
          "internalType": "uint8",
          "name": "",
          "type": "uint8"
        }
      ],
      "stateMutability": "view",
      "type": "function"
    },
    {
      "inputs": [],
      "name": "name",
      "outputs": [
        {
          "internalType": "string",
          "name": "",
          "type": "string"
        }
      ],
      "stateMutability": "view",
      "type": "function"
    },
    {
      "inputs": [],
      "name": "symbol",
      "outputs": [
        {
          "internalType": "string",
          "name": "",
          "type": "string"
        }
      ],
      "stateMutability": "view",
      "type": "function"
    },
    {
      "inputs": [],
      "name": "totalSupply",
      "outputs": [
        {
          "internalType": "uint256",
          "name": "",
          "type": "uint256"
        }
      ],
      "stateMutability": "view",
      "type": "function"
    },
    {
      "inputs": [
        {
          "internalType": "address",
          "name": "recipient",
          "type": "address"
        },
        {
          "internalType": "uint256",
          "name": "amount",
          "type": "uint256"
        }
      ],
      "name": "transfer",
      "outputs": [
        {
          "internalType": "bool",
          "name": "",
          "type": "bool"
        }
      ],
      "stateMutability": "nonpayable",
      "type": "function"
    },
    {
      "inputs": [
        {
          "internalType": "address",
          "name": "spender",
          "type": "address"
        },
        {
          "internalType": "uint256",
          "name": "amount",
          "type": "uint256"
        }
      ],
      "name": "approve",
      "outputs": [
        {
          "internalType": "bool",
          "name": "",
          "type": "bool"
        }
      ],
      "stateMutability": "nonpayable",
      "type": "function"
    },
    {
      "inputs": [
        {
          "internalType": "address",
          "name": "sender",
          "type": "address"
        },
        {
          "internalType": "address",
          "name": "recipient",
          "type": "address"
        },
        {
          "internalType": "uint256",
          "name": "amount",
          "type": "uint256"
        }
      ],
      "name": "transferFrom",
      "outputs": [
        {
          "internalType": "bool",
          "name": "",
          "type": "bool"
        }
      ],
      "stateMutability": "nonpayable",
      "type": "function"
    },
    {
      "inputs": [
        {
          "internalType": "uint256",
          "name": "amount",
          "type": "uint256"
        }
      ],
      "name": "mint",
      "outputs": [],
      "stateMutability": "nonpayable",
      "type": "function"
    },
    {
      "inputs": [
        {
          "internalType": "uint256",
          "name": "amount",
          "type": "uint256"
        }
      ],
      "name": "burn",
      "outputs": [],
      "stateMutability": "nonpayable",
      "type": "function"
    }
  ],
  "bytecode": "0x60806040526040518060400160405280600b81526020017f466172696420546f6b656e000000000000000000000000000000000000000000815250600290816200004a9190620003a2565b506040518060400160405280600381526020017f465254000000000000000000000000000000000000000000000000000000000081525060039081620000919190620003a2565b50600a600460006101000a81548160ff021916908360ff160217905550600460009054906101000a900460ff1660ff1662cfaff9620000d191906200060c565b600555348015620000e157600080fd5b50336000806101000a81548173ffffffffffffffffffffffffffffffffffffffff021916908373ffffffffffffffffffffffffffffffffffffffff1602179055506200065d565b600081519050919050565b7f4e487b7100000000000000000000000000000000000000000000000000000000600052604160045260246000fd5b7f4e487b7100000000000000000000000000000000000000000000000000000000600052602260045260246000fd5b60006002820490506001821680620001aa57607f821691505b602082108103620001c057620001bf62000162565b5b50919050565b60008190508160005260206000209050919050565b60006020601f8301049050919050565b600082821b905092915050565b6000600883026200022a7fffffffffffffffffffffffffffffffffffffffffffffffffffffffffffffffff82620001eb565b620002368683620001eb565b95508019841693508086168417925050509392505050565b6000819050919050565b6000819050919050565b6000620002836200027d62000277846200024e565b62000258565b6200024e565b9050919050565b6000819050919050565b6200029f8362000262565b620002b7620002ae826200028a565b848454620001f8565b825550505050565b600090565b620002ce620002bf565b620002db81848462000294565b505050565b5b818110156200030357620002f7600082620002c4565b600181019050620002e1565b5050565b601f82111562000352576200031c81620001c6565b6200032784620001db565b8101602085101562000337578190505b6200034f6200034685620001db565b830182620002e0565b50505b505050565b600082821c905092915050565b6000620003776000198460080262000357565b1980831691505092915050565b600062000392838362000364565b9150826002028217905092915050565b620003ad8262000128565b67ffffffffffffffff811115620003c957620003c862000133565b5b620003d5825462000191565b620003e282828562000307565b600060209050601f8311600181146200041a576000841562000405578287015190505b62000411858262000384565b86555062000481565b601f1984166200042a86620001c6565b60005b8281101562000454578489015182556001820191506020850194506020810190506200042d565b8683101562000474578489015162000470601f89168262000364565b8355505b6001600288020188555050505b505050505050565b7f4e487b7100000000000000000000000000000000000000000000000000000000600052601160045260246000fd5b60008160011c9050919050565b6000808291508390505b60018511156200051757808604811115620004ef57620004ee62000489565b5b6001851615620004ff5780820291505b80810290506200050f85620004b8565b9450620004cf565b94509492505050565b60008262000532576001905062000605565b8162000542576000905062000605565b81600181146200055b576002811462000566576200059c565b600191505062000605565b60ff8411156200057b576200057a62000489565b5b8360020a91508482111562000595576200059462000489565b5b5062000605565b5060208310610133831016604e8410600b8410161715620005d65782820a905083811115620005d057620005cf62000489565b5b62000605565b620005e58484846001620004c5565b92509050818404811115620005ff57620005fe62000489565b5b81810290505b9392505050565b600062000619826200024e565b915062000626836200024e565b9250620006557fffffffffffffffffffffffffffffffffffffffffffffffffffffffffffffffff848462000520565b905092915050565b610e93806200066d6000396000f3fe608060405234801561001057600080fd5b50600436106100b45760003560e01c806370a082311161007157806370a082311461018f57806395d89b41146101bf578063a0712d68146101dd578063a9059cbb146101f9578063b4a99a4e14610229578063dd62ed3e14610247576100b4565b806306fdde03146100b9578063095ea7b3146100d757806318160ddd1461010757806323b872dd14610125578063313ce5671461015557806342966c6814610173575b600080fd5b6100c1610277565b6040516100ce9190610abd565b60405180910390f35b6100f160048036038101906100ec9190610b78565b610305565b6040516100fe9190610bd3565b60405180910390f35b61010f6103f7565b60405161011c9190610bfd565b60405180910390f35b61013f600480360381019061013a9190610c18565b6103fd565b60405161014c9190610bd3565b60405180910390f35b61015d6105ae565b60405161016a9190610c87565b60405180910390f35b61018d60048036038101906101889190610ca2565b6105c1565b005b6101a960048036038101906101a49190610ccf565b6106f1565b6040516101b69190610bfd565b60405180910390f35b6101c7610709565b6040516101d49190610abd565b60405180910390f35b6101f760048036038101906101f29190610ca2565b610797565b005b610213600480360381019061020e9190610b78565b6108c7565b6040516102209190610bd3565b60405180910390f35b6102316109e4565b60405161023e9190610d0b565b60405180910390f35b610261600480360381019061025c9190610d26565b610a08565b60405161026e9190610bfd565b60405180910390f35b6002805461028490610d95565b80601f01602080910402602001604051908101604052809291908181526020018280546102b090610d95565b80156102fd5780601f106102d2576101008083540402835291602001916102fd565b820191906000526020600020905b8154815290600101906020018083116102e057829003601f168201915b505050505081565b600081600160003373ffffffffffffffffffffffffffffffffffffffff1673ffffffffffffffffffffffffffffffffffffffff16815260200190815260200160002060008573ffffffffffffffffffffffffffffffffffffffff1673ffffffffffffffffffffffffffffffffffffffff168152602001908152602001600020819055508273ffffffffffffffffffffffffffffffffffffffff163373ffffffffffffffffffffffffffffffffffffffff167f8c5be1e5ebec7d5bd14f71427d1e84f3dd0314c0f7b2291e5b200ac8c7c3b925846040516103e59190610bfd565b60405180910390a36001905092915050565b60055481565b600081600160008673ffffffffffffffffffffffffffffffffffffffff1673ffffffffffffffffffffffffffffffffffffffff16815260200190815260200160002060003373ffffffffffffffffffffffffffffffffffffffff1673ffffffffffffffffffffffffffffffffffffffff168152602001908152602001600020600082825461048b9190610df5565b9250508190555081600660008673ffffffffffffffffffffffffffffffffffffffff1673ffffffffffffffffffffffffffffffffffffffff16815260200190815260200160002060008282546104e19190610df5565b9250508190555081600660008573ffffffffffffffffffffffffffffffffffffffff1673ffffffffffffffffffffffffffffffffffffffff16815260200190815260200160002060008282546105379190610e29565b925050819055508273ffffffffffffffffffffffffffffffffffffffff168473ffffffffffffffffffffffffffffffffffffffff167fddf252ad1be2c89b69c2b068fc378daa952ba7f163c4a11628f55a4df523b3ef8460405161059b9190610bfd565b60405180910390a3600190509392505050565b600460009054906101000a900460ff1681565b60008054906101000a900473ffffffffffffffffffffffffffffffffffffffff1673ffffffffffffffffffffffffffffffffffffffff163373ffffffffffffffffffffffffffffffffffffffff161461061957600080fd5b80600660003373ffffffffffffffffffffffffffffffffffffffff1673ffffffffffffffffffffffffffffffffffffffff16815260200190815260200160002060008282546106689190610df5565b9250508190555080600560008282546106819190610df5565b92505081905550600073ffffffffffffffffffffffffffffffffffffffff163373ffffffffffffffffffffffffffffffffffffffff167fddf252ad1be2c89b69c2b068fc378daa952ba7f163c4a11628f55a4df523b3ef836040516106e69190610bfd565b60405180910390a350565b60066020528060005260406000206000915090505481565b6003805461071690610d95565b80601f016020809104026020016040519081016040528092919081815260200182805461074290610d95565b801561078f5780601f106107645761010080835404028352916020019161078f565b820191906000526020600020905b81548152906001019060200180831161077257829003601f168201915b505050505081565b60008054906101000a900473ffffffffffffffffffffffffffffffffffffffff1673ffffffffffffffffffffffffffffffffffffffff163373ffffffffffffffffffffffffffffffffffffffff16146107ef57600080fd5b80600660003373ffffffffffffffffffffffffffffffffffffffff1673ffffffffffffffffffffffffffffffffffffffff168152602001908152602001600020600082825461083e9190610e29565b9250508190555080600560008282546108579190610e29565b925050819055503373ffffffffffffffffffffffffffffffffffffffff16600073ffffffffffffffffffffffffffffffffffffffff167fddf252ad1be2c89b69c2b068fc378daa952ba7f163c4a11628f55a4df523b3ef836040516108bc9190610bfd565b60405180910390a350565b600081600660003373ffffffffffffffffffffffffffffffffffffffff1673ffffffffffffffffffffffffffffffffffffffff16815260200190815260200160002060008282546109189190610df5565b9250508190555081600660008573ffffffffffffffffffffffffffffffffffffffff1673ffffffffffffffffffffffffffffffffffffffff168152602001908152602001600020600082825461096e9190610e29565b925050819055508273ffffffffffffffffffffffffffffffffffffffff163373ffffffffffffffffffffffffffffffffffffffff167fddf252ad1be2c89b69c2b068fc378daa952ba7f163c4a11628f55a4df523b3ef846040516109d29190610bfd565b60405180910390a36001905092915050565b60008054906101000a900473ffffffffffffffffffffffffffffffffffffffff1681565b6001602052816000526040600020602052806000526040600020600091509150505481565b600081519050919050565b600082825260208201905092915050565b60005b83811015610a67578082015181840152602081019050610a4c565b60008484015250505050565b6000601f19601f8301169050919050565b6000610a8f82610a2d565b610a998185610a38565b9350610aa9818560208601610a49565b610ab281610a73565b840191505092915050565b60006020820190508181036000830152610ad78184610a84565b905092915050565b600080fd5b600073ffffffffffffffffffffffffffffffffffffffff82169050919050565b6000610b0f82610ae4565b9050919050565b610b1f81610b04565b8114610b2a57600080fd5b50565b600081359050610b3c81610b16565b92915050565b6000819050919050565b610b5581610b42565b8114610b6057600080fd5b50565b600081359050610b7281610b4c565b92915050565b60008060408385031215610b8f57610b8e610adf565b5b6000610b9d85828601610b2d565b9250506020610bae85828601610b63565b9150509250929050565b60008115159050919050565b610bcd81610bb8565b82525050565b6000602082019050610be86000830184610bc4565b92915050565b610bf781610b42565b82525050565b6000602082019050610c126000830184610bee565b92915050565b600080600060608486031215610c3157610c30610adf565b5b6000610c3f86828701610b2d565b9350506020610c5086828701610b2d565b9250506040610c6186828701610b63565b9150509250925092565b600060ff82169050919050565b610c8181610c6b565b82525050565b6000602082019050610c9c6000830184610c78565b92915050565b600060208284031215610cb857610cb7610adf565b5b6000610cc684828501610b63565b91505092915050565b600060208284031215610ce557610ce4610adf565b5b6000610cf384828501610b2d565b91505092915050565b610d0581610b04565b82525050565b6000602082019050610d206000830184610cfc565b92915050565b60008060408385031215610d3d57610d3c610adf565b5b6000610d4b85828601610b2d565b9250506020610d5c85828601610b2d565b9150509250929050565b7f4e487b7100000000000000000000000000000000000000000000000000000000600052602260045260246000fd5b60006002820490506001821680610dad57607f821691505b602082108103610dc057610dbf610d66565b5b50919050565b7f4e487b7100000000000000000000000000000000000000000000000000000000600052601160045260246000fd5b6000610e0082610b42565b9150610e0b83610b42565b9250828203905081811115610e2357610e22610dc6565b5b92915050565b6000610e3482610b42565b9150610e3f83610b42565b9250828201905080821115610e5757610e56610dc6565b5b9291505056fea26469706673582212202091afab01246ced5c0f1aeae42e9c6525fc50e560a53471d04eac762d1fb74b64736f6c63430008140033",
  "immutableReferences": {},
  "source": "// SPDX-License-Identifier: MIT\npragma solidity ^0.8.20;\n\ninterface IERC20 {\n    function totalSupply() external view returns (uint);\n\n    function balanceOf(address account) external view returns (uint);\n\n    function transfer(address recipient, uint amount) external returns (bool);\n\n    function allowance(\n        address owner,\n        address spender\n    ) external view returns (uint);\n\n    function approve(address spender, uint amount) external returns (bool);\n\n    function transferFrom(\n        address sender,\n        address recipient,\n        uint amount\n    ) external returns (bool);\n\n    event Transfer(address indexed from, address indexed to, uint value);\n    event Approval(address indexed owner, address indexed spender, uint value);\n}\n\ncontract CoderToken is IERC20 {\n    address public Owner;\n\n    mapping(address => mapping(address => uint)) public allowance;\n    string public name = \"Farid Token\";\n    string public symbol = \"FRT\";\n    uint8 public decimals = 10;\n    uint256 public totalSupply = 13611001 ** uint256(decimals);\n    mapping(address => uint) public balanceOf;\n    constructor() {\n        Owner = msg.sender;\n    }\n\n    modifier onlyOwner() {\n        require(msg.sender == Owner);\n        _;\n    }\n\n    function transfer(address recipient, uint amount) external returns (bool) {\n        balanceOf[msg.sender] -= amount;\n        balanceOf[recipient] += amount;\n        emit Transfer(msg.sender, recipient, amount);\n        return true;\n    }\n\n    function approve(address spender, uint amount) external returns (bool) {\n        allowance[msg.sender][spender] = amount;\n        emit Approval(msg.sender, spender, amount);\n        return true;\n    }\n\n    function transferFrom(\n        address sender,\n        address recipient,\n        uint amount\n    ) external returns (bool) {\n        allowance[sender][msg.sender] -= amount;\n        balanceOf[sender] -= amount;\n        balanceOf[recipient] += amount;\n        emit Transfer(sender, recipient, amount);\n        return true;\n    }\n\n    function mint(uint amount) external onlyOwner {\n        balanceOf[msg.sender] += amount;\n        totalSupply += amount;\n        emit Transfer(address(0), msg.sender, amount);\n    }\n\n    function burn(uint amount) external onlyOwner {\n        balanceOf[msg.sender] -= amount;\n        totalSupply -= amount;\n        emit Transfer(msg.sender, address(0), amount);\n    }\n}\n",
  "sourcePath": "C:\\Users\\farid\\Desktop\\CertifiedBlockchainTruffle\\truffle\\contracts\\CoderToken.sol",
  "compiler": {
    "name": "solc",
    "version": "0.8.20+commit.a1b79de6.Emscripten.clang"
  },
  "schemaVersion": "3.4.16",
  "updatedAt": "2024-04-19T07:16:04.602Z",
  "devdoc": {
    "kind": "dev",
    "methods": {},
    "version": 1
  },
  "userdoc": {
    "kind": "user",
    "methods": {},
    "version": 1
  }
}