{
  "contractName": "CryptoDoggies",
  "abi": [
    {
      "anonymous": false,
      "inputs": [
        {
          "indexed": true,
          "internalType": "address",
          "name": "_owner",
          "type": "address"
        },
        {
          "indexed": true,
          "internalType": "address",
          "name": "_approved",
          "type": "address"
        },
        {
          "indexed": false,
          "internalType": "uint256",
          "name": "_tokenId",
          "type": "uint256"
        }
      ],
      "name": "Approval",
      "type": "event"
    },
    {
      "anonymous": false,
      "inputs": [
        {
          "indexed": false,
          "internalType": "uint256",
          "name": "tokenId",
          "type": "uint256"
        },
        {
          "indexed": false,
          "internalType": "string",
          "name": "name",
          "type": "string"
        },
        {
          "indexed": false,
          "internalType": "bytes5",
          "name": "dna",
          "type": "bytes5"
        },
        {
          "indexed": false,
          "internalType": "uint256",
          "name": "price",
          "type": "uint256"
        },
        {
          "indexed": false,
          "internalType": "address",
          "name": "owner",
          "type": "address"
        }
      ],
      "name": "TokenCreated",
      "type": "event"
    },
    {
      "anonymous": false,
      "inputs": [
        {
          "indexed": true,
          "internalType": "uint256",
          "name": "tokenId",
          "type": "uint256"
        },
        {
          "indexed": false,
          "internalType": "string",
          "name": "name",
          "type": "string"
        },
        {
          "indexed": false,
          "internalType": "bytes5",
          "name": "dna",
          "type": "bytes5"
        },
        {
          "indexed": false,
          "internalType": "uint256",
          "name": "sellingPrice",
          "type": "uint256"
        },
        {
          "indexed": false,
          "internalType": "uint256",
          "name": "newPrice",
          "type": "uint256"
        },
        {
          "indexed": true,
          "internalType": "address",
          "name": "oldOwner",
          "type": "address"
        },
        {
          "indexed": true,
          "internalType": "address",
          "name": "newOwner",
          "type": "address"
        }
      ],
      "name": "TokenSold",
      "type": "event"
    },
    {
      "anonymous": false,
      "inputs": [
        {
          "indexed": true,
          "internalType": "address",
          "name": "_from",
          "type": "address"
        },
        {
          "indexed": true,
          "internalType": "address",
          "name": "_to",
          "type": "address"
        },
        {
          "indexed": false,
          "internalType": "uint256",
          "name": "_tokenId",
          "type": "uint256"
        }
      ],
      "name": "Transfer",
      "type": "event"
    },
    {
      "inputs": [],
      "name": "owner",
      "outputs": [
        {
          "internalType": "address payable",
          "name": "",
          "type": "address"
        }
      ],
      "stateMutability": "view",
      "type": "function"
    },
    {
      "inputs": [],
      "name": "pause",
      "outputs": [],
      "stateMutability": "nonpayable",
      "type": "function"
    },
    {
      "inputs": [],
      "name": "paused",
      "outputs": [
        {
          "internalType": "bool",
          "name": "",
          "type": "bool"
        }
      ],
      "stateMutability": "view",
      "type": "function"
    },
    {
      "inputs": [
        {
          "internalType": "address",
          "name": "_newOwner",
          "type": "address"
        }
      ],
      "name": "setOwner",
      "outputs": [],
      "stateMutability": "nonpayable",
      "type": "function"
    },
    {
      "inputs": [],
      "name": "unpause",
      "outputs": [],
      "stateMutability": "nonpayable",
      "type": "function"
    },
    {
      "inputs": [
        {
          "internalType": "string",
          "name": "_name",
          "type": "string"
        }
      ],
      "name": "createToken",
      "outputs": [],
      "stateMutability": "nonpayable",
      "type": "function"
    },
    {
      "inputs": [
        {
          "internalType": "string",
          "name": "_name",
          "type": "string"
        },
        {
          "internalType": "address",
          "name": "_owner",
          "type": "address"
        },
        {
          "internalType": "uint256",
          "name": "_price",
          "type": "uint256"
        }
      ],
      "name": "createToken",
      "outputs": [],
      "stateMutability": "nonpayable",
      "type": "function"
    },
    {
      "inputs": [
        {
          "internalType": "uint256",
          "name": "_tokenId",
          "type": "uint256"
        }
      ],
      "name": "getToken",
      "outputs": [
        {
          "internalType": "string",
          "name": "_tokenName",
          "type": "string"
        },
        {
          "internalType": "bytes5",
          "name": "_dna",
          "type": "bytes5"
        },
        {
          "internalType": "uint256",
          "name": "_price",
          "type": "uint256"
        },
        {
          "internalType": "uint256",
          "name": "_nextPrice",
          "type": "uint256"
        },
        {
          "internalType": "address",
          "name": "_owner",
          "type": "address"
        }
      ],
      "stateMutability": "view",
      "type": "function"
    },
    {
      "inputs": [],
      "name": "getAllTokens",
      "outputs": [
        {
          "internalType": "string[]",
          "name": "",
          "type": "string[]"
        },
        {
          "internalType": "bytes5[]",
          "name": "",
          "type": "bytes5[]"
        },
        {
          "internalType": "uint256[]",
          "name": "",
          "type": "uint256[]"
        },
        {
          "internalType": "uint256[]",
          "name": "",
          "type": "uint256[]"
        },
        {
          "internalType": "address[]",
          "name": "",
          "type": "address[]"
        }
      ],
      "stateMutability": "view",
      "type": "function"
    },
    {
      "inputs": [
        {
          "internalType": "address",
          "name": "_owner",
          "type": "address"
        }
      ],
      "name": "tokensOf",
      "outputs": [
        {
          "internalType": "uint256[]",
          "name": "",
          "type": "uint256[]"
        }
      ],
      "stateMutability": "view",
      "type": "function"
    },
    {
      "inputs": [
        {
          "internalType": "address payable",
          "name": "_to",
          "type": "address"
        },
        {
          "internalType": "uint256",
          "name": "_amount",
          "type": "uint256"
        }
      ],
      "name": "withdrawBalance",
      "outputs": [],
      "stateMutability": "payable",
      "type": "function"
    },
    {
      "inputs": [
        {
          "internalType": "uint256",
          "name": "_tokenId",
          "type": "uint256"
        }
      ],
      "name": "purchase",
      "outputs": [],
      "stateMutability": "payable",
      "type": "function"
    },
    {
      "inputs": [
        {
          "internalType": "uint256",
          "name": "_tokenId",
          "type": "uint256"
        }
      ],
      "name": "priceOf",
      "outputs": [
        {
          "internalType": "uint256",
          "name": "_price",
          "type": "uint256"
        }
      ],
      "stateMutability": "view",
      "type": "function"
    },
    {
      "inputs": [
        {
          "internalType": "uint256",
          "name": "_tokenId",
          "type": "uint256"
        }
      ],
      "name": "nextPriceOf",
      "outputs": [
        {
          "internalType": "uint256",
          "name": "_nextPrice",
          "type": "uint256"
        }
      ],
      "stateMutability": "view",
      "type": "function"
    },
    {
      "inputs": [],
      "name": "enableERC721",
      "outputs": [],
      "stateMutability": "nonpayable",
      "type": "function"
    },
    {
      "inputs": [],
      "name": "totalSupply",
      "outputs": [
        {
          "internalType": "uint256",
          "name": "_totalSupply",
          "type": "uint256"
        }
      ],
      "stateMutability": "view",
      "type": "function"
    },
    {
      "inputs": [
        {
          "internalType": "address",
          "name": "_owner",
          "type": "address"
        }
      ],
      "name": "balanceOf",
      "outputs": [
        {
          "internalType": "uint256",
          "name": "_balance",
          "type": "uint256"
        }
      ],
      "stateMutability": "view",
      "type": "function"
    },
    {
      "inputs": [
        {
          "internalType": "uint256",
          "name": "_tokenId",
          "type": "uint256"
        }
      ],
      "name": "ownerOf",
      "outputs": [
        {
          "internalType": "address",
          "name": "_owner",
          "type": "address"
        }
      ],
      "stateMutability": "view",
      "type": "function"
    },
    {
      "inputs": [
        {
          "internalType": "address",
          "name": "_to",
          "type": "address"
        },
        {
          "internalType": "uint256",
          "name": "_tokenId",
          "type": "uint256"
        }
      ],
      "name": "approve",
      "outputs": [],
      "stateMutability": "nonpayable",
      "type": "function"
    },
    {
      "inputs": [
        {
          "internalType": "address",
          "name": "_from",
          "type": "address"
        },
        {
          "internalType": "address",
          "name": "_to",
          "type": "address"
        },
        {
          "internalType": "uint256",
          "name": "_tokenId",
          "type": "uint256"
        }
      ],
      "name": "transferFrom",
      "outputs": [],
      "stateMutability": "nonpayable",
      "type": "function"
    },
    {
      "inputs": [
        {
          "internalType": "address",
          "name": "_to",
          "type": "address"
        },
        {
          "internalType": "uint256",
          "name": "_tokenId",
          "type": "uint256"
        }
      ],
      "name": "transfer",
      "outputs": [],
      "stateMutability": "nonpayable",
      "type": "function"
    },
    {
      "inputs": [],
      "name": "implementsERC721",
      "outputs": [
        {
          "internalType": "bool",
          "name": "",
          "type": "bool"
        }
      ],
      "stateMutability": "view",
      "type": "function"
    },
    {
      "inputs": [
        {
          "internalType": "uint256",
          "name": "_tokenId",
          "type": "uint256"
        }
      ],
      "name": "takeOwnership",
      "outputs": [],
      "stateMutability": "nonpayable",
      "type": "function"
    },
    {
      "inputs": [],
      "name": "name",
      "outputs": [
        {
          "internalType": "string",
          "name": "_name",
          "type": "string"
        }
      ],
      "stateMutability": "pure",
      "type": "function"
    },
    {
      "inputs": [],
      "name": "symbol",
      "outputs": [
        {
          "internalType": "string",
          "name": "_symbol",
          "type": "string"
        }
      ],
      "stateMutability": "pure",
      "type": "function"
    }
  ],
  "bytecode": "0x608060405260008060146101000a81548160ff021916908315150217905550662386f26fc100006006556000600760006101000a81548160ff02191690831515021790555066470de4df8200006008556706f05b59d3b20000600955671bc16d674ec80000600a55674563918244f40000600b5534801561007f57600080fd5b50336000806101000a81548173ffffffffffffffffffffffffffffffffffffffff021916908373ffffffffffffffffffffffffffffffffffffffff160217905550612f39806100cf6000396000f3fe6080604052600436106101665760003560e01c80635c975abb116100d15780638da5cb5b1161008a578063b2e6ceeb11610064578063b2e6ceeb146104e7578063b9186d7d14610510578063e4b50cb81461054d578063efef39a11461058e57610166565b80638da5cb5b1461046857806395d89b4114610493578063a9059cbb146104be57610166565b80635c975abb1461036c5780636352211e1461039757806370a08231146103d457806371dc761e1461041157806373b4df05146104285780638456cb591461045157610166565b806323b872dd1161012357806323b872dd1461025a5780632a5c792a146102835780633f4ba83a146102b257806345576f94146102c95780635a3f2672146102f25780635ba9e48e1461032f57610166565b806306fdde031461016b578063095ea7b3146101965780630cf20cc9146101bf5780631051db34146101db57806313af40351461020657806318160ddd1461022f575b600080fd5b34801561017757600080fd5b506101806105aa565b60405161018d9190611f79565b60405180910390f35b3480156101a257600080fd5b506101bd60048036038101906101b89190612043565b6105e7565b005b6101d960048036038101906101d491906120c1565b6106e8565b005b3480156101e757600080fd5b506101f0610845565b6040516101fd919061211c565b60405180910390f35b34801561021257600080fd5b5061022d60048036038101906102289190612137565b610875565b005b34801561023b57600080fd5b50610244610949565b6040516102519190612173565b60405180910390f35b34801561026657600080fd5b50610281600480360381019061027c919061218e565b610956565b005b34801561028f57600080fd5b506102986109f8565b6040516102a9959493929190612553565b60405180910390f35b3480156102be57600080fd5b506102c7610e05565b005b3480156102d557600080fd5b506102f060048036038101906102eb91906126fe565b610e92565b005b3480156102fe57600080fd5b5061031960048036038101906103149190612137565b610f08565b6040516103269190612747565b60405180910390f35b34801561033b57600080fd5b5061035660048036038101906103519190612769565b61108c565b6040516103639190612173565b60405180910390f35b34801561037857600080fd5b506103816111ae565b60405161038e919061211c565b60405180910390f35b3480156103a357600080fd5b506103be60048036038101906103b99190612769565b6111c1565b6040516103cb91906127a5565b60405180910390f35b3480156103e057600080fd5b506103fb60048036038101906103f69190612137565b6111fe565b6040516104089190612173565b60405180910390f35b34801561041d57600080fd5b50610426611247565b005b34801561043457600080fd5b5061044f600480360381019061044a91906127c0565b6112bc565b005b34801561045d57600080fd5b5061046661137a565b005b34801561047457600080fd5b5061047d611409565b60405161048a919061283e565b60405180910390f35b34801561049f57600080fd5b506104a861142d565b6040516104b59190611f79565b60405180910390f35b3480156104ca57600080fd5b506104e560048036038101906104e09190612043565b61146a565b005b3480156104f357600080fd5b5061050e60048036038101906105099190612769565b6114f8565b005b34801561051c57600080fd5b5061053760048036038101906105329190612769565b61157f565b6040516105449190612173565b60405180910390f35b34801561055957600080fd5b50610574600480360381019061056f9190612769565b61159c565b604051610585959493929190612868565b60405180910390f35b6105a860048036038101906105a39190612769565b6116e9565b005b60606040518060400160405280600d81526020017f43727970746f446f676769657300000000000000000000000000000000000000815250905090565b600060149054906101000a900460ff161561060157600080fd5b600760009054906101000a900460ff1661061a57600080fd5b6106243382611a16565b61062d57600080fd5b816004600083815260200190815260200160002060006101000a81548173ffffffffffffffffffffffffffffffffffffffff021916908373ffffffffffffffffffffffffffffffffffffffff1602179055508173ffffffffffffffffffffffffffffffffffffffff163373ffffffffffffffffffffffffffffffffffffffff167f8c5be1e5ebec7d5bd14f71427d1e84f3dd0314c0f7b2291e5b200ac8c7c3b925836040516106dc9190612173565b60405180910390a35050565b60008054906101000a900473ffffffffffffffffffffffffffffffffffffffff1673ffffffffffffffffffffffffffffffffffffffff163373ffffffffffffffffffffffffffffffffffffffff161461074057600080fd5b4781111561074d57600080fd5b60008103610759574790505b600073ffffffffffffffffffffffffffffffffffffffff168273ffffffffffffffffffffffffffffffffffffffff16036107f95760008054906101000a900473ffffffffffffffffffffffffffffffffffffffff1673ffffffffffffffffffffffffffffffffffffffff166108fc829081150290604051600060405180830381858888f193505050501580156107f3573d6000803e3d6000fd5b50610841565b8173ffffffffffffffffffffffffffffffffffffffff166108fc829081150290604051600060405180830381858888f1935050505015801561083f573d6000803e3d6000fd5b505b5050565b60008060149054906101000a900460ff161561086057600080fd5b600760009054906101000a900460ff16905090565b60008054906101000a900473ffffffffffffffffffffffffffffffffffffffff1673ffffffffffffffffffffffffffffffffffffffff163373ffffffffffffffffffffffffffffffffffffffff16146108cd57600080fd5b600073ffffffffffffffffffffffffffffffffffffffff168173ffffffffffffffffffffffffffffffffffffffff160361090657600080fd5b806000806101000a81548173ffffffffffffffffffffffffffffffffffffffff021916908373ffffffffffffffffffffffffffffffffffffffff16021790555050565b6000600580549050905090565b600060149054906101000a900460ff161561097057600080fd5b600760009054906101000a900460ff1661098957600080fd5b600073ffffffffffffffffffffffffffffffffffffffff168273ffffffffffffffffffffffffffffffffffffffff16036109c257600080fd5b6109cc8382611a16565b6109d557600080fd5b6109df3382611a82565b6109e857600080fd5b6109f3838383611aee565b505050565b60608060608060606000610a0a610949565b905060008167ffffffffffffffff811115610a2857610a276125d3565b5b604051908082528060200260200182016040528015610a5b57816020015b6060815260200190600190039081610a465790505b50905060008267ffffffffffffffff811115610a7a57610a796125d3565b5b604051908082528060200260200182016040528015610aa85781602001602082028036833780820191505090505b50905060008367ffffffffffffffff811115610ac757610ac66125d3565b5b604051908082528060200260200182016040528015610af55781602001602082028036833780820191505090505b50905060008467ffffffffffffffff811115610b1457610b136125d3565b5b604051908082528060200260200182016040528015610b425781602001602082028036833780820191505090505b50905060008567ffffffffffffffff811115610b6157610b606125d3565b5b604051908082528060200260200182016040528015610b8f5781602001602082028036833780820191505090505b50905060005b86811015610de85760058181548110610bb157610bb06128c2565b5b90600052602060002090600202016000018054610bcd90612920565b80601f0160208091040260200160405190810160405280929190818152602001828054610bf990612920565b8015610c465780601f10610c1b57610100808354040283529160200191610c46565b820191906000526020600020905b815481529060010190602001808311610c2957829003601f168201915b5050505050868281518110610c5e57610c5d6128c2565b5b602002602001018190525060058181548110610c7d57610c7c6128c2565b5b906000526020600020906002020160010160009054906101000a900460d81b858281518110610caf57610cae6128c2565b5b60200260200101907affffffffffffffffffffffffffffffffffffffffffffffffffffff191690817affffffffffffffffffffffffffffffffffffffffffffffffffffff1916815250506002600082815260200190815260200160002054848281518110610d2057610d1f6128c2565b5b602002602001018181525050610d358161108c565b838281518110610d4857610d476128c2565b5b6020026020010181815250506001600082815260200190815260200160002060009054906101000a900473ffffffffffffffffffffffffffffffffffffffff16828281518110610d9b57610d9a6128c2565b5b602002602001019073ffffffffffffffffffffffffffffffffffffffff16908173ffffffffffffffffffffffffffffffffffffffff16815250508080610de090612980565b915050610b95565b5084848484849a509a509a509a509a505050505050509091929394565b60008054906101000a900473ffffffffffffffffffffffffffffffffffffffff1673ffffffffffffffffffffffffffffffffffffffff163373ffffffffffffffffffffffffffffffffffffffff1614610e5d57600080fd5b600060149054906101000a900460ff16610e7657600080fd5b60008060146101000a81548160ff021916908315150217905550565b60008054906101000a900473ffffffffffffffffffffffffffffffffffffffff1673ffffffffffffffffffffffffffffffffffffffff163373ffffffffffffffffffffffffffffffffffffffff1614610eea57600080fd5b6000610ef4611cbf565b9050610f04828230600654611ce9565b5050565b60606000610f15836111fe565b905060008103610f7157600067ffffffffffffffff811115610f3a57610f396125d3565b5b604051908082528060200260200182016040528015610f685781602001602082028036833780820191505090505b50915050611087565b60008167ffffffffffffffff811115610f8d57610f8c6125d3565b5b604051908082528060200260200182016040528015610fbb5781602001602082028036833780820191505090505b5090506000610fc8610949565b90506000805b8281101561107e578673ffffffffffffffffffffffffffffffffffffffff166001600083815260200190815260200160002060009054906101000a900473ffffffffffffffffffffffffffffffffffffffff1673ffffffffffffffffffffffffffffffffffffffff160361106b57808483815181106110505761104f6128c2565b5b602002602001018181525050818061106790612980565b9250505b808061107690612980565b915050610fce565b50829450505050505b919050565b6000806110988361157f565b90506008548110156110d3576110cb605f6110bd60c884611e0a90919063ffffffff16565b611e5290919063ffffffff16565b9150506111a9565b60095481101561110c5761110460606110f6608784611e0a90919063ffffffff16565b611e5290919063ffffffff16565b9150506111a9565b600a548110156111455761113d606161112f607d84611e0a90919063ffffffff16565b611e5290919063ffffffff16565b9150506111a9565b600b5481101561117e576111766061611168607584611e0a90919063ffffffff16565b611e5290919063ffffffff16565b9150506111a9565b6111a56062611197607384611e0a90919063ffffffff16565b611e5290919063ffffffff16565b9150505b919050565b600060149054906101000a900460ff1681565b60006001600083815260200190815260200160002060009054906101000a900473ffffffffffffffffffffffffffffffffffffffff169050919050565b6000600360008373ffffffffffffffffffffffffffffffffffffffff1673ffffffffffffffffffffffffffffffffffffffff168152602001908152602001600020549050919050565b60008054906101000a900473ffffffffffffffffffffffffffffffffffffffff1673ffffffffffffffffffffffffffffffffffffffff163373ffffffffffffffffffffffffffffffffffffffff161461129f57600080fd5b6001600760006101000a81548160ff021916908315150217905550565b60008054906101000a900473ffffffffffffffffffffffffffffffffffffffff1673ffffffffffffffffffffffffffffffffffffffff163373ffffffffffffffffffffffffffffffffffffffff161461131457600080fd5b600073ffffffffffffffffffffffffffffffffffffffff168273ffffffffffffffffffffffffffffffffffffffff160361134d57600080fd5b60065481101561135c57600080fd5b6000611366611cbf565b905061137484828585611ce9565b50505050565b60008054906101000a900473ffffffffffffffffffffffffffffffffffffffff1673ffffffffffffffffffffffffffffffffffffffff163373ffffffffffffffffffffffffffffffffffffffff16146113d257600080fd5b600060149054906101000a900460ff16156113ec57600080fd5b6001600060146101000a81548160ff021916908315150217905550565b60008054906101000a900473ffffffffffffffffffffffffffffffffffffffff1681565b60606040518060400160405280600381526020017f4344540000000000000000000000000000000000000000000000000000000000815250905090565b600060149054906101000a900460ff161561148457600080fd5b600760009054906101000a900460ff1661149d57600080fd5b600073ffffffffffffffffffffffffffffffffffffffff168273ffffffffffffffffffffffffffffffffffffffff16036114d657600080fd5b6114e03382611a16565b6114e957600080fd5b6114f4338383611aee565b5050565b600060149054906101000a900460ff161561151257600080fd5b600760009054906101000a900460ff1661152b57600080fd5b6115353382611a82565b61153e57600080fd5b61157c6001600083815260200190815260200160002060009054906101000a900473ffffffffffffffffffffffffffffffffffffffff163383611aee565b50565b600060026000838152602001908152602001600020549050919050565b6060600080600080600586815481106115b8576115b76128c2565b5b906000526020600020906002020160000180546115d490612920565b80601f016020809104026020016040519081016040528092919081815260200182805461160090612920565b801561164d5780601f106116225761010080835404028352916020019161164d565b820191906000526020600020905b81548152906001019060200180831161163057829003601f168201915b5050505050945060058681548110611668576116676128c2565b5b906000526020600020906002020160010160009054906101000a900460d81b9350600260008781526020019081526020016000205492506116a88661108c565b91506001600087815260200190815260200160002060009054906101000a900473ffffffffffffffffffffffffffffffffffffffff16905091939590929450565b600060149054906101000a900460ff161561170357600080fd5b600061170e826111c1565b9050600033905060006117208461157f565b9050600073ffffffffffffffffffffffffffffffffffffffff168373ffffffffffffffffffffffffffffffffffffffff160361175b57600080fd5b600073ffffffffffffffffffffffffffffffffffffffff168273ffffffffffffffffffffffffffffffffffffffff160361179457600080fd5b8173ffffffffffffffffffffffffffffffffffffffff168373ffffffffffffffffffffffffffffffffffffffff16036117cc57600080fd5b6117d582611eaf565b156117df57600080fd5b600081116117ec57600080fd5b803410156117f957600080fd5b611804838386611aee565b61180d8461108c565b60026000868152602001908152602001600020819055508173ffffffffffffffffffffffffffffffffffffffff168373ffffffffffffffffffffffffffffffffffffffff16857f47c2495ae9a226645e2cfa7b81ab70c2d82f35b0c69a72358812cca2f0f0bcbc60058881548110611888576118876128c2565b5b9060005260206000209060020201600001600589815481106118ad576118ac6128c2565b5b906000526020600020906002020160010160009054906101000a900460d81b866118d68b61157f565b6040516118e69493929190612a61565b60405180910390a460006119038234611ec290919063ffffffff16565b9050600061192e6064611920600686611e0a90919063ffffffff16565b611e5290919063ffffffff16565b90503073ffffffffffffffffffffffffffffffffffffffff168573ffffffffffffffffffffffffffffffffffffffff16146119bd578473ffffffffffffffffffffffffffffffffffffffff166108fc6119908386611ec290919063ffffffff16565b9081150290604051600060405180830381858888f193505050501580156119bb573d6000803e3d6000fd5b505b6000821115611a0e578373ffffffffffffffffffffffffffffffffffffffff166108fc839081150290604051600060405180830381858888f19350505050158015611a0c573d6000803e3d6000fd5b505b505050505050565b60008273ffffffffffffffffffffffffffffffffffffffff166001600084815260200190815260200160002060009054906101000a900473ffffffffffffffffffffffffffffffffffffffff1673ffffffffffffffffffffffffffffffffffffffff1614905092915050565b60008273ffffffffffffffffffffffffffffffffffffffff166004600084815260200190815260200160002060009054906101000a900473ffffffffffffffffffffffffffffffffffffffff1673ffffffffffffffffffffffffffffffffffffffff1614905092915050565b600360008373ffffffffffffffffffffffffffffffffffffffff1673ffffffffffffffffffffffffffffffffffffffff1681526020019081526020016000206000815480929190611b3e90612980565b9190505550816001600083815260200190815260200160002060006101000a81548173ffffffffffffffffffffffffffffffffffffffff021916908373ffffffffffffffffffffffffffffffffffffffff160217905550600073ffffffffffffffffffffffffffffffffffffffff168373ffffffffffffffffffffffffffffffffffffffff1614611c5557600360008473ffffffffffffffffffffffffffffffffffffffff1673ffffffffffffffffffffffffffffffffffffffff1681526020019081526020016000206000815480929190611c1990612aad565b91905055506004600082815260200190815260200160002060006101000a81549073ffffffffffffffffffffffffffffffffffffffff02191690555b8173ffffffffffffffffffffffffffffffffffffffff168373ffffffffffffffffffffffffffffffffffffffff167fddf252ad1be2c89b69c2b068fc378daa952ba7f163c4a11628f55a4df523b3ef83604051611cb29190612173565b60405180910390a3505050565b600080600143611ccf9190612ad6565b9050600081409050600060d882901b905080935050505090565b60006040518060400160405280868152602001857affffffffffffffffffffffffffffffffffffffffffffffffffffff1916815250905060058190806001815401808255809150506001900390600052602060002090600202016000909190919091506000820151816000019081611d619190612ca1565b5060208201518160010160006101000a81548164ffffffffff021916908360d81c0217905550505060006001600580549050611d9d9190612ad6565b90508260026000838152602001908152602001600020819055507fe2541836f6f02475fc0b01a06c1e80d7e5098215c6015348851ceabef9d05e688187878688604051611dee959493929190612d73565b60405180910390a1611e0260008583611aee565b505050505050565b6000808303611e1c5760009050611e4c565b60008284611e2a9190612dcd565b9050828482611e399190612e3e565b14611e4757611e46612e6f565b5b809150505b92915050565b6000808211611e6457611e63612e6f565b5b60008284611e729190612e3e565b90508284611e809190612e9e565b8184611e8c9190612dcd565b611e969190612ecf565b8414611ea557611ea4612e6f565b5b8091505092915050565b600080823b905060008111915050919050565b600082821115611ed557611ed4612e6f565b5b8183611ee19190612ad6565b905092915050565b600081519050919050565b600082825260208201905092915050565b60005b83811015611f23578082015181840152602081019050611f08565b60008484015250505050565b6000601f19601f8301169050919050565b6000611f4b82611ee9565b611f558185611ef4565b9350611f65818560208601611f05565b611f6e81611f2f565b840191505092915050565b60006020820190508181036000830152611f938184611f40565b905092915050565b6000604051905090565b600080fd5b600080fd5b600073ffffffffffffffffffffffffffffffffffffffff82169050919050565b6000611fda82611faf565b9050919050565b611fea81611fcf565b8114611ff557600080fd5b50565b60008135905061200781611fe1565b92915050565b6000819050919050565b6120208161200d565b811461202b57600080fd5b50565b60008135905061203d81612017565b92915050565b6000806040838503121561205a57612059611fa5565b5b600061206885828601611ff8565b92505060206120798582860161202e565b9150509250929050565b600061208e82611faf565b9050919050565b61209e81612083565b81146120a957600080fd5b50565b6000813590506120bb81612095565b92915050565b600080604083850312156120d8576120d7611fa5565b5b60006120e6858286016120ac565b92505060206120f78582860161202e565b9150509250929050565b60008115159050919050565b61211681612101565b82525050565b6000602082019050612131600083018461210d565b92915050565b60006020828403121561214d5761214c611fa5565b5b600061215b84828501611ff8565b91505092915050565b61216d8161200d565b82525050565b60006020820190506121886000830184612164565b92915050565b6000806000606084860312156121a7576121a6611fa5565b5b60006121b586828701611ff8565b93505060206121c686828701611ff8565b92505060406121d78682870161202e565b9150509250925092565b600081519050919050565b600082825260208201905092915050565b6000819050602082019050919050565b600082825260208201905092915050565b600061222982611ee9565b612233818561220d565b9350612243818560208601611f05565b61224c81611f2f565b840191505092915050565b6000612263838361221e565b905092915050565b6000602082019050919050565b6000612283826121e1565b61228d81856121ec565b93508360208202850161229f856121fd565b8060005b858110156122db57848403895281516122bc8582612257565b94506122c78361226b565b925060208a019950506001810190506122a3565b50829750879550505050505092915050565b600081519050919050565b600082825260208201905092915050565b6000819050602082019050919050565b60007fffffffffff00000000000000000000000000000000000000000000000000000082169050919050565b61234e81612319565b82525050565b60006123608383612345565b60208301905092915050565b6000602082019050919050565b6000612384826122ed565b61238e81856122f8565b935061239983612309565b8060005b838110156123ca5781516123b18882612354565b97506123bc8361236c565b92505060018101905061239d565b5085935050505092915050565b600081519050919050565b600082825260208201905092915050565b6000819050602082019050919050565b61240c8161200d565b82525050565b600061241e8383612403565b60208301905092915050565b6000602082019050919050565b6000612442826123d7565b61244c81856123e2565b9350612457836123f3565b8060005b8381101561248857815161246f8882612412565b975061247a8361242a565b92505060018101905061245b565b5085935050505092915050565b600081519050919050565b600082825260208201905092915050565b6000819050602082019050919050565b6124ca81611fcf565b82525050565b60006124dc83836124c1565b60208301905092915050565b6000602082019050919050565b600061250082612495565b61250a81856124a0565b9350612515836124b1565b8060005b8381101561254657815161252d88826124d0565b9750612538836124e8565b925050600181019050612519565b5085935050505092915050565b600060a082019050818103600083015261256d8188612278565b905081810360208301526125818187612379565b905081810360408301526125958186612437565b905081810360608301526125a98185612437565b905081810360808301526125bd81846124f5565b90509695505050505050565b600080fd5b600080fd5b7f4e487b7100000000000000000000000000000000000000000000000000000000600052604160045260246000fd5b61260b82611f2f565b810181811067ffffffffffffffff8211171561262a576126296125d3565b5b80604052505050565b600061263d611f9b565b90506126498282612602565b919050565b600067ffffffffffffffff821115612669576126686125d3565b5b61267282611f2f565b9050602081019050919050565b82818337600083830152505050565b60006126a161269c8461264e565b612633565b9050828152602081018484840111156126bd576126bc6125ce565b5b6126c884828561267f565b509392505050565b600082601f8301126126e5576126e46125c9565b5b81356126f584826020860161268e565b91505092915050565b60006020828403121561271457612713611fa5565b5b600082013567ffffffffffffffff81111561273257612731611faa565b5b61273e848285016126d0565b91505092915050565b600060208201905081810360008301526127618184612437565b905092915050565b60006020828403121561277f5761277e611fa5565b5b600061278d8482850161202e565b91505092915050565b61279f81611fcf565b82525050565b60006020820190506127ba6000830184612796565b92915050565b6000806000606084860312156127d9576127d8611fa5565b5b600084013567ffffffffffffffff8111156127f7576127f6611faa565b5b612803868287016126d0565b935050602061281486828701611ff8565b92505060406128258682870161202e565b9150509250925092565b61283881612083565b82525050565b6000602082019050612853600083018461282f565b92915050565b61286281612319565b82525050565b600060a08201905081810360008301526128828188611f40565b90506128916020830187612859565b61289e6040830186612164565b6128ab6060830185612164565b6128b86080830184612796565b9695505050505050565b7f4e487b7100000000000000000000000000000000000000000000000000000000600052603260045260246000fd5b7f4e487b7100000000000000000000000000000000000000000000000000000000600052602260045260246000fd5b6000600282049050600182168061293857607f821691505b60208210810361294b5761294a6128f1565b5b50919050565b7f4e487b7100000000000000000000000000000000000000000000000000000000600052601160045260246000fd5b600061298b8261200d565b91507fffffffffffffffffffffffffffffffffffffffffffffffffffffffffffffffff82036129bd576129bc612951565b5b600182019050919050565b60008190508160005260206000209050919050565b600081546129ea81612920565b6129f48186611ef4565b94506001821660008114612a0f5760018114612a2557612a58565b60ff198316865281151560200286019350612a58565b612a2e856129c8565b60005b83811015612a5057815481890152600182019150602081019050612a31565b808801955050505b50505092915050565b60006080820190508181036000830152612a7b81876129dd565b9050612a8a6020830186612859565b612a976040830185612164565b612aa46060830184612164565b95945050505050565b6000612ab88261200d565b915060008203612acb57612aca612951565b5b600182039050919050565b6000612ae18261200d565b9150612aec8361200d565b9250828203905081811115612b0457612b03612951565b5b92915050565b60006020601f8301049050919050565b600082821b905092915050565b600060088302612b577fffffffffffffffffffffffffffffffffffffffffffffffffffffffffffffffff82612b1a565b612b618683612b1a565b95508019841693508086168417925050509392505050565b6000819050919050565b6000612b9e612b99612b948461200d565b612b79565b61200d565b9050919050565b6000819050919050565b612bb883612b83565b612bcc612bc482612ba5565b848454612b27565b825550505050565b600090565b612be1612bd4565b612bec818484612baf565b505050565b5b81811015612c1057612c05600082612bd9565b600181019050612bf2565b5050565b601f821115612c5557612c26816129c8565b612c2f84612b0a565b81016020851015612c3e578190505b612c52612c4a85612b0a565b830182612bf1565b50505b505050565b600082821c905092915050565b6000612c7860001984600802612c5a565b1980831691505092915050565b6000612c918383612c67565b9150826002028217905092915050565b612caa82611ee9565b67ffffffffffffffff811115612cc357612cc26125d3565b5b612ccd8254612920565b612cd8828285612c14565b600060209050601f831160018114612d0b5760008415612cf9578287015190505b612d038582612c85565b865550612d6b565b601f198416612d19866129c8565b60005b82811015612d4157848901518255600182019150602085019450602081019050612d1c565b86831015612d5e5784890151612d5a601f891682612c67565b8355505b6001600288020188555050505b505050505050565b600060a082019050612d886000830188612164565b8181036020830152612d9a8187611f40565b9050612da96040830186612859565b612db66060830185612164565b612dc36080830184612796565b9695505050505050565b6000612dd88261200d565b9150612de38361200d565b9250828202612df18161200d565b91508282048414831517612e0857612e07612951565b5b5092915050565b7f4e487b7100000000000000000000000000000000000000000000000000000000600052601260045260246000fd5b6000612e498261200d565b9150612e548361200d565b925082612e6457612e63612e0f565b5b828204905092915050565b7f4e487b7100000000000000000000000000000000000000000000000000000000600052600160045260246000fd5b6000612ea98261200d565b9150612eb48361200d565b925082612ec457612ec3612e0f565b5b828206905092915050565b6000612eda8261200d565b9150612ee58361200d565b9250828201905080821115612efd57612efc612951565b5b9291505056fea26469706673582212202ffbc06417a97d591428fac5b4e30ce7d9b9bce86be72ff71f1c1121610a75c364736f6c63430008140033",
  "immutableReferences": {},
  "source": "// SPDX-License-Identifier: MIT\r\npragma solidity ^0.8.20;\r\n\r\ncontract AccessControl {\r\n\r\n    address payable public owner;\r\n\r\n    bool public paused = false;\r\n\r\n    constructor() {\r\n        owner = payable(msg.sender);\r\n    }\r\n\r\n    modifier onlyOwner() {\r\n        require(msg.sender == owner);\r\n        _;\r\n    }\r\n\r\n    function setOwner(address _newOwner) public onlyOwner {\r\n        require(_newOwner != address(0));\r\n        owner = payable(_newOwner);\r\n    }\r\n\r\n    modifier whenNotPaused() {\r\n        require(!paused);\r\n        _;\r\n    }\r\n\r\n    modifier whenPaused {\r\n        require(paused);\r\n        _;\r\n    }\r\n\r\n    function pause() public onlyOwner whenNotPaused {\r\n        paused = true;\r\n    }\r\n\r\n    function unpause() public onlyOwner whenPaused {\r\n        paused = false;\r\n    }\r\n}\r\n\r\n\r\ninterface ERC721 {\r\n    event Transfer(address indexed _from, address indexed _to, uint256 _tokenId);\r\n    event Approval(address indexed _owner, address indexed _approved, uint256 _tokenId);\r\n\r\n    function totalSupply() view external returns (uint256 _totalSupply);\r\n\r\n    function balanceOf(address _owner) external view returns (uint256 _balance);\r\n\r\n    function ownerOf(uint256 _tokenId) external view returns (address _owner);\r\n\r\n    function approve(address _to, uint256 _tokenId) external;\r\n\r\n    function transferFrom(address _from, address _to, uint256 _tokenId) external;\r\n\r\n    function transfer(address _to, uint256 _tokenId) external;\r\n\r\n    function implementsERC721() external view returns (bool _implementsERC721);\r\n\r\n    function takeOwnership(uint256 _tokenId) external;\r\n}\r\n\r\n\r\ninterface DetailedERC721 is ERC721 {\r\n    function name() external view returns (string memory _name);\r\n    function symbol() external view returns (string memory _symbol);\r\n}\r\n\r\n\r\ncontract CryptoDoggies is AccessControl, DetailedERC721 {\r\n    using SafeMath for uint256;\r\n\r\n    event TokenCreated(uint256 tokenId, string name, bytes5 dna, uint256 price, address owner);\r\n    event TokenSold(\r\n        uint256 indexed tokenId,\r\n        string name,\r\n        bytes5 dna,\r\n        uint256 sellingPrice,\r\n        uint256 newPrice,\r\n        address indexed oldOwner,\r\n        address indexed newOwner\r\n        );\r\n\r\n    mapping (uint256 => address) private tokenIdToOwner;\r\n    mapping (uint256 => uint256) private tokenIdToPrice;\r\n    mapping (address => uint256) private ownershipTokenCount;\r\n    mapping (uint256 => address) private tokenIdToApproved;\r\n\r\n    struct Doggy {\r\n        string name;\r\n        bytes5 dna;\r\n    }\r\n\r\n    Doggy[] private doggies;\r\n\r\n    uint256 private startingPrice = 0.01 ether;\r\n    bool private erc721Enabled = false;\r\n\r\n    modifier onlyERC721() {\r\n        require(erc721Enabled);\r\n        _;\r\n    }\r\n\r\n    function createToken(string memory _name, address _owner, uint256 _price) public onlyOwner {\r\n        require(_owner != address(0));\r\n        require(_price >= startingPrice);\r\n\r\n        bytes5 _dna = _generateRandomDna();\r\n        _createToken(_name, _dna, _owner, _price);\r\n    }\r\n\r\n    function createToken(string memory _name) public onlyOwner {\r\n        bytes5 _dna = _generateRandomDna();\r\n        _createToken(_name, _dna, address(this), startingPrice);\r\n    }\r\n\r\n    function _generateRandomDna() private view returns (bytes5) { //view\r\n        uint256 lastBlockNumber = block.number - 1;\r\n        bytes32 hashVal = bytes32(blockhash(lastBlockNumber));\r\n        bytes5 dna = bytes5((hashVal) << 216);\r\n        return dna;\r\n    }\r\n\r\n    function _createToken(string memory _name, bytes5 _dna, address _owner, uint256 _price) private {\r\n        Doggy memory _doggy = Doggy({\r\n            name: _name,\r\n            dna: _dna\r\n        });\r\n        doggies.push(_doggy);\r\n        uint256 newTokenId = doggies.length-1;\r\n        tokenIdToPrice[newTokenId] = _price;\r\n\r\n        emit TokenCreated(newTokenId, _name, _dna, _price, _owner);\r\n\r\n        _transfer(address(0), _owner, newTokenId);\r\n    }\r\n\r\n    function getToken(uint256 _tokenId) public view returns (\r\n        string memory _tokenName,\r\n        bytes5 _dna,\r\n        uint256 _price,\r\n        uint256 _nextPrice,\r\n        address _owner\r\n    ) {\r\n        _tokenName = doggies[_tokenId].name;\r\n        _dna = doggies[_tokenId].dna;\r\n        _price = tokenIdToPrice[_tokenId];\r\n        _nextPrice = nextPriceOf(_tokenId);\r\n        _owner = tokenIdToOwner[_tokenId];\r\n    }\r\n\r\n    function getAllTokens() public view returns (\r\n        string[] memory,\r\n        bytes5[] memory,\r\n        uint256[] memory,\r\n        uint256[] memory,\r\n        address[] memory\r\n    ) {\r\n        uint256 total = totalSupply();\r\n        string[] memory tokenName = new string[](total);\r\n        bytes5[] memory dna = new bytes5[](total);\r\n        uint256[] memory prices = new uint256[](total);\r\n        uint256[] memory nextPrices = new uint256[](total);\r\n        address[] memory owners = new address[](total);\r\n\r\n        for (uint256 i = 0; i < total; i++) {\r\n            tokenName[i] = doggies[i].name;\r\n            dna[i] = doggies[i].dna; \r\n            prices[i] = tokenIdToPrice[i];\r\n            nextPrices[i] = nextPriceOf(i);\r\n            owners[i] = tokenIdToOwner[i];\r\n        }\r\n\r\n        return (tokenName,dna, prices, nextPrices, owners);\r\n    }\r\n\r\n    function tokensOf(address _owner) public view returns(uint256[] memory) {\r\n        uint256 tokenCount = balanceOf(_owner);\r\n        if (tokenCount == 0) {\r\n            return new uint256[](0);\r\n        } else {\r\n            uint256[] memory result = new uint256[](tokenCount);\r\n            uint256 total = totalSupply();\r\n            uint256 resultIndex = 0;\r\n\r\n            for (uint256 i = 0; i < total; i++) {\r\n                if (tokenIdToOwner[i] == _owner) {\r\n                    result[resultIndex] = i;\r\n                    resultIndex++;\r\n                }\r\n            }\r\n            return result;\r\n        }\r\n    }\r\n\r\n    function withdrawBalance(address payable _to, uint256 _amount) public payable  onlyOwner {\r\n        require(_amount <= address(this).balance);\r\n\r\n        if (_amount == 0) {\r\n            _amount = address(this).balance;\r\n        }\r\n\r\n        if (_to == address(0)) {\r\n            owner.transfer(_amount);\r\n        } else {\r\n            _to.transfer(_amount);\r\n        }\r\n    }\r\n\r\n    function purchase(uint256 _tokenId) public payable whenNotPaused {\r\n        address oldOwner = ownerOf(_tokenId);\r\n        address newOwner = msg.sender;\r\n        uint256 sellingPrice = priceOf(_tokenId);\r\n\r\n        require(oldOwner != address(0));\r\n        require(newOwner != address(0));\r\n        require(oldOwner != newOwner);\r\n        require(!_isContract(newOwner));\r\n        require(sellingPrice > 0);\r\n        require(msg.value >= sellingPrice);\r\n\r\n        _transfer(oldOwner, newOwner, _tokenId);\r\n        tokenIdToPrice[_tokenId] = nextPriceOf(_tokenId);\r\n        emit TokenSold(\r\n            _tokenId,\r\n            doggies[_tokenId].name,\r\n            doggies[_tokenId].dna,\r\n            sellingPrice,\r\n            priceOf(_tokenId),\r\n            oldOwner,\r\n            newOwner\r\n        );\r\n\r\n        uint256 excess = msg.value.sub(sellingPrice);\r\n        uint256 contractCut = sellingPrice.mul(6).div(100); // 6% cut\r\n\r\n        if (oldOwner != address(this)) {\r\n            payable(oldOwner).transfer(sellingPrice.sub(contractCut));\r\n        }\r\n\r\n        if (excess > 0) {\r\n            payable(newOwner).transfer(excess);\r\n        }\r\n    }\r\n\r\n    function priceOf(uint256 _tokenId) public view returns (uint256 _price) {\r\n        return tokenIdToPrice[_tokenId];\r\n    }\r\n\r\n    uint256 private increaseLimit1 = 0.02 ether;\r\n    uint256 private increaseLimit2 = 0.5 ether;\r\n    uint256 private increaseLimit3 = 2.0 ether;\r\n    uint256 private increaseLimit4 = 5.0 ether;\r\n\r\n    function nextPriceOf(uint256 _tokenId) public view returns (uint256 _nextPrice) {\r\n        uint256 _price = priceOf(_tokenId);\r\n        if (_price < increaseLimit1) {\r\n            return _price.mul(200).div(95);\r\n        } else if (_price < increaseLimit2) {\r\n            return _price.mul(135).div(96);\r\n        } else if (_price < increaseLimit3) {\r\n            return _price.mul(125).div(97);\r\n        } else if (_price < increaseLimit4) {\r\n            return _price.mul(117).div(97);\r\n        } else {\r\n            return _price.mul(115).div(98);\r\n        }\r\n    }\r\n\r\n    function enableERC721() public onlyOwner {\r\n        erc721Enabled = true;\r\n    }\r\n\r\n    function totalSupply() public view returns (uint256 _totalSupply) {\r\n        _totalSupply = doggies.length;\r\n    }\r\n\r\n    function balanceOf(address _owner) public view returns (uint256 _balance) {\r\n        _balance = ownershipTokenCount[_owner];\r\n    }\r\n\r\n    function ownerOf(uint256 _tokenId) public view returns (address _owner) {\r\n        _owner = tokenIdToOwner[_tokenId];\r\n    }\r\n\r\n    function approve(address _to, uint256 _tokenId) public whenNotPaused onlyERC721 {\r\n        require(_owns(msg.sender, _tokenId));\r\n        tokenIdToApproved[_tokenId] = _to;\r\n        emit Approval(msg.sender, _to, _tokenId);\r\n    }\r\n\r\n    function transferFrom(address _from, address _to, uint256 _tokenId) public whenNotPaused onlyERC721 {\r\n        require(_to != address(0));\r\n        require(_owns(_from, _tokenId));\r\n        require(_approved(msg.sender, _tokenId));\r\n\r\n        _transfer(_from, _to, _tokenId);\r\n    }\r\n\r\n    function transfer(address _to, uint256 _tokenId) public whenNotPaused onlyERC721 {\r\n        require(_to != address(0));\r\n        require(_owns(msg.sender, _tokenId));\r\n\r\n        _transfer(msg.sender, _to, _tokenId);\r\n    }\r\n\r\n    function implementsERC721() public view whenNotPaused returns (bool) {\r\n        return erc721Enabled;\r\n    }\r\n\r\n    function takeOwnership(uint256 _tokenId) public whenNotPaused onlyERC721 {\r\n        require(_approved(msg.sender, _tokenId));\r\n        _transfer(tokenIdToOwner[_tokenId], msg.sender, _tokenId);\r\n    }\r\n\r\n    function name() public pure returns (string memory _name) {\r\n        _name = \"CryptoDoggies\";\r\n    }\r\n\r\n    function symbol() public pure returns (string memory _symbol) {\r\n        _symbol = \"CDT\";\r\n    }\r\n\r\n    function _owns(address _claimant, uint256 _tokenId) private view returns (bool) {\r\n        return tokenIdToOwner[_tokenId] == _claimant;\r\n    }\r\n\r\n    function _approved(address _to, uint256 _tokenId) private view returns (bool) {\r\n        return tokenIdToApproved[_tokenId] == _to;\r\n    }\r\n\r\n    function _transfer(address _from, address _to, uint256 _tokenId) private {\r\n        ownershipTokenCount[_to]++;\r\n        tokenIdToOwner[_tokenId] = _to;\r\n\r\n        if (_from != address(0)) {\r\n            ownershipTokenCount[_from]--;\r\n            delete tokenIdToApproved[_tokenId];\r\n        }\r\n\r\n        emit Transfer(_from, _to, _tokenId);\r\n    }\r\n\r\n    function _isContract(address addr) private view returns (bool) {\r\n        uint256 size;\r\n        assembly { size := extcodesize(addr) }\r\n        return size > 0;\r\n    }\r\n}\r\n\r\n\r\nlibrary SafeMath {\r\n\r\n    function mul(uint256 a, uint256 b) internal pure returns (uint256) {\r\n        if (a == 0) {\r\n            return 0;\r\n        }\r\n        uint256 c = a * b;\r\n        assert(c / a == b);\r\n        return c;\r\n    }\r\n\r\n    function div(uint256 a, uint256 b) internal pure returns (uint256) {\r\n        assert(b > 0); // Solidity automatically throws when dividing by 0\r\n        uint256 c = a / b;\r\n        assert(a == b * c + a % b); // There is no case in which this doesn't hold\r\n        return c;\r\n    }\r\n\r\n    function sub(uint256 a, uint256 b) internal pure returns (uint256) {\r\n        assert(b <= a);\r\n        return a - b;\r\n    }\r\n\r\n    function add(uint256 a, uint256 b) internal pure returns (uint256) {\r\n        uint256 c = a + b;\r\n        assert(c >= a);\r\n        return c;\r\n    }\r\n}",
  "sourcePath": "C:\\Users\\farid\\Desktop\\CertifiedBlockchainTruffle\\truffle\\contracts\\CryptoDoggies.sol",
  "compiler": {
    "name": "solc",
    "version": "0.8.20+commit.a1b79de6.Emscripten.clang"
  },
  "schemaVersion": "3.4.16",
  "updatedAt": "2024-04-25T06:59:30.863Z",
  "devdoc": {
    "kind": "dev",
    "methods": {},
    "version": 1
  },
  "userdoc": {
    "kind": "user",
    "methods": {},
    "version": 1
  }
}