{
  "contractName": "Gaming",
  "abi": [
    {
      "inputs": [],
      "stateMutability": "payable",
      "type": "constructor"
    },
    {
      "anonymous": false,
      "inputs": [
        {
          "indexed": false,
          "internalType": "address",
          "name": "player",
          "type": "address"
        },
        {
          "indexed": false,
          "internalType": "uint256",
          "name": "amount",
          "type": "uint256"
        },
        {
          "indexed": false,
          "internalType": "uint256",
          "name": "mysteryNumber",
          "type": "uint256"
        },
        {
          "indexed": false,
          "internalType": "uint256",
          "name": "displayedNumber",
          "type": "uint256"
        }
      ],
      "name": "PlayerLost",
      "type": "event"
    },
    {
      "anonymous": false,
      "inputs": [
        {
          "indexed": false,
          "internalType": "address",
          "name": "player",
          "type": "address"
        },
        {
          "indexed": false,
          "internalType": "uint256",
          "name": "amount",
          "type": "uint256"
        },
        {
          "indexed": false,
          "internalType": "uint256",
          "name": "mysteryNumber",
          "type": "uint256"
        },
        {
          "indexed": false,
          "internalType": "uint256",
          "name": "displayedNumber",
          "type": "uint256"
        }
      ],
      "name": "PlayerWon",
      "type": "event"
    },
    {
      "inputs": [],
      "name": "online",
      "outputs": [
        {
          "internalType": "bool",
          "name": "",
          "type": "bool"
        }
      ],
      "stateMutability": "view",
      "type": "function"
    },
    {
      "inputs": [],
      "name": "owner",
      "outputs": [
        {
          "internalType": "address",
          "name": "",
          "type": "address"
        }
      ],
      "stateMutability": "view",
      "type": "function"
    },
    {
      "inputs": [
        {
          "internalType": "address",
          "name": "",
          "type": "address"
        }
      ],
      "name": "players",
      "outputs": [
        {
          "internalType": "uint256",
          "name": "wins",
          "type": "uint256"
        },
        {
          "internalType": "uint256",
          "name": "losses",
          "type": "uint256"
        }
      ],
      "stateMutability": "view",
      "type": "function"
    },
    {
      "inputs": [
        {
          "internalType": "uint256",
          "name": "_number",
          "type": "uint256"
        },
        {
          "internalType": "uint256",
          "name": "_display",
          "type": "uint256"
        },
        {
          "internalType": "bool",
          "name": "_guess",
          "type": "bool"
        }
      ],
      "name": "determineWinner",
      "outputs": [
        {
          "internalType": "bool",
          "name": "",
          "type": "bool"
        }
      ],
      "stateMutability": "pure",
      "type": "function"
    },
    {
      "inputs": [
        {
          "internalType": "uint256",
          "name": "_display",
          "type": "uint256"
        },
        {
          "internalType": "bool",
          "name": "_guess",
          "type": "bool"
        }
      ],
      "name": "winOrLose",
      "outputs": [
        {
          "internalType": "bool",
          "name": "",
          "type": "bool"
        },
        {
          "internalType": "uint256",
          "name": "",
          "type": "uint256"
        }
      ],
      "stateMutability": "payable",
      "type": "function"
    },
    {
      "inputs": [],
      "name": "withdrawBet",
      "outputs": [],
      "stateMutability": "nonpayable",
      "type": "function"
    }
  ],
  "bytecode": "0x6080604052336000806101000a81548173ffffffffffffffffffffffffffffffffffffffff021916908373ffffffffffffffffffffffffffffffffffffffff1602179055506001600060146101000a81548160ff021916908315150217905550610aca8061006e6000396000f3fe6080604052600436106100555760003560e01c8063171273a51461005a5780635cd9f87a146100975780638da5cb5b146100c2578063b240798e146100ed578063e2eb41ff14610104578063fc541ef314610142575b600080fd5b34801561006657600080fd5b50610081600480360381019061007c919061065a565b610173565b60405161008e91906106bc565b60405180910390f35b3480156100a357600080fd5b506100ac610205565b6040516100b991906106bc565b60405180910390f35b3480156100ce57600080fd5b506100d7610218565b6040516100e49190610718565b60405180910390f35b3480156100f957600080fd5b5061010261023c565b005b34801561011057600080fd5b5061012b6004803603810190610126919061075f565b6102fd565b60405161013992919061079b565b60405180910390f35b61015c600480360381019061015791906107c4565b610321565b60405161016a929190610804565b60405180910390f35b60006001151582151514801561018857508284115b1561019657600190506101fe565b600115158215151480156101a957508284105b156101b757600090506101fe565b600015158215151480156101ca57508284115b156101d857600090506101fe565b600015158215151480156101eb57508284105b156101f957600190506101fe565b600090505b9392505050565b600060149054906101000a900460ff1681565b60008054906101000a900473ffffffffffffffffffffffffffffffffffffffff1681565b60008054906101000a900473ffffffffffffffffffffffffffffffffffffffff1673ffffffffffffffffffffffffffffffffffffffff163373ffffffffffffffffffffffffffffffffffffffff161461029457600080fd5b60008054906101000a900473ffffffffffffffffffffffffffffffffffffffff1673ffffffffffffffffffffffffffffffffffffffff166108fc479081150290604051600060405180830381858888f193505050501580156102fa573d6000803e3d6000fd5b50565b60016020528060005260406000206000915090508060000154908060010154905082565b60008060011515600060149054906101000a900460ff1615151461037a576040517f08c379a00000000000000000000000000000000000000000000000000000000081526004016103719061088a565b60405180910390fd5b343373ffffffffffffffffffffffffffffffffffffffff1631116103d3576040517f08c379a00000000000000000000000000000000000000000000000000000000081526004016103ca906108f6565b60405180910390fd5b60006103dd6105b2565b905060006103ec828787610173565b905060011515811515036104f15760018060003373ffffffffffffffffffffffffffffffffffffffff1673ffffffffffffffffffffffffffffffffffffffff168152602001908152602001600020600001600082825461044c9190610945565b925050819055503373ffffffffffffffffffffffffffffffffffffffff166108fc60023461047a9190610979565b9081150290604051600060405180830381858888f193505050501580156104a5573d6000803e3d6000fd5b507ff845694883f2dce22b02fff31d909bbe718a9d566a5a6a2fecd944cf3fc3c310333484896040516104db94939291906109bb565b60405180910390a16001829350935050506105ab565b60001515811515036105a15760018060003373ffffffffffffffffffffffffffffffffffffffff1673ffffffffffffffffffffffffffffffffffffffff168152602001908152602001600020600101600082825461054f9190610945565b925050819055507f193f8ecc500dc5f9e076d61f9ab3c8f4cadf8d2369c0b72730ebf5c586106b033334848960405161058b94939291906109bb565b60405180910390a16000829350935050506105ab565b6000809350935050505b9250929050565b6000806001600a6001436105c69190610a00565b4060001c6105d49190610a63565b6105de9190610945565b90508091505090565b600080fd5b6000819050919050565b6105ff816105ec565b811461060a57600080fd5b50565b60008135905061061c816105f6565b92915050565b60008115159050919050565b61063781610622565b811461064257600080fd5b50565b6000813590506106548161062e565b92915050565b600080600060608486031215610673576106726105e7565b5b60006106818682870161060d565b93505060206106928682870161060d565b92505060406106a386828701610645565b9150509250925092565b6106b681610622565b82525050565b60006020820190506106d160008301846106ad565b92915050565b600073ffffffffffffffffffffffffffffffffffffffff82169050919050565b6000610702826106d7565b9050919050565b610712816106f7565b82525050565b600060208201905061072d6000830184610709565b92915050565b61073c816106f7565b811461074757600080fd5b50565b60008135905061075981610733565b92915050565b600060208284031215610775576107746105e7565b5b60006107838482850161074a565b91505092915050565b610795816105ec565b82525050565b60006040820190506107b0600083018561078c565b6107bd602083018461078c565b9392505050565b600080604083850312156107db576107da6105e7565b5b60006107e98582860161060d565b92505060206107fa85828601610645565b9150509250929050565b600060408201905061081960008301856106ad565b610826602083018461078c565b9392505050565b600082825260208201905092915050565b7f5468652067616d65206973206e6f74206f6e6c696e6500000000000000000000600082015250565b600061087460168361082d565b915061087f8261083e565b602082019050919050565b600060208201905081810360008301526108a381610867565b9050919050565b7f496e73756666696369656e742066756e64730000000000000000000000000000600082015250565b60006108e060128361082d565b91506108eb826108aa565b602082019050919050565b6000602082019050818103600083015261090f816108d3565b9050919050565b7f4e487b7100000000000000000000000000000000000000000000000000000000600052601160045260246000fd5b6000610950826105ec565b915061095b836105ec565b925082820190508082111561097357610972610916565b5b92915050565b6000610984826105ec565b915061098f836105ec565b925082820261099d816105ec565b915082820484148315176109b4576109b3610916565b5b5092915050565b60006080820190506109d06000830187610709565b6109dd602083018661078c565b6109ea604083018561078c565b6109f7606083018461078c565b95945050505050565b6000610a0b826105ec565b9150610a16836105ec565b9250828203905081811115610a2e57610a2d610916565b5b92915050565b7f4e487b7100000000000000000000000000000000000000000000000000000000600052601260045260246000fd5b6000610a6e826105ec565b9150610a79836105ec565b925082610a8957610a88610a34565b5b82820690509291505056fea2646970667358221220b09c01019f421bb5b5340f03998abda840b7013b75ba13ec866cda959f8f341e64736f6c63430008140033",
  "immutableReferences": {},
  "source": "// SPDX-License-Identifier: MIT\npragma solidity ^0.8.20;\n\ncontract Gaming {\n    /* Our Online gaming contract */\n    address public owner;\n    bool public online;\n\n    struct Player {\n        uint wins;\n        uint losses;\n    }\n\n    mapping(address => Player) public players;\n\n    constructor() payable {\n        owner = msg.sender;\n        online = true;\n    }\n\n    event PlayerWon(\n        address player,\n        uint amount,\n        uint mysteryNumber,\n        uint displayedNumber\n    );\n    event PlayerLost(\n        address player,\n        uint amount,\n        uint mysteryNumber,\n        uint displayedNumber\n    );\n\n    function mysteryNumber() internal view returns (uint) {\n        uint randomNumber = (uint(blockhash(block.number - 1)) % 10) + 1;\n        return randomNumber;\n    }\n\n    function determineWinner(\n        uint _number,\n        uint _display,\n        bool _guess\n    ) public pure returns (bool) {\n        if (_guess == true && _number > _display) {\n            return true;\n        } else if (_guess == true && _number < _display) {\n            return false;\n        } else if (_guess == false && _number > _display) {\n            return false;\n        } else if (_guess == false && _number < _display) {\n            return true;\n        }\n        return false;\n    }\n\n    function winOrLose(\n        uint _display,\n        bool _guess\n    ) external payable returns (bool, uint) {\n        /* Use true for a higher guess, false for a lower guess */\n        require(online == true, \"The game is not online\");\n        require(msg.sender.balance > msg.value, \"Insufficient funds\");\n        uint _mysteryNumber = mysteryNumber();\n        bool isWinner = determineWinner(_mysteryNumber, _display, _guess);\n        /* Player Won */\n        if (isWinner == true) {\n            players[msg.sender].wins += 1;\n            payable(msg.sender).transfer(msg.value * 2);\n            emit PlayerWon(msg.sender, msg.value, _mysteryNumber, _display);\n            return (true, _mysteryNumber);\n            /* Player Lost */\n        } else if (isWinner == false) {\n            players[msg.sender].losses += 1;\n            emit PlayerLost(msg.sender, msg.value, _mysteryNumber, _display);\n            return (false, _mysteryNumber);\n        }\n        return (false, 0);\n    }\n\n    function withdrawBet() public {\n        require(msg.sender == owner);\n        payable(owner).transfer(address(this).balance);\n    }\n}\n",
  "sourcePath": "C:\\Users\\farid\\Desktop\\CertifiedBlockchainTruffle\\truffle\\contracts\\Gaming.sol",
  "compiler": {
    "name": "solc",
    "version": "0.8.20+commit.a1b79de6.Emscripten.clang"
  },
  "schemaVersion": "3.4.16",
  "updatedAt": "2024-04-25T06:59:30.917Z",
  "devdoc": {
    "kind": "dev",
    "methods": {},
    "version": 1
  },
  "userdoc": {
    "kind": "user",
    "methods": {},
    "version": 1
  }
}