{
  "contractName": "PollContract",
  "abi": [
    {
      "anonymous": false,
      "inputs": [
        {
          "indexed": false,
          "internalType": "uint256",
          "name": "_pollId",
          "type": "uint256"
        }
      ],
      "name": "PollCreated",
      "type": "event"
    },
    {
      "inputs": [
        {
          "internalType": "string",
          "name": "_question",
          "type": "string"
        },
        {
          "internalType": "string",
          "name": "_thumb",
          "type": "string"
        },
        {
          "internalType": "string[]",
          "name": "_options",
          "type": "string[]"
        }
      ],
      "name": "createPoll",
      "outputs": [],
      "stateMutability": "nonpayable",
      "type": "function"
    },
    {
      "inputs": [
        {
          "internalType": "uint256",
          "name": "_pollId",
          "type": "uint256"
        }
      ],
      "name": "getPoll",
      "outputs": [
        {
          "internalType": "uint256",
          "name": "",
          "type": "uint256"
        },
        {
          "internalType": "string",
          "name": "",
          "type": "string"
        },
        {
          "internalType": "string",
          "name": "",
          "type": "string"
        },
        {
          "internalType": "uint64[]",
          "name": "",
          "type": "uint64[]"
        },
        {
          "internalType": "string[]",
          "name": "",
          "type": "string[]"
        }
      ],
      "stateMutability": "view",
      "type": "function"
    },
    {
      "inputs": [
        {
          "internalType": "uint256",
          "name": "_pollId",
          "type": "uint256"
        },
        {
          "internalType": "uint64",
          "name": "_vote",
          "type": "uint64"
        }
      ],
      "name": "vote",
      "outputs": [],
      "stateMutability": "nonpayable",
      "type": "function"
    },
    {
      "inputs": [
        {
          "internalType": "address",
          "name": "_id",
          "type": "address"
        }
      ],
      "name": "getVoter",
      "outputs": [
        {
          "internalType": "address",
          "name": "",
          "type": "address"
        },
        {
          "internalType": "uint256[]",
          "name": "",
          "type": "uint256[]"
        }
      ],
      "stateMutability": "view",
      "type": "function"
    },
    {
      "inputs": [],
      "name": "getTotalPolls",
      "outputs": [
        {
          "internalType": "uint256",
          "name": "",
          "type": "uint256"
        }
      ],
      "stateMutability": "view",
      "type": "function"
    }
  ],
  "bytecode": "0x608060405234801561001057600080fd5b50611a7c806100206000396000f3fe608060405234801561001057600080fd5b50600436106100575760003560e01c80631a8cbcaa1461005c5780633ef87d5414610090578063cfba7a09146100ae578063d4f50f98146100ca578063ece71c91146100fb575b600080fd5b61007660048036038101906100719190610c5c565b610117565b604051610087959493929190610f06565b60405180910390f35b6100986104b1565b6040516100a59190610f75565b60405180910390f35b6100c860048036038101906100c391906111ab565b6104bd565b005b6100e460048036038101906100df91906112b0565b61069e565b6040516100f29291906113aa565b60405180910390f35b61011560048036038101906101109190611406565b6107a2565b005b600060608060608060008054905086108015610134575060008610155b610173576040517f08c379a000000000000000000000000000000000000000000000000000000000815260040161016a90611492565b60405180910390fd5b60008681548110610187576101866114b2565b5b906000526020600020906005020160000154600087815481106101ad576101ac6114b2565b5b9060005260206000209060050201600101600088815481106101d2576101d16114b2565b5b9060005260206000209060050201600201600089815481106101f7576101f66114b2565b5b906000526020600020906005020160030160008a8154811061021c5761021b6114b2565b5b906000526020600020906005020160040183805461023990611510565b80601f016020809104026020016040519081016040528092919081815260200182805461026590611510565b80156102b25780601f10610287576101008083540402835291602001916102b2565b820191906000526020600020905b81548152906001019060200180831161029557829003601f168201915b505050505093508280546102c590611510565b80601f01602080910402602001604051908101604052809291908181526020018280546102f190611510565b801561033e5780601f106103135761010080835404028352916020019161033e565b820191906000526020600020905b81548152906001019060200180831161032157829003601f168201915b50505050509250818054806020026020016040519081016040528092919081815260200182805480156103c457602002820191906000526020600020906000905b82829054906101000a900467ffffffffffffffff1667ffffffffffffffff168152602001906008019060208260070104928301926001038202915080841161037f5790505b5050505050915080805480602002602001604051908101604052809291908181526020016000905b8282101561049857838290600052602060002001805461040b90611510565b80601f016020809104026020016040519081016040528092919081815260200182805461043790611510565b80156104845780601f1061045957610100808354040283529160200191610484565b820191906000526020600020905b81548152906001019060200180831161046757829003601f168201915b5050505050815260200190600101906103ec565b5050505090509450945094509450945091939590929450565b60008080549050905090565b6000835111610501576040517f08c379a00000000000000000000000000000000000000000000000000000000081526004016104f89061158d565b60405180910390fd5b6001815111610545576040517f08c379a000000000000000000000000000000000000000000000000000000000815260040161053c906115f9565b60405180910390fd5b60008080549050905060006040518060a00160405280838152602001868152602001858152602001845167ffffffffffffffff81111561058857610587610f9a565b5b6040519080825280602002602001820160405280156105b65781602001602082028036833780820191505090505b508152602001848152509050600081908060018154018082558091505060019003906000526020600020906005020160009091909190915060008201518160000155602082015181600101908161060d91906117c5565b50604082015181600201908161062391906117c5565b506060820151816003019080519060200190610640929190610a7c565b50608082015181600401908051906020019061065d929190610b38565b5050507fab0309b6731a34e8750174d3c2c9591a34a2bf0c1425a30b34122be08d0507398260405161068f9190610f75565b60405180910390a15050505050565b60006060600160008473ffffffffffffffffffffffffffffffffffffffff1673ffffffffffffffffffffffffffffffffffffffff16815260200190815260200160002060000160009054906101000a900473ffffffffffffffffffffffffffffffffffffffff16600160008573ffffffffffffffffffffffffffffffffffffffff1673ffffffffffffffffffffffffffffffffffffffff1681526020019081526020016000206001018080548060200260200160405190810160405280929190818152602001828054801561079257602002820191906000526020600020905b81548152602001906001019080831161077e575b5050505050905091509150915091565b60008054905082106107e9576040517f08c379a00000000000000000000000000000000000000000000000000000000081526004016107e0906118e3565b60405180910390fd5b600082815481106107fd576107fc6114b2565b5b9060005260206000209060050201600401805490508167ffffffffffffffff161061085d576040517f08c379a00000000000000000000000000000000000000000000000000000000081526004016108549061194f565b60405180910390fd5b60001515600160003373ffffffffffffffffffffffffffffffffffffffff1673ffffffffffffffffffffffffffffffffffffffff168152602001908152602001600020600201600084815260200190815260200160002060009054906101000a900460ff16151514610904576040517f08c379a00000000000000000000000000000000000000000000000000000000081526004016108fb906119bb565b60405180910390fd5b60016000838154811061091a576109196114b2565b5b90600052602060002090600502016003018267ffffffffffffffff1681548110610947576109466114b2565b5b90600052602060002090600491828204019190066008028282829054906101000a900467ffffffffffffffff1661097e9190611a0a565b92506101000a81548167ffffffffffffffff021916908367ffffffffffffffff160217905550600160003373ffffffffffffffffffffffffffffffffffffffff1673ffffffffffffffffffffffffffffffffffffffff16815260200190815260200160002060010182908060018154018082558091505060019003906000526020600020016000909190919091505560018060003373ffffffffffffffffffffffffffffffffffffffff1673ffffffffffffffffffffffffffffffffffffffff168152602001908152602001600020600201600084815260200190815260200160002060006101000a81548160ff0219169083151502179055505050565b82805482825590600052602060002090600301600490048101928215610b275791602002820160005b83821115610af157835183826101000a81548167ffffffffffffffff021916908367ffffffffffffffff1602179055509260200192600801602081600701049283019260010302610aa5565b8015610b255782816101000a81549067ffffffffffffffff0219169055600801602081600701049283019260010302610af1565b505b509050610b349190610b91565b5090565b828054828255906000526020600020908101928215610b80579160200282015b82811115610b7f578251829081610b6f91906117c5565b5091602001919060010190610b58565b5b509050610b8d9190610bae565b5090565b5b80821115610baa576000816000905550600101610b92565b5090565b5b80821115610bce5760008181610bc59190610bd2565b50600101610baf565b5090565b508054610bde90611510565b6000825580601f10610bf05750610c0f565b601f016020900490600052602060002090810190610c0e9190610b91565b5b50565b6000604051905090565b600080fd5b600080fd5b6000819050919050565b610c3981610c26565b8114610c4457600080fd5b50565b600081359050610c5681610c30565b92915050565b600060208284031215610c7257610c71610c1c565b5b6000610c8084828501610c47565b91505092915050565b610c9281610c26565b82525050565b600081519050919050565b600082825260208201905092915050565b60005b83811015610cd2578082015181840152602081019050610cb7565b60008484015250505050565b6000601f19601f8301169050919050565b6000610cfa82610c98565b610d048185610ca3565b9350610d14818560208601610cb4565b610d1d81610cde565b840191505092915050565b600081519050919050565b600082825260208201905092915050565b6000819050602082019050919050565b600067ffffffffffffffff82169050919050565b610d7181610d54565b82525050565b6000610d838383610d68565b60208301905092915050565b6000602082019050919050565b6000610da782610d28565b610db18185610d33565b9350610dbc83610d44565b8060005b83811015610ded578151610dd48882610d77565b9750610ddf83610d8f565b925050600181019050610dc0565b5085935050505092915050565b600081519050919050565b600082825260208201905092915050565b6000819050602082019050919050565b600082825260208201905092915050565b6000610e4282610c98565b610e4c8185610e26565b9350610e5c818560208601610cb4565b610e6581610cde565b840191505092915050565b6000610e7c8383610e37565b905092915050565b6000602082019050919050565b6000610e9c82610dfa565b610ea68185610e05565b935083602082028501610eb885610e16565b8060005b85811015610ef45784840389528151610ed58582610e70565b9450610ee083610e84565b925060208a01995050600181019050610ebc565b50829750879550505050505092915050565b600060a082019050610f1b6000830188610c89565b8181036020830152610f2d8187610cef565b90508181036040830152610f418186610cef565b90508181036060830152610f558185610d9c565b90508181036080830152610f698184610e91565b90509695505050505050565b6000602082019050610f8a6000830184610c89565b92915050565b600080fd5b600080fd5b7f4e487b7100000000000000000000000000000000000000000000000000000000600052604160045260246000fd5b610fd282610cde565b810181811067ffffffffffffffff82111715610ff157610ff0610f9a565b5b80604052505050565b6000611004610c12565b90506110108282610fc9565b919050565b600067ffffffffffffffff8211156110305761102f610f9a565b5b61103982610cde565b9050602081019050919050565b82818337600083830152505050565b600061106861106384611015565b610ffa565b90508281526020810184848401111561108457611083610f95565b5b61108f848285611046565b509392505050565b600082601f8301126110ac576110ab610f90565b5b81356110bc848260208601611055565b91505092915050565b600067ffffffffffffffff8211156110e0576110df610f9a565b5b602082029050602081019050919050565b600080fd5b6000611109611104846110c5565b610ffa565b9050808382526020820190506020840283018581111561112c5761112b6110f1565b5b835b8181101561117357803567ffffffffffffffff81111561115157611150610f90565b5b80860161115e8982611097565b8552602085019450505060208101905061112e565b5050509392505050565b600082601f83011261119257611191610f90565b5b81356111a28482602086016110f6565b91505092915050565b6000806000606084860312156111c4576111c3610c1c565b5b600084013567ffffffffffffffff8111156111e2576111e1610c21565b5b6111ee86828701611097565b935050602084013567ffffffffffffffff81111561120f5761120e610c21565b5b61121b86828701611097565b925050604084013567ffffffffffffffff81111561123c5761123b610c21565b5b6112488682870161117d565b9150509250925092565b600073ffffffffffffffffffffffffffffffffffffffff82169050919050565b600061127d82611252565b9050919050565b61128d81611272565b811461129857600080fd5b50565b6000813590506112aa81611284565b92915050565b6000602082840312156112c6576112c5610c1c565b5b60006112d48482850161129b565b91505092915050565b6112e681611272565b82525050565b600081519050919050565b600082825260208201905092915050565b6000819050602082019050919050565b61132181610c26565b82525050565b60006113338383611318565b60208301905092915050565b6000602082019050919050565b6000611357826112ec565b61136181856112f7565b935061136c83611308565b8060005b8381101561139d5781516113848882611327565b975061138f8361133f565b925050600181019050611370565b5085935050505092915050565b60006040820190506113bf60008301856112dd565b81810360208301526113d1818461134c565b90509392505050565b6113e381610d54565b81146113ee57600080fd5b50565b600081359050611400816113da565b92915050565b6000806040838503121561141d5761141c610c1c565b5b600061142b85828601610c47565b925050602061143c858286016113f1565b9150509250929050565b7f4e6f20706f6c6c20666f756e6400000000000000000000000000000000000000600082015250565b600061147c600d83610ca3565b915061148782611446565b602082019050919050565b600060208201905081810360008301526114ab8161146f565b9050919050565b7f4e487b7100000000000000000000000000000000000000000000000000000000600052603260045260246000fd5b7f4e487b7100000000000000000000000000000000000000000000000000000000600052602260045260246000fd5b6000600282049050600182168061152857607f821691505b60208210810361153b5761153a6114e1565b5b50919050565b7f456d707479207175657374696f6e000000000000000000000000000000000000600082015250565b6000611577600e83610ca3565b915061158282611541565b602082019050919050565b600060208201905081810360008301526115a68161156a565b9050919050565b7f4174206c656173742032206f7074696f6e732072657175697265640000000000600082015250565b60006115e3601b83610ca3565b91506115ee826115ad565b602082019050919050565b60006020820190508181036000830152611612816115d6565b9050919050565b60008190508160005260206000209050919050565b60006020601f8301049050919050565b600082821b905092915050565b60006008830261167b7fffffffffffffffffffffffffffffffffffffffffffffffffffffffffffffffff8261163e565b611685868361163e565b95508019841693508086168417925050509392505050565b6000819050919050565b60006116c26116bd6116b884610c26565b61169d565b610c26565b9050919050565b6000819050919050565b6116dc836116a7565b6116f06116e8826116c9565b84845461164b565b825550505050565b600090565b6117056116f8565b6117108184846116d3565b505050565b5b81811015611734576117296000826116fd565b600181019050611716565b5050565b601f8211156117795761174a81611619565b6117538461162e565b81016020851015611762578190505b61177661176e8561162e565b830182611715565b50505b505050565b600082821c905092915050565b600061179c6000198460080261177e565b1980831691505092915050565b60006117b5838361178b565b9150826002028217905092915050565b6117ce82610c98565b67ffffffffffffffff8111156117e7576117e6610f9a565b5b6117f18254611510565b6117fc828285611738565b600060209050601f83116001811461182f576000841561181d578287015190505b61182785826117a9565b86555061188f565b601f19841661183d86611619565b60005b8281101561186557848901518255600182019150602085019450602081019050611840565b86831015611882578489015161187e601f89168261178b565b8355505b6001600288020188555050505b505050505050565b7f506f6c6c20646f6573206e6f7420657869737400000000000000000000000000600082015250565b60006118cd601383610ca3565b91506118d882611897565b602082019050919050565b600060208201905081810360008301526118fc816118c0565b9050919050565b7f496e76616c696420766f74650000000000000000000000000000000000000000600082015250565b6000611939600c83610ca3565b915061194482611903565b602082019050919050565b600060208201905081810360008301526119688161192c565b9050919050565b7f596f7520616c726561647920766f746564000000000000000000000000000000600082015250565b60006119a5601183610ca3565b91506119b08261196f565b602082019050919050565b600060208201905081810360008301526119d481611998565b9050919050565b7f4e487b7100000000000000000000000000000000000000000000000000000000600052601160045260246000fd5b6000611a1582610d54565b9150611a2083610d54565b9250828201905067ffffffffffffffff811115611a4057611a3f6119db565b5b9291505056fea2646970667358221220798809b5c5c20fafa6bb76b88630478b1c7ad8fce85a588a280ecd737201f6eb64736f6c63430008140033",
  "immutableReferences": {},
  "source": "// SPDX-License-Identifier: MIT\r\npragma solidity ^0.8.20;\r\n\r\ncontract PollContract {\r\n    struct Poll {\r\n        uint256 id;\r\n        string question;\r\n        string thumbnail;\r\n        uint64[] votes;\r\n        string[] options;\r\n    }\r\n\r\n    struct Voter {\r\n        address id;\r\n        uint256[] votedIds;\r\n        mapping(uint256 => bool) votedMap;\r\n    }\r\n\r\n    Poll[] private polls;\r\n    mapping(address => Voter) private voters;\r\n\r\n    event PollCreated(uint256 _pollId);\r\n\r\n    function createPoll(\r\n        string memory _question,\r\n        string memory _thumb,\r\n        string[] memory _options\r\n    ) public {\r\n        require(bytes(_question).length > 0, \"Empty question\");\r\n        require(_options.length > 1, \"At least 2 options required\");\r\n\r\n        uint256 pollId = polls.length;\r\n\r\n        Poll memory newPoll = Poll({\r\n            id: pollId,\r\n            question: _question,\r\n            thumbnail: _thumb,\r\n            options: _options,\r\n            votes: new uint64[](_options.length)\r\n        });\r\n\r\n        polls.push(newPoll);\r\n        emit PollCreated(pollId);\r\n    }\r\n\r\n    function getPoll(\r\n        uint256 _pollId\r\n    )\r\n        external\r\n        view\r\n        returns (\r\n            uint256,\r\n            string memory,\r\n            string memory,\r\n            uint64[] memory,\r\n            string[] memory\r\n        )\r\n    {\r\n        require(_pollId < polls.length && _pollId >= 0, \"No poll found\");\r\n        return (\r\n            polls[_pollId].id,\r\n            polls[_pollId].question,\r\n            polls[_pollId].thumbnail,\r\n            polls[_pollId].votes,\r\n            polls[_pollId].options\r\n        );\r\n    }\r\n\r\n    function vote(uint256 _pollId, uint64 _vote) external {\r\n        require(_pollId < polls.length, \"Poll does not exist\");\r\n        require(_vote < polls[_pollId].options.length, \"Invalid vote\");\r\n        require(\r\n            voters[msg.sender].votedMap[_pollId] == false,\r\n            \"You already voted\"\r\n        );\r\n\r\n        polls[_pollId].votes[_vote] += 1;\r\n\r\n        voters[msg.sender].votedIds.push(_pollId);\r\n        voters[msg.sender].votedMap[_pollId] = true;\r\n    }\r\n\r\n    function getVoter(\r\n        address _id\r\n    ) external view returns (address, uint256[] memory) {\r\n        return (voters[_id].id, voters[_id].votedIds);\r\n    }\r\n\r\n    function getTotalPolls() external view returns (uint256) {\r\n        return polls.length;\r\n    }\r\n}\r\n",
  "sourcePath": "C:\\Users\\farid\\Desktop\\CertifiedBlockchainTruffle\\truffle\\contracts\\PollContract.sol",
  "compiler": {
    "name": "solc",
    "version": "0.8.20+commit.a1b79de6.Emscripten.clang"
  },
  "schemaVersion": "3.4.16",
  "updatedAt": "2024-04-25T06:59:30.926Z",
  "devdoc": {
    "kind": "dev",
    "methods": {},
    "version": 1
  },
  "userdoc": {
    "kind": "user",
    "methods": {},
    "version": 1
  }
}