{
  "contractName": "TokenMaster",
  "abi": [
    {
      "inputs": [],
      "stateMutability": "nonpayable",
      "type": "constructor"
    },
    {
      "inputs": [
        {
          "internalType": "address",
          "name": "sender",
          "type": "address"
        },
        {
          "internalType": "uint256",
          "name": "tokenId",
          "type": "uint256"
        },
        {
          "internalType": "address",
          "name": "owner",
          "type": "address"
        }
      ],
      "name": "ERC721IncorrectOwner",
      "type": "error"
    },
    {
      "inputs": [
        {
          "internalType": "address",
          "name": "operator",
          "type": "address"
        },
        {
          "internalType": "uint256",
          "name": "tokenId",
          "type": "uint256"
        }
      ],
      "name": "ERC721InsufficientApproval",
      "type": "error"
    },
    {
      "inputs": [
        {
          "internalType": "address",
          "name": "approver",
          "type": "address"
        }
      ],
      "name": "ERC721InvalidApprover",
      "type": "error"
    },
    {
      "inputs": [
        {
          "internalType": "address",
          "name": "operator",
          "type": "address"
        }
      ],
      "name": "ERC721InvalidOperator",
      "type": "error"
    },
    {
      "inputs": [
        {
          "internalType": "address",
          "name": "owner",
          "type": "address"
        }
      ],
      "name": "ERC721InvalidOwner",
      "type": "error"
    },
    {
      "inputs": [
        {
          "internalType": "address",
          "name": "receiver",
          "type": "address"
        }
      ],
      "name": "ERC721InvalidReceiver",
      "type": "error"
    },
    {
      "inputs": [
        {
          "internalType": "address",
          "name": "sender",
          "type": "address"
        }
      ],
      "name": "ERC721InvalidSender",
      "type": "error"
    },
    {
      "inputs": [
        {
          "internalType": "uint256",
          "name": "tokenId",
          "type": "uint256"
        }
      ],
      "name": "ERC721NonexistentToken",
      "type": "error"
    },
    {
      "anonymous": false,
      "inputs": [
        {
          "indexed": true,
          "internalType": "address",
          "name": "owner",
          "type": "address"
        },
        {
          "indexed": true,
          "internalType": "address",
          "name": "approved",
          "type": "address"
        },
        {
          "indexed": true,
          "internalType": "uint256",
          "name": "tokenId",
          "type": "uint256"
        }
      ],
      "name": "Approval",
      "type": "event"
    },
    {
      "anonymous": false,
      "inputs": [
        {
          "indexed": true,
          "internalType": "address",
          "name": "owner",
          "type": "address"
        },
        {
          "indexed": true,
          "internalType": "address",
          "name": "operator",
          "type": "address"
        },
        {
          "indexed": false,
          "internalType": "bool",
          "name": "approved",
          "type": "bool"
        }
      ],
      "name": "ApprovalForAll",
      "type": "event"
    },
    {
      "anonymous": false,
      "inputs": [
        {
          "indexed": true,
          "internalType": "address",
          "name": "from",
          "type": "address"
        },
        {
          "indexed": true,
          "internalType": "address",
          "name": "to",
          "type": "address"
        },
        {
          "indexed": true,
          "internalType": "uint256",
          "name": "tokenId",
          "type": "uint256"
        }
      ],
      "name": "Transfer",
      "type": "event"
    },
    {
      "inputs": [
        {
          "internalType": "address",
          "name": "to",
          "type": "address"
        },
        {
          "internalType": "uint256",
          "name": "tokenId",
          "type": "uint256"
        }
      ],
      "name": "approve",
      "outputs": [],
      "stateMutability": "nonpayable",
      "type": "function"
    },
    {
      "inputs": [
        {
          "internalType": "address",
          "name": "owner",
          "type": "address"
        }
      ],
      "name": "balanceOf",
      "outputs": [
        {
          "internalType": "uint256",
          "name": "",
          "type": "uint256"
        }
      ],
      "stateMutability": "view",
      "type": "function"
    },
    {
      "inputs": [
        {
          "internalType": "uint256",
          "name": "tokenId",
          "type": "uint256"
        }
      ],
      "name": "getApproved",
      "outputs": [
        {
          "internalType": "address",
          "name": "",
          "type": "address"
        }
      ],
      "stateMutability": "view",
      "type": "function"
    },
    {
      "inputs": [
        {
          "internalType": "uint256",
          "name": "",
          "type": "uint256"
        },
        {
          "internalType": "address",
          "name": "",
          "type": "address"
        }
      ],
      "name": "hasBought",
      "outputs": [
        {
          "internalType": "bool",
          "name": "",
          "type": "bool"
        }
      ],
      "stateMutability": "view",
      "type": "function"
    },
    {
      "inputs": [
        {
          "internalType": "address",
          "name": "owner",
          "type": "address"
        },
        {
          "internalType": "address",
          "name": "operator",
          "type": "address"
        }
      ],
      "name": "isApprovedForAll",
      "outputs": [
        {
          "internalType": "bool",
          "name": "",
          "type": "bool"
        }
      ],
      "stateMutability": "view",
      "type": "function"
    },
    {
      "inputs": [],
      "name": "name",
      "outputs": [
        {
          "internalType": "string",
          "name": "",
          "type": "string"
        }
      ],
      "stateMutability": "view",
      "type": "function"
    },
    {
      "inputs": [],
      "name": "owner",
      "outputs": [
        {
          "internalType": "address",
          "name": "",
          "type": "address"
        }
      ],
      "stateMutability": "view",
      "type": "function"
    },
    {
      "inputs": [
        {
          "internalType": "uint256",
          "name": "tokenId",
          "type": "uint256"
        }
      ],
      "name": "ownerOf",
      "outputs": [
        {
          "internalType": "address",
          "name": "",
          "type": "address"
        }
      ],
      "stateMutability": "view",
      "type": "function"
    },
    {
      "inputs": [
        {
          "internalType": "address",
          "name": "from",
          "type": "address"
        },
        {
          "internalType": "address",
          "name": "to",
          "type": "address"
        },
        {
          "internalType": "uint256",
          "name": "tokenId",
          "type": "uint256"
        }
      ],
      "name": "safeTransferFrom",
      "outputs": [],
      "stateMutability": "nonpayable",
      "type": "function"
    },
    {
      "inputs": [
        {
          "internalType": "address",
          "name": "from",
          "type": "address"
        },
        {
          "internalType": "address",
          "name": "to",
          "type": "address"
        },
        {
          "internalType": "uint256",
          "name": "tokenId",
          "type": "uint256"
        },
        {
          "internalType": "bytes",
          "name": "data",
          "type": "bytes"
        }
      ],
      "name": "safeTransferFrom",
      "outputs": [],
      "stateMutability": "nonpayable",
      "type": "function"
    },
    {
      "inputs": [
        {
          "internalType": "uint256",
          "name": "",
          "type": "uint256"
        },
        {
          "internalType": "uint256",
          "name": "",
          "type": "uint256"
        }
      ],
      "name": "seatTaken",
      "outputs": [
        {
          "internalType": "address",
          "name": "",
          "type": "address"
        }
      ],
      "stateMutability": "view",
      "type": "function"
    },
    {
      "inputs": [
        {
          "internalType": "address",
          "name": "operator",
          "type": "address"
        },
        {
          "internalType": "bool",
          "name": "approved",
          "type": "bool"
        }
      ],
      "name": "setApprovalForAll",
      "outputs": [],
      "stateMutability": "nonpayable",
      "type": "function"
    },
    {
      "inputs": [
        {
          "internalType": "bytes4",
          "name": "interfaceId",
          "type": "bytes4"
        }
      ],
      "name": "supportsInterface",
      "outputs": [
        {
          "internalType": "bool",
          "name": "",
          "type": "bool"
        }
      ],
      "stateMutability": "view",
      "type": "function"
    },
    {
      "inputs": [],
      "name": "symbol",
      "outputs": [
        {
          "internalType": "string",
          "name": "",
          "type": "string"
        }
      ],
      "stateMutability": "view",
      "type": "function"
    },
    {
      "inputs": [
        {
          "internalType": "uint256",
          "name": "tokenId",
          "type": "uint256"
        }
      ],
      "name": "tokenURI",
      "outputs": [
        {
          "internalType": "string",
          "name": "",
          "type": "string"
        }
      ],
      "stateMutability": "view",
      "type": "function"
    },
    {
      "inputs": [],
      "name": "totalOccasions",
      "outputs": [
        {
          "internalType": "uint256",
          "name": "",
          "type": "uint256"
        }
      ],
      "stateMutability": "view",
      "type": "function"
    },
    {
      "inputs": [],
      "name": "totalSupply",
      "outputs": [
        {
          "internalType": "uint256",
          "name": "",
          "type": "uint256"
        }
      ],
      "stateMutability": "view",
      "type": "function"
    },
    {
      "inputs": [
        {
          "internalType": "address",
          "name": "from",
          "type": "address"
        },
        {
          "internalType": "address",
          "name": "to",
          "type": "address"
        },
        {
          "internalType": "uint256",
          "name": "tokenId",
          "type": "uint256"
        }
      ],
      "name": "transferFrom",
      "outputs": [],
      "stateMutability": "nonpayable",
      "type": "function"
    },
    {
      "inputs": [
        {
          "internalType": "string",
          "name": "_name",
          "type": "string"
        },
        {
          "internalType": "uint256",
          "name": "_cost",
          "type": "uint256"
        },
        {
          "internalType": "uint256",
          "name": "_maxTickets",
          "type": "uint256"
        },
        {
          "internalType": "string",
          "name": "_date",
          "type": "string"
        },
        {
          "internalType": "string",
          "name": "_time",
          "type": "string"
        },
        {
          "internalType": "string",
          "name": "_location",
          "type": "string"
        }
      ],
      "name": "list",
      "outputs": [],
      "stateMutability": "nonpayable",
      "type": "function"
    },
    {
      "inputs": [
        {
          "internalType": "uint256",
          "name": "_id",
          "type": "uint256"
        },
        {
          "internalType": "uint256",
          "name": "_seat",
          "type": "uint256"
        }
      ],
      "name": "mint",
      "outputs": [],
      "stateMutability": "payable",
      "type": "function"
    },
    {
      "inputs": [
        {
          "internalType": "uint256",
          "name": "_id",
          "type": "uint256"
        }
      ],
      "name": "getOccasion",
      "outputs": [
        {
          "components": [
            {
              "internalType": "uint256",
              "name": "id",
              "type": "uint256"
            },
            {
              "internalType": "string",
              "name": "name",
              "type": "string"
            },
            {
              "internalType": "uint256",
              "name": "cost",
              "type": "uint256"
            },
            {
              "internalType": "uint256",
              "name": "tickets",
              "type": "uint256"
            },
            {
              "internalType": "uint256",
              "name": "maxTickets",
              "type": "uint256"
            },
            {
              "internalType": "string",
              "name": "date",
              "type": "string"
            },
            {
              "internalType": "string",
              "name": "time",
              "type": "string"
            },
            {
              "internalType": "string",
              "name": "location",
              "type": "string"
            }
          ],
          "internalType": "struct TokenMaster.Occasion",
          "name": "",
          "type": "tuple"
        }
      ],
      "stateMutability": "view",
      "type": "function"
    },
    {
      "inputs": [
        {
          "internalType": "uint256",
          "name": "_id",
          "type": "uint256"
        }
      ],
      "name": "getSeatsTaken",
      "outputs": [
        {
          "internalType": "uint256[]",
          "name": "",
          "type": "uint256[]"
        }
      ],
      "stateMutability": "view",
      "type": "function"
    },
    {
      "inputs": [],
      "name": "withdraw",
      "outputs": [],
      "stateMutability": "nonpayable",
      "type": "function"
    }
  ],
  "bytecode": "0x60806040523480156200001157600080fd5b506040518060400160405280600581526020017f53686164690000000000000000000000000000000000000000000000000000008152506040518060400160405280600381526020017f534844000000000000000000000000000000000000000000000000000000000081525081600090816200008f919062000365565b508060019081620000a1919062000365565b50505033600660006101000a81548173ffffffffffffffffffffffffffffffffffffffff021916908373ffffffffffffffffffffffffffffffffffffffff1602179055506200044c565b600081519050919050565b7f4e487b7100000000000000000000000000000000000000000000000000000000600052604160045260246000fd5b7f4e487b7100000000000000000000000000000000000000000000000000000000600052602260045260246000fd5b600060028204905060018216806200016d57607f821691505b60208210810362000183576200018262000125565b5b50919050565b60008190508160005260206000209050919050565b60006020601f8301049050919050565b600082821b905092915050565b600060088302620001ed7fffffffffffffffffffffffffffffffffffffffffffffffffffffffffffffffff82620001ae565b620001f98683620001ae565b95508019841693508086168417925050509392505050565b6000819050919050565b6000819050919050565b600062000246620002406200023a8462000211565b6200021b565b62000211565b9050919050565b6000819050919050565b620002628362000225565b6200027a62000271826200024d565b848454620001bb565b825550505050565b600090565b6200029162000282565b6200029e81848462000257565b505050565b5b81811015620002c657620002ba60008262000287565b600181019050620002a4565b5050565b601f8211156200031557620002df8162000189565b620002ea846200019e565b81016020851015620002fa578190505b6200031262000309856200019e565b830182620002a3565b50505b505050565b600082821c905092915050565b60006200033a600019846008026200031a565b1980831691505092915050565b600062000355838362000327565b9150826002028217905092915050565b6200037082620000eb565b67ffffffffffffffff8111156200038c576200038b620000f6565b5b62000398825462000154565b620003a5828285620002ca565b600060209050601f831160018114620003dd5760008415620003c8578287015190505b620003d4858262000347565b86555062000444565b601f198416620003ed8662000189565b60005b828110156200041757848901518255600182019150602085019450602081019050620003f0565b8683101562000437578489015162000433601f89168262000327565b8355505b6001600288020188555050505b505050505050565b6130a7806200045c6000396000f3fe6080604052600436106101405760003560e01c806370a08231116100b65780639cb04aef1161006f5780639cb04aef14610461578063a22cb4651461049e578063af296da1146104c7578063b88d4fde14610504578063c87b56dd1461052d578063e985e9c51461056a57610140565b806370a082311461033d57806374bc86561461037a5780638da5cb5b146103b7578063953865c1146103e257806395d89b411461040d5780639a382f0f1461043857610140565b806318160ddd1161010857806318160ddd146102505780631b2ef1ca1461027b57806323b872dd146102975780633ccfd60b146102c057806342842e0e146102d75780636352211e1461030057610140565b806301ffc9a71461014557806306fdde0314610182578063081812fc146101ad578063095ea7b3146101ea5780630ef7ec7414610213575b600080fd5b34801561015157600080fd5b5061016c60048036038101906101679190612153565b6105a7565b604051610179919061219b565b60405180910390f35b34801561018e57600080fd5b50610197610689565b6040516101a49190612246565b60405180910390f35b3480156101b957600080fd5b506101d460048036038101906101cf919061229e565b61071b565b6040516101e1919061230c565b60405180910390f35b3480156101f657600080fd5b50610211600480360381019061020c9190612353565b610737565b005b34801561021f57600080fd5b5061023a6004803603810190610235919061229e565b61074d565b6040516102479190612451565b60405180910390f35b34801561025c57600080fd5b506102656107b8565b6040516102729190612482565b60405180910390f35b6102956004803603810190610290919061249d565b6107be565b005b3480156102a357600080fd5b506102be60048036038101906102b991906124dd565b6109f9565b005b3480156102cc57600080fd5b506102d5610afb565b005b3480156102e357600080fd5b506102fe60048036038101906102f991906124dd565b610bf0565b005b34801561030c57600080fd5b506103276004803603810190610322919061229e565b610c10565b604051610334919061230c565b60405180910390f35b34801561034957600080fd5b50610364600480360381019061035f9190612530565b610c22565b6040516103719190612482565b60405180910390f35b34801561038657600080fd5b506103a1600480360381019061039c919061229e565b610cdc565b6040516103ae919061266c565b60405180910390f35b3480156103c357600080fd5b506103cc610f7a565b6040516103d9919061230c565b60405180910390f35b3480156103ee57600080fd5b506103f7610fa0565b6040516104049190612482565b60405180910390f35b34801561041957600080fd5b50610422610fa6565b60405161042f9190612246565b60405180910390f35b34801561044457600080fd5b5061045f600480360381019061045a91906127c3565b611038565b005b34801561046d57600080fd5b50610488600480360381019061048391906128c0565b611186565b604051610495919061219b565b60405180910390f35b3480156104aa57600080fd5b506104c560048036038101906104c0919061292c565b6111b5565b005b3480156104d357600080fd5b506104ee60048036038101906104e9919061249d565b6111cb565b6040516104fb919061230c565b60405180910390f35b34801561051057600080fd5b5061052b60048036038101906105269190612a0d565b61120d565b005b34801561053957600080fd5b50610554600480360381019061054f919061229e565b61122a565b6040516105619190612246565b60405180910390f35b34801561057657600080fd5b50610591600480360381019061058c9190612a90565b611293565b60405161059e919061219b565b60405180910390f35b60007f80ac58cd000000000000000000000000000000000000000000000000000000007bffffffffffffffffffffffffffffffffffffffffffffffffffffffff1916827bffffffffffffffffffffffffffffffffffffffffffffffffffffffff1916148061067257507f5b5e139f000000000000000000000000000000000000000000000000000000007bffffffffffffffffffffffffffffffffffffffffffffffffffffffff1916827bffffffffffffffffffffffffffffffffffffffffffffffffffffffff1916145b80610682575061068182611327565b5b9050919050565b60606000805461069890612aff565b80601f01602080910402602001604051908101604052809291908181526020018280546106c490612aff565b80156107115780601f106106e657610100808354040283529160200191610711565b820191906000526020600020905b8154815290600101906020018083116106f457829003601f168201915b5050505050905090565b600061072682611391565b5061073082611419565b9050919050565b6107498282610744611456565b61145e565b5050565b6060600c60008381526020019081526020016000208054806020026020016040519081016040528092919081815260200182805480156107ac57602002820191906000526020600020905b815481526020019060010190808311610798575b50505050509050919050565b60085481565b600082036107cb57600080fd5b6007548211156107da57600080fd5b60096000838152602001908152602001600020600201543410156107fd57600080fd5b600073ffffffffffffffffffffffffffffffffffffffff16600b6000848152602001908152602001600020600083815260200190815260200160002060009054906101000a900473ffffffffffffffffffffffffffffffffffffffff1673ffffffffffffffffffffffffffffffffffffffff161461087a57600080fd5b600960008381526020019081526020016000206004015481111561089d57600080fd5b60016009600084815260200190815260200160002060030160008282546108c49190612b5f565b925050819055506001600a600084815260200190815260200160002060003373ffffffffffffffffffffffffffffffffffffffff1673ffffffffffffffffffffffffffffffffffffffff16815260200190815260200160002060006101000a81548160ff02191690831515021790555033600b6000848152602001908152602001600020600083815260200190815260200160002060006101000a81548173ffffffffffffffffffffffffffffffffffffffff021916908373ffffffffffffffffffffffffffffffffffffffff160217905550600c6000838152602001908152602001600020819080600181540180825580915050600190039060005260206000200160009091909190915055600860008154809291906109e490612b93565b91905055506109f533600854611470565b5050565b600073ffffffffffffffffffffffffffffffffffffffff168273ffffffffffffffffffffffffffffffffffffffff1603610a6b5760006040517f64a0ae92000000000000000000000000000000000000000000000000000000008152600401610a62919061230c565b60405180910390fd5b6000610a7f8383610a7a611456565b61148e565b90508373ffffffffffffffffffffffffffffffffffffffff168173ffffffffffffffffffffffffffffffffffffffff1614610af5578382826040517f64283d7b000000000000000000000000000000000000000000000000000000008152600401610aec93929190612bdb565b60405180910390fd5b50505050565b600660009054906101000a900473ffffffffffffffffffffffffffffffffffffffff1673ffffffffffffffffffffffffffffffffffffffff163373ffffffffffffffffffffffffffffffffffffffff1614610b5557600080fd5b6000600660009054906101000a900473ffffffffffffffffffffffffffffffffffffffff1673ffffffffffffffffffffffffffffffffffffffff1647604051610b9d90612c43565b60006040518083038185875af1925050503d8060008114610bda576040519150601f19603f3d011682016040523d82523d6000602084013e610bdf565b606091505b5050905080610bed57600080fd5b50565b610c0b8383836040518060200160405280600081525061120d565b505050565b6000610c1b82611391565b9050919050565b60008073ffffffffffffffffffffffffffffffffffffffff168273ffffffffffffffffffffffffffffffffffffffff1603610c955760006040517f89c62b64000000000000000000000000000000000000000000000000000000008152600401610c8c919061230c565b60405180910390fd5b600360008373ffffffffffffffffffffffffffffffffffffffff1673ffffffffffffffffffffffffffffffffffffffff168152602001908152602001600020549050919050565b610ce46120a2565b600960008381526020019081526020016000206040518061010001604052908160008201548152602001600182018054610d1d90612aff565b80601f0160208091040260200160405190810160405280929190818152602001828054610d4990612aff565b8015610d965780601f10610d6b57610100808354040283529160200191610d96565b820191906000526020600020905b815481529060010190602001808311610d7957829003601f168201915b50505050508152602001600282015481526020016003820154815260200160048201548152602001600582018054610dcd90612aff565b80601f0160208091040260200160405190810160405280929190818152602001828054610df990612aff565b8015610e465780601f10610e1b57610100808354040283529160200191610e46565b820191906000526020600020905b815481529060010190602001808311610e2957829003601f168201915b50505050508152602001600682018054610e5f90612aff565b80601f0160208091040260200160405190810160405280929190818152602001828054610e8b90612aff565b8015610ed85780601f10610ead57610100808354040283529160200191610ed8565b820191906000526020600020905b815481529060010190602001808311610ebb57829003601f168201915b50505050508152602001600782018054610ef190612aff565b80601f0160208091040260200160405190810160405280929190818152602001828054610f1d90612aff565b8015610f6a5780601f10610f3f57610100808354040283529160200191610f6a565b820191906000526020600020905b815481529060010190602001808311610f4d57829003601f168201915b5050505050815250509050919050565b600660009054906101000a900473ffffffffffffffffffffffffffffffffffffffff1681565b60075481565b606060018054610fb590612aff565b80601f0160208091040260200160405190810160405280929190818152602001828054610fe190612aff565b801561102e5780601f106110035761010080835404028352916020019161102e565b820191906000526020600020905b81548152906001019060200180831161101157829003601f168201915b5050505050905090565b600660009054906101000a900473ffffffffffffffffffffffffffffffffffffffff1673ffffffffffffffffffffffffffffffffffffffff163373ffffffffffffffffffffffffffffffffffffffff161461109257600080fd5b600760008154809291906110a590612b93565b919050555060405180610100016040528060075481526020018781526020018681526020018581526020018581526020018481526020018381526020018281525060096000600754815260200190815260200160002060008201518160000155602082015181600101908161111a9190612e04565b5060408201518160020155606082015181600301556080820151816004015560a082015181600501908161114e9190612e04565b5060c08201518160060190816111649190612e04565b5060e082015181600701908161117a9190612e04565b50905050505050505050565b600a6020528160005260406000206020528060005260406000206000915091509054906101000a900460ff1681565b6111c76111c0611456565b83836116a8565b5050565b600b6020528160005260406000206020528060005260406000206000915091509054906101000a900473ffffffffffffffffffffffffffffffffffffffff1681565b6112188484846109f9565b61122484848484611817565b50505050565b606061123582611391565b5060006112406119ce565b90506000815111611260576040518060200160405280600081525061128b565b8061126a846119e5565b60405160200161127b929190612f12565b6040516020818303038152906040525b915050919050565b6000600560008473ffffffffffffffffffffffffffffffffffffffff1673ffffffffffffffffffffffffffffffffffffffff16815260200190815260200160002060008373ffffffffffffffffffffffffffffffffffffffff1673ffffffffffffffffffffffffffffffffffffffff16815260200190815260200160002060009054906101000a900460ff16905092915050565b60007f01ffc9a7000000000000000000000000000000000000000000000000000000007bffffffffffffffffffffffffffffffffffffffffffffffffffffffff1916827bffffffffffffffffffffffffffffffffffffffffffffffffffffffff1916149050919050565b60008061139d83611ab3565b9050600073ffffffffffffffffffffffffffffffffffffffff168173ffffffffffffffffffffffffffffffffffffffff160361141057826040517f7e2732890000000000000000000000000000000000000000000000000000000081526004016114079190612482565b60405180910390fd5b80915050919050565b60006004600083815260200190815260200160002060009054906101000a900473ffffffffffffffffffffffffffffffffffffffff169050919050565b600033905090565b61146b8383836001611af0565b505050565b61148a828260405180602001604052806000815250611cb5565b5050565b60008061149a84611ab3565b9050600073ffffffffffffffffffffffffffffffffffffffff168373ffffffffffffffffffffffffffffffffffffffff16146114dc576114db818486611cd1565b5b600073ffffffffffffffffffffffffffffffffffffffff168173ffffffffffffffffffffffffffffffffffffffff161461156d5761151e600085600080611af0565b6001600360008373ffffffffffffffffffffffffffffffffffffffff1673ffffffffffffffffffffffffffffffffffffffff168152602001908152602001600020600082825403925050819055505b600073ffffffffffffffffffffffffffffffffffffffff168573ffffffffffffffffffffffffffffffffffffffff16146115f0576001600360008773ffffffffffffffffffffffffffffffffffffffff1673ffffffffffffffffffffffffffffffffffffffff168152602001908152602001600020600082825401925050819055505b846002600086815260200190815260200160002060006101000a81548173ffffffffffffffffffffffffffffffffffffffff021916908373ffffffffffffffffffffffffffffffffffffffff160217905550838573ffffffffffffffffffffffffffffffffffffffff168273ffffffffffffffffffffffffffffffffffffffff167fddf252ad1be2c89b69c2b068fc378daa952ba7f163c4a11628f55a4df523b3ef60405160405180910390a4809150509392505050565b600073ffffffffffffffffffffffffffffffffffffffff168273ffffffffffffffffffffffffffffffffffffffff160361171957816040517f5b08ba18000000000000000000000000000000000000000000000000000000008152600401611710919061230c565b60405180910390fd5b80600560008573ffffffffffffffffffffffffffffffffffffffff1673ffffffffffffffffffffffffffffffffffffffff16815260200190815260200160002060008473ffffffffffffffffffffffffffffffffffffffff1673ffffffffffffffffffffffffffffffffffffffff16815260200190815260200160002060006101000a81548160ff0219169083151502179055508173ffffffffffffffffffffffffffffffffffffffff168373ffffffffffffffffffffffffffffffffffffffff167f17307eab39ab6107e8899845ad3d59bd9653f200f220920489ca2b5937696c318360405161180a919061219b565b60405180910390a3505050565b60008373ffffffffffffffffffffffffffffffffffffffff163b11156119c8578273ffffffffffffffffffffffffffffffffffffffff1663150b7a0261185b611456565b8685856040518563ffffffff1660e01b815260040161187d9493929190612f8b565b6020604051808303816000875af19250505080156118b957506040513d601f19601f820116820180604052508101906118b69190612fec565b60015b61193d573d80600081146118e9576040519150601f19603f3d011682016040523d82523d6000602084013e6118ee565b606091505b50600081510361193557836040517f64a0ae9200000000000000000000000000000000000000000000000000000000815260040161192c919061230c565b60405180910390fd5b805181602001fd5b63150b7a0260e01b7bffffffffffffffffffffffffffffffffffffffffffffffffffffffff1916817bffffffffffffffffffffffffffffffffffffffffffffffffffffffff1916146119c657836040517f64a0ae920000000000000000000000000000000000000000000000000000000081526004016119bd919061230c565b60405180910390fd5b505b50505050565b606060405180602001604052806000815250905090565b6060600060016119f484611d95565b01905060008167ffffffffffffffff811115611a1357611a12612698565b5b6040519080825280601f01601f191660200182016040528015611a455781602001600182028036833780820191505090505b509050600082602001820190505b600115611aa8578080600190039150507f3031323334353637383961626364656600000000000000000000000000000000600a86061a8153600a8581611a9c57611a9b613019565b5b04945060008503611a53575b819350505050919050565b60006002600083815260200190815260200160002060009054906101000a900473ffffffffffffffffffffffffffffffffffffffff169050919050565b8080611b295750600073ffffffffffffffffffffffffffffffffffffffff168273ffffffffffffffffffffffffffffffffffffffff1614155b15611c5d576000611b3984611391565b9050600073ffffffffffffffffffffffffffffffffffffffff168373ffffffffffffffffffffffffffffffffffffffff1614158015611ba457508273ffffffffffffffffffffffffffffffffffffffff168173ffffffffffffffffffffffffffffffffffffffff1614155b8015611bb75750611bb58184611293565b155b15611bf957826040517fa9fbf51f000000000000000000000000000000000000000000000000000000008152600401611bf0919061230c565b60405180910390fd5b8115611c5b57838573ffffffffffffffffffffffffffffffffffffffff168273ffffffffffffffffffffffffffffffffffffffff167f8c5be1e5ebec7d5bd14f71427d1e84f3dd0314c0f7b2291e5b200ac8c7c3b92560405160405180910390a45b505b836004600085815260200190815260200160002060006101000a81548173ffffffffffffffffffffffffffffffffffffffff021916908373ffffffffffffffffffffffffffffffffffffffff16021790555050505050565b611cbf8383611ee8565b611ccc6000848484611817565b505050565b611cdc838383611fe1565b611d9057600073ffffffffffffffffffffffffffffffffffffffff168373ffffffffffffffffffffffffffffffffffffffff1603611d5157806040517f7e273289000000000000000000000000000000000000000000000000000000008152600401611d489190612482565b60405180910390fd5b81816040517f177e802f000000000000000000000000000000000000000000000000000000008152600401611d87929190613048565b60405180910390fd5b505050565b600080600090507a184f03e93ff9f4daa797ed6e38ed64bf6a1f0100000000000000008310611df3577a184f03e93ff9f4daa797ed6e38ed64bf6a1f0100000000000000008381611de957611de8613019565b5b0492506040810190505b6d04ee2d6d415b85acef81000000008310611e30576d04ee2d6d415b85acef81000000008381611e2657611e25613019565b5b0492506020810190505b662386f26fc100008310611e5f57662386f26fc100008381611e5557611e54613019565b5b0492506010810190505b6305f5e1008310611e88576305f5e1008381611e7e57611e7d613019565b5b0492506008810190505b6127108310611ead576127108381611ea357611ea2613019565b5b0492506004810190505b60648310611ed05760648381611ec657611ec5613019565b5b0492506002810190505b600a8310611edf576001810190505b80915050919050565b600073ffffffffffffffffffffffffffffffffffffffff168273ffffffffffffffffffffffffffffffffffffffff1603611f5a5760006040517f64a0ae92000000000000000000000000000000000000000000000000000000008152600401611f51919061230c565b60405180910390fd5b6000611f688383600061148e565b9050600073ffffffffffffffffffffffffffffffffffffffff168173ffffffffffffffffffffffffffffffffffffffff1614611fdc5760006040517f73c6ac6e000000000000000000000000000000000000000000000000000000008152600401611fd3919061230c565b60405180910390fd5b505050565b60008073ffffffffffffffffffffffffffffffffffffffff168373ffffffffffffffffffffffffffffffffffffffff161415801561209957508273ffffffffffffffffffffffffffffffffffffffff168473ffffffffffffffffffffffffffffffffffffffff16148061205a57506120598484611293565b5b8061209857508273ffffffffffffffffffffffffffffffffffffffff1661208083611419565b73ffffffffffffffffffffffffffffffffffffffff16145b5b90509392505050565b60405180610100016040528060008152602001606081526020016000815260200160008152602001600081526020016060815260200160608152602001606081525090565b6000604051905090565b600080fd5b600080fd5b60007fffffffff0000000000000000000000000000000000000000000000000000000082169050919050565b612130816120fb565b811461213b57600080fd5b50565b60008135905061214d81612127565b92915050565b600060208284031215612169576121686120f1565b5b60006121778482850161213e565b91505092915050565b60008115159050919050565b61219581612180565b82525050565b60006020820190506121b0600083018461218c565b92915050565b600081519050919050565b600082825260208201905092915050565b60005b838110156121f05780820151818401526020810190506121d5565b60008484015250505050565b6000601f19601f8301169050919050565b6000612218826121b6565b61222281856121c1565b93506122328185602086016121d2565b61223b816121fc565b840191505092915050565b60006020820190508181036000830152612260818461220d565b905092915050565b6000819050919050565b61227b81612268565b811461228657600080fd5b50565b60008135905061229881612272565b92915050565b6000602082840312156122b4576122b36120f1565b5b60006122c284828501612289565b91505092915050565b600073ffffffffffffffffffffffffffffffffffffffff82169050919050565b60006122f6826122cb565b9050919050565b612306816122eb565b82525050565b600060208201905061232160008301846122fd565b92915050565b612330816122eb565b811461233b57600080fd5b50565b60008135905061234d81612327565b92915050565b6000806040838503121561236a576123696120f1565b5b60006123788582860161233e565b925050602061238985828601612289565b9150509250929050565b600081519050919050565b600082825260208201905092915050565b6000819050602082019050919050565b6123c881612268565b82525050565b60006123da83836123bf565b60208301905092915050565b6000602082019050919050565b60006123fe82612393565b612408818561239e565b9350612413836123af565b8060005b8381101561244457815161242b88826123ce565b9750612436836123e6565b925050600181019050612417565b5085935050505092915050565b6000602082019050818103600083015261246b81846123f3565b905092915050565b61247c81612268565b82525050565b60006020820190506124976000830184612473565b92915050565b600080604083850312156124b4576124b36120f1565b5b60006124c285828601612289565b92505060206124d385828601612289565b9150509250929050565b6000806000606084860312156124f6576124f56120f1565b5b60006125048682870161233e565b93505060206125158682870161233e565b925050604061252686828701612289565b9150509250925092565b600060208284031215612546576125456120f1565b5b60006125548482850161233e565b91505092915050565b600082825260208201905092915050565b6000612579826121b6565b612583818561255d565b93506125938185602086016121d2565b61259c816121fc565b840191505092915050565b6000610100830160008301516125c060008601826123bf565b50602083015184820360208601526125d8828261256e565b91505060408301516125ed60408601826123bf565b50606083015161260060608601826123bf565b50608083015161261360808601826123bf565b5060a083015184820360a086015261262b828261256e565b91505060c083015184820360c0860152612645828261256e565b91505060e083015184820360e086015261265f828261256e565b9150508091505092915050565b6000602082019050818103600083015261268681846125a7565b905092915050565b600080fd5b600080fd5b7f4e487b7100000000000000000000000000000000000000000000000000000000600052604160045260246000fd5b6126d0826121fc565b810181811067ffffffffffffffff821117156126ef576126ee612698565b5b80604052505050565b60006127026120e7565b905061270e82826126c7565b919050565b600067ffffffffffffffff82111561272e5761272d612698565b5b612737826121fc565b9050602081019050919050565b82818337600083830152505050565b600061276661276184612713565b6126f8565b90508281526020810184848401111561278257612781612693565b5b61278d848285612744565b509392505050565b600082601f8301126127aa576127a961268e565b5b81356127ba848260208601612753565b91505092915050565b60008060008060008060c087890312156127e0576127df6120f1565b5b600087013567ffffffffffffffff8111156127fe576127fd6120f6565b5b61280a89828a01612795565b965050602061281b89828a01612289565b955050604061282c89828a01612289565b945050606087013567ffffffffffffffff81111561284d5761284c6120f6565b5b61285989828a01612795565b935050608087013567ffffffffffffffff81111561287a576128796120f6565b5b61288689828a01612795565b92505060a087013567ffffffffffffffff8111156128a7576128a66120f6565b5b6128b389828a01612795565b9150509295509295509295565b600080604083850312156128d7576128d66120f1565b5b60006128e585828601612289565b92505060206128f68582860161233e565b9150509250929050565b61290981612180565b811461291457600080fd5b50565b60008135905061292681612900565b92915050565b60008060408385031215612943576129426120f1565b5b60006129518582860161233e565b925050602061296285828601612917565b9150509250929050565b600067ffffffffffffffff82111561298757612986612698565b5b612990826121fc565b9050602081019050919050565b60006129b06129ab8461296c565b6126f8565b9050828152602081018484840111156129cc576129cb612693565b5b6129d7848285612744565b509392505050565b600082601f8301126129f4576129f361268e565b5b8135612a0484826020860161299d565b91505092915050565b60008060008060808587031215612a2757612a266120f1565b5b6000612a358782880161233e565b9450506020612a468782880161233e565b9350506040612a5787828801612289565b925050606085013567ffffffffffffffff811115612a7857612a776120f6565b5b612a84878288016129df565b91505092959194509250565b60008060408385031215612aa757612aa66120f1565b5b6000612ab58582860161233e565b9250506020612ac68582860161233e565b9150509250929050565b7f4e487b7100000000000000000000000000000000000000000000000000000000600052602260045260246000fd5b60006002820490506001821680612b1757607f821691505b602082108103612b2a57612b29612ad0565b5b50919050565b7f4e487b7100000000000000000000000000000000000000000000000000000000600052601160045260246000fd5b6000612b6a82612268565b9150612b7583612268565b9250828203905081811115612b8d57612b8c612b30565b5b92915050565b6000612b9e82612268565b91507fffffffffffffffffffffffffffffffffffffffffffffffffffffffffffffffff8203612bd057612bcf612b30565b5b600182019050919050565b6000606082019050612bf060008301866122fd565b612bfd6020830185612473565b612c0a60408301846122fd565b949350505050565b600081905092915050565b50565b6000612c2d600083612c12565b9150612c3882612c1d565b600082019050919050565b6000612c4e82612c20565b9150819050919050565b60008190508160005260206000209050919050565b60006020601f8301049050919050565b600082821b905092915050565b600060088302612cba7fffffffffffffffffffffffffffffffffffffffffffffffffffffffffffffffff82612c7d565b612cc48683612c7d565b95508019841693508086168417925050509392505050565b6000819050919050565b6000612d01612cfc612cf784612268565b612cdc565b612268565b9050919050565b6000819050919050565b612d1b83612ce6565b612d2f612d2782612d08565b848454612c8a565b825550505050565b600090565b612d44612d37565b612d4f818484612d12565b505050565b5b81811015612d7357612d68600082612d3c565b600181019050612d55565b5050565b601f821115612db857612d8981612c58565b612d9284612c6d565b81016020851015612da1578190505b612db5612dad85612c6d565b830182612d54565b50505b505050565b600082821c905092915050565b6000612ddb60001984600802612dbd565b1980831691505092915050565b6000612df48383612dca565b9150826002028217905092915050565b612e0d826121b6565b67ffffffffffffffff811115612e2657612e25612698565b5b612e308254612aff565b612e3b828285612d77565b600060209050601f831160018114612e6e5760008415612e5c578287015190505b612e668582612de8565b865550612ece565b601f198416612e7c86612c58565b60005b82811015612ea457848901518255600182019150602085019450602081019050612e7f565b86831015612ec15784890151612ebd601f891682612dca565b8355505b6001600288020188555050505b505050505050565b600081905092915050565b6000612eec826121b6565b612ef68185612ed6565b9350612f068185602086016121d2565b80840191505092915050565b6000612f1e8285612ee1565b9150612f2a8284612ee1565b91508190509392505050565b600081519050919050565b600082825260208201905092915050565b6000612f5d82612f36565b612f678185612f41565b9350612f778185602086016121d2565b612f80816121fc565b840191505092915050565b6000608082019050612fa060008301876122fd565b612fad60208301866122fd565b612fba6040830185612473565b8181036060830152612fcc8184612f52565b905095945050505050565b600081519050612fe681612127565b92915050565b600060208284031215613002576130016120f1565b5b600061301084828501612fd7565b91505092915050565b7f4e487b7100000000000000000000000000000000000000000000000000000000600052601260045260246000fd5b600060408201905061305d60008301856122fd565b61306a6020830184612473565b939250505056fea26469706673582212205e64f3e555c058727e865d862bbb407c6d96ad648acb1a5d5be4fbb6c6be936564736f6c63430008140033",
  "immutableReferences": {},
  "source": "// SPDX-License-Identifier: MIT\npragma solidity ^0.8.20;\n\nimport \"@openzeppelin/contracts/token/ERC721/ERC721.sol\";\n\ncontract TokenMaster is ERC721 {\n    address public owner;\n    uint256 public totalOccasions;\n    uint256 public totalSupply;\n\n    struct Occasion {\n        uint256 id;\n        string name;\n        uint256 cost;\n        uint256 tickets;\n        uint256 maxTickets;\n        string date;\n        string time;\n        string location;\n    }\n\n    mapping(uint256 => Occasion) occasions;\n    mapping(uint256 => mapping(address => bool)) public hasBought;\n    mapping(uint256 => mapping(uint256 => address)) public seatTaken;\n    mapping(uint256 => uint256[]) seatsTaken;\n\n    modifier onlyOwner() {\n        require(msg.sender == owner);\n        _;\n    }\n\n    constructor() ERC721(\"Shadi\", \"SHD\") {\n        owner = msg.sender;\n    }\n\n    function list(\n        string memory _name,\n        uint256 _cost,\n        uint256 _maxTickets,\n        string memory _date,\n        string memory _time,\n        string memory _location\n    ) public onlyOwner {\n        totalOccasions++;\n        occasions[totalOccasions] = Occasion(\n            totalOccasions,\n            _name,\n            _cost,\n            _maxTickets,\n            _maxTickets,\n            _date,\n            _time,\n            _location\n        );\n    }\n\n    function mint(uint256 _id, uint256 _seat) public payable {\n        // Require that _id is not 0 or less than total occasions...\n        require(_id != 0);\n        require(_id <= totalOccasions);\n\n        // Require that ETH sent is greater than cost...\n        require(msg.value >= occasions[_id].cost);\n\n        // Require that the seat is not taken, and the seat exists...\n        require(seatTaken[_id][_seat] == address(0));\n        require(_seat <= occasions[_id].maxTickets);\n\n        occasions[_id].tickets -= 1; // <-- Update ticket count\n\n        hasBought[_id][msg.sender] = true; // <-- Update buying status\n        seatTaken[_id][_seat] = msg.sender; // <-- Assign seat\n\n        seatsTaken[_id].push(_seat); // <-- Update seats currently taken\n\n        totalSupply++;\n\n        _safeMint(msg.sender, totalSupply);\n    }\n\n    function getOccasion(uint256 _id) public view returns (Occasion memory) {\n        return occasions[_id];\n    }\n\n    function getSeatsTaken(uint256 _id) public view returns (uint256[] memory) {\n        return seatsTaken[_id];\n    }\n\n    function withdraw() public onlyOwner {\n        (bool success, ) = owner.call{value: address(this).balance}(\"\");\n        require(success);\n    }\n}\n",
  "sourcePath": "C:\\Users\\farid\\Desktop\\CertifiedBlockchainTruffle\\truffle\\contracts\\TokenMaster.sol",
  "compiler": {
    "name": "solc",
    "version": "0.8.20+commit.a1b79de6.Emscripten.clang"
  },
  "schemaVersion": "3.4.16",
  "updatedAt": "2024-04-25T06:59:30.956Z",
  "devdoc": {
    "errors": {
      "ERC721IncorrectOwner(address,uint256,address)": [
        {
          "details": "Indicates an error related to the ownership over a particular token. Used in transfers.",
          "params": {
            "owner": "Address of the current owner of a token.",
            "sender": "Address whose tokens are being transferred.",
            "tokenId": "Identifier number of a token."
          }
        }
      ],
      "ERC721InsufficientApproval(address,uint256)": [
        {
          "details": "Indicates a failure with the `operator`s approval. Used in transfers.",
          "params": {
            "operator": "Address that may be allowed to operate on tokens without being their owner.",
            "tokenId": "Identifier number of a token."
          }
        }
      ],
      "ERC721InvalidApprover(address)": [
        {
          "details": "Indicates a failure with the `approver` of a token to be approved. Used in approvals.",
          "params": {
            "approver": "Address initiating an approval operation."
          }
        }
      ],
      "ERC721InvalidOperator(address)": [
        {
          "details": "Indicates a failure with the `operator` to be approved. Used in approvals.",
          "params": {
            "operator": "Address that may be allowed to operate on tokens without being their owner."
          }
        }
      ],
      "ERC721InvalidOwner(address)": [
        {
          "details": "Indicates that an address can't be an owner. For example, `address(0)` is a forbidden owner in EIP-20. Used in balance queries.",
          "params": {
            "owner": "Address of the current owner of a token."
          }
        }
      ],
      "ERC721InvalidReceiver(address)": [
        {
          "details": "Indicates a failure with the token `receiver`. Used in transfers.",
          "params": {
            "receiver": "Address to which tokens are being transferred."
          }
        }
      ],
      "ERC721InvalidSender(address)": [
        {
          "details": "Indicates a failure with the token `sender`. Used in transfers.",
          "params": {
            "sender": "Address whose tokens are being transferred."
          }
        }
      ],
      "ERC721NonexistentToken(uint256)": [
        {
          "details": "Indicates a `tokenId` whose `owner` is the zero address.",
          "params": {
            "tokenId": "Identifier number of a token."
          }
        }
      ]
    },
    "events": {
      "Approval(address,address,uint256)": {
        "details": "Emitted when `owner` enables `approved` to manage the `tokenId` token."
      },
      "ApprovalForAll(address,address,bool)": {
        "details": "Emitted when `owner` enables or disables (`approved`) `operator` to manage all of its assets."
      },
      "Transfer(address,address,uint256)": {
        "details": "Emitted when `tokenId` token is transferred from `from` to `to`."
      }
    },
    "kind": "dev",
    "methods": {
      "approve(address,uint256)": {
        "details": "See {IERC721-approve}."
      },
      "balanceOf(address)": {
        "details": "See {IERC721-balanceOf}."
      },
      "getApproved(uint256)": {
        "details": "See {IERC721-getApproved}."
      },
      "isApprovedForAll(address,address)": {
        "details": "See {IERC721-isApprovedForAll}."
      },
      "name()": {
        "details": "See {IERC721Metadata-name}."
      },
      "ownerOf(uint256)": {
        "details": "See {IERC721-ownerOf}."
      },
      "safeTransferFrom(address,address,uint256)": {
        "details": "See {IERC721-safeTransferFrom}."
      },
      "safeTransferFrom(address,address,uint256,bytes)": {
        "details": "See {IERC721-safeTransferFrom}."
      },
      "setApprovalForAll(address,bool)": {
        "details": "See {IERC721-setApprovalForAll}."
      },
      "supportsInterface(bytes4)": {
        "details": "See {IERC165-supportsInterface}."
      },
      "symbol()": {
        "details": "See {IERC721Metadata-symbol}."
      },
      "tokenURI(uint256)": {
        "details": "See {IERC721Metadata-tokenURI}."
      },
      "transferFrom(address,address,uint256)": {
        "details": "See {IERC721-transferFrom}."
      }
    },
    "version": 1
  },
  "userdoc": {
    "kind": "user",
    "methods": {},
    "version": 1
  }
}