{
  "contractName": "VotingContract",
  "abi": [
    {
      "inputs": [
        {
          "internalType": "address[]",
          "name": "FirstCandidates",
          "type": "address[]"
        }
      ],
      "stateMutability": "nonpayable",
      "type": "constructor"
    },
    {
      "inputs": [
        {
          "internalType": "uint256",
          "name": "",
          "type": "uint256"
        }
      ],
      "name": "Candidates",
      "outputs": [
        {
          "internalType": "address",
          "name": "",
          "type": "address"
        }
      ],
      "stateMutability": "view",
      "type": "function"
    },
    {
      "inputs": [],
      "name": "numberOfCandidates",
      "outputs": [
        {
          "internalType": "uint256",
          "name": "",
          "type": "uint256"
        }
      ],
      "stateMutability": "view",
      "type": "function"
    },
    {
      "inputs": [
        {
          "internalType": "address",
          "name": "",
          "type": "address"
        }
      ],
      "name": "votes",
      "outputs": [
        {
          "internalType": "uint256",
          "name": "",
          "type": "uint256"
        }
      ],
      "stateMutability": "view",
      "type": "function"
    },
    {
      "inputs": [
        {
          "internalType": "address",
          "name": "Candidate",
          "type": "address"
        }
      ],
      "name": "addCandidate",
      "outputs": [],
      "stateMutability": "payable",
      "type": "function"
    },
    {
      "inputs": [
        {
          "internalType": "address",
          "name": "Candidate",
          "type": "address"
        }
      ],
      "name": "voteForCandidate",
      "outputs": [],
      "stateMutability": "payable",
      "type": "function"
    },
    {
      "inputs": [
        {
          "internalType": "address",
          "name": "Candidate",
          "type": "address"
        }
      ],
      "name": "CandidateExists",
      "outputs": [
        {
          "internalType": "bool",
          "name": "",
          "type": "bool"
        }
      ],
      "stateMutability": "view",
      "type": "function"
    },
    {
      "inputs": [
        {
          "internalType": "address",
          "name": "Voter",
          "type": "address"
        }
      ],
      "name": "HasVoted",
      "outputs": [
        {
          "internalType": "bool",
          "name": "",
          "type": "bool"
        }
      ],
      "stateMutability": "view",
      "type": "function"
    },
    {
      "inputs": [
        {
          "internalType": "address",
          "name": "Candidate",
          "type": "address"
        }
      ],
      "name": "VotesForCandidate",
      "outputs": [
        {
          "internalType": "uint256",
          "name": "",
          "type": "uint256"
        }
      ],
      "stateMutability": "view",
      "type": "function"
    }
  ],
  "bytecode": "0x60806040523480156200001157600080fd5b5060405162000c1238038062000c128339818101604052810190620000379190620002ea565b60005b8151811015620000f45760028282815181106200005c576200005b6200033b565b5b60200260200101519080600181540180825580915050600190039060005260206000200160009091909190916101000a81548173ffffffffffffffffffffffffffffffffffffffff021916908373ffffffffffffffffffffffffffffffffffffffff16021790555060036000815480929190620000d990620003a3565b91905055508080620000eb90620003a3565b9150506200003a565b5050620003f0565b6000604051905090565b600080fd5b600080fd5b600080fd5b6000601f19601f8301169050919050565b7f4e487b7100000000000000000000000000000000000000000000000000000000600052604160045260246000fd5b620001608262000115565b810181811067ffffffffffffffff8211171562000182576200018162000126565b5b80604052505050565b600062000197620000fc565b9050620001a5828262000155565b919050565b600067ffffffffffffffff821115620001c857620001c762000126565b5b602082029050602081019050919050565b600080fd5b600073ffffffffffffffffffffffffffffffffffffffff82169050919050565b60006200020b82620001de565b9050919050565b6200021d81620001fe565b81146200022957600080fd5b50565b6000815190506200023d8162000212565b92915050565b60006200025a6200025484620001aa565b6200018b565b9050808382526020820190506020840283018581111562000280576200027f620001d9565b5b835b81811015620002ad57806200029888826200022c565b84526020840193505060208101905062000282565b5050509392505050565b600082601f830112620002cf57620002ce62000110565b5b8151620002e184826020860162000243565b91505092915050565b60006020828403121562000303576200030262000106565b5b600082015167ffffffffffffffff8111156200032457620003236200010b565b5b6200033284828501620002b7565b91505092915050565b7f4e487b7100000000000000000000000000000000000000000000000000000000600052603260045260246000fd5b7f4e487b7100000000000000000000000000000000000000000000000000000000600052601160045260246000fd5b6000819050919050565b6000620003b08262000399565b91507fffffffffffffffffffffffffffffffffffffffffffffffffffffffffffffffff8203620003e557620003e46200036a565b5b600182019050919050565b61081280620004006000396000f3fe60806040526004361061007b5760003560e01c80639c84bb271161004e5780639c84bb2714610132578063a99441e51461015d578063d8bff5a51461019a578063f27464ed146101d75761007b565b8063163046eb14610080578063290e92121461009c5780633acd75f8146100d9578063765fb463146100f5575b600080fd5b61009a600480360381019061009591906105e8565b610214565b005b3480156100a857600080fd5b506100c360048036038101906100be919061064b565b6102f5565b6040516100d09190610687565b60405180910390f35b6100f360048036038101906100ee91906105e8565b610334565b005b34801561010157600080fd5b5061011c600480360381019061011791906105e8565b6103c5565b60405161012991906106b1565b60405180910390f35b34801561013e57600080fd5b5061014761040e565b60405161015491906106b1565b60405180910390f35b34801561016957600080fd5b50610184600480360381019061017f91906105e8565b610414565b60405161019191906106e7565b60405180910390f35b3480156101a657600080fd5b506101c160048036038101906101bc91906105e8565b6104bf565b6040516101ce91906106b1565b60405180910390f35b3480156101e357600080fd5b506101fe60048036038101906101f991906105e8565b6104d7565b60405161020b91906106e7565b60405180910390f35b61021d81610414565b61022657600080fd5b61022f336104d7565b1561023957600080fd5b60018060008373ffffffffffffffffffffffffffffffffffffffff1673ffffffffffffffffffffffffffffffffffffffff16815260200190815260200160002060008282546102889190610731565b925050819055506000339080600181540180825580915050600190039060005260206000200160009091909190916101000a81548173ffffffffffffffffffffffffffffffffffffffff021916908373ffffffffffffffffffffffffffffffffffffffff16021790555050565b6002818154811061030557600080fd5b906000526020600020016000915054906101000a900473ffffffffffffffffffffffffffffffffffffffff1681565b61033d81610414565b1561034757600080fd5b6002819080600181540180825580915050600190039060005260206000200160009091909190916101000a81548173ffffffffffffffffffffffffffffffffffffffff021916908373ffffffffffffffffffffffffffffffffffffffff160217905550600360008154809291906103bd90610765565b919050555050565b6000600160008373ffffffffffffffffffffffffffffffffffffffff1673ffffffffffffffffffffffffffffffffffffffff168152602001908152602001600020549050919050565b60035481565b600080600090505b6003548110156104b4578273ffffffffffffffffffffffffffffffffffffffff1660028281548110610451576104506107ad565b5b9060005260206000200160009054906101000a900473ffffffffffffffffffffffffffffffffffffffff1673ffffffffffffffffffffffffffffffffffffffff16036104a15760019150506104ba565b80806104ac90610765565b91505061041c565b50600090505b919050565b60016020528060005260406000206000915090505481565b600080600090505b60008054905081101561057a578273ffffffffffffffffffffffffffffffffffffffff1660008281548110610517576105166107ad565b5b9060005260206000200160009054906101000a900473ffffffffffffffffffffffffffffffffffffffff1673ffffffffffffffffffffffffffffffffffffffff1603610567576001915050610580565b808061057290610765565b9150506104df565b50600090505b919050565b600080fd5b600073ffffffffffffffffffffffffffffffffffffffff82169050919050565b60006105b58261058a565b9050919050565b6105c5816105aa565b81146105d057600080fd5b50565b6000813590506105e2816105bc565b92915050565b6000602082840312156105fe576105fd610585565b5b600061060c848285016105d3565b91505092915050565b6000819050919050565b61062881610615565b811461063357600080fd5b50565b6000813590506106458161061f565b92915050565b60006020828403121561066157610660610585565b5b600061066f84828501610636565b91505092915050565b610681816105aa565b82525050565b600060208201905061069c6000830184610678565b92915050565b6106ab81610615565b82525050565b60006020820190506106c660008301846106a2565b92915050565b60008115159050919050565b6106e1816106cc565b82525050565b60006020820190506106fc60008301846106d8565b92915050565b7f4e487b7100000000000000000000000000000000000000000000000000000000600052601160045260246000fd5b600061073c82610615565b915061074783610615565b925082820190508082111561075f5761075e610702565b5b92915050565b600061077082610615565b91507fffffffffffffffffffffffffffffffffffffffffffffffffffffffffffffffff82036107a2576107a1610702565b5b600182019050919050565b7f4e487b7100000000000000000000000000000000000000000000000000000000600052603260045260246000fdfea2646970667358221220eae23164611b4fc1d6ec482948ae031c56a6446ac6cc1d5330d5a94338d6ec6e64736f6c63430008140033",
  "immutableReferences": {},
  "source": "// SPDX-License-Identifier: MIT\r\npragma solidity ^0.8.20;\r\n\r\ncontract VotingContract {\r\n    //uint public PriceToAdd;\r\n    //uint public PriceToVote;\r\n\r\n    address[] Voters;\r\n    mapping(address => uint) public votes;\r\n\r\n    address[] public Candidates;\r\n    uint public numberOfCandidates;\r\n\r\n    constructor(address[] memory FirstCandidates) {\r\n        for (uint i = 0; i < FirstCandidates.length; i++) {\r\n            Candidates.push(FirstCandidates[i]);\r\n            numberOfCandidates++;\r\n        }\r\n        //PriceToAdd = priceToAdd;\r\n        //PriceToVote = priceToVote;\r\n    }\r\n\r\n    function addCandidate(address Candidate) public payable {\r\n        require(!CandidateExists(Candidate));\r\n        // require(msg.value == PriceToAdd);\r\n        Candidates.push(Candidate);\r\n        numberOfCandidates++;\r\n    }\r\n\r\n    function voteForCandidate(address Candidate) public payable {\r\n        // require(msg.value == PriceToVote);\r\n        require(CandidateExists(Candidate));\r\n        require(!HasVoted(msg.sender));\r\n        votes[Candidate] += 1;\r\n        Voters.push(msg.sender);\r\n    }\r\n\r\n    function CandidateExists(address Candidate) public view returns (bool) {\r\n        for (uint i = 0; i < numberOfCandidates; i++) {\r\n            if (Candidates[i] == Candidate) {\r\n                return true;\r\n            }\r\n        }\r\n        return false;\r\n    }\r\n\r\n    function HasVoted(address Voter) public view returns (bool) {\r\n        for (uint i = 0; i < Voters.length; i++) {\r\n            if (Voters[i] == Voter) {\r\n                return true;\r\n            }\r\n        }\r\n        return false;\r\n    }\r\n\r\n    function VotesForCandidate(address Candidate) public view returns (uint) {\r\n        return votes[Candidate];\r\n    }\r\n}\r\n",
  "sourcePath": "C:\\Users\\farid\\Desktop\\CertifiedBlockchainTruffle\\truffle\\contracts\\votingContract.sol",
  "compiler": {
    "name": "solc",
    "version": "0.8.20+commit.a1b79de6.Emscripten.clang"
  },
  "schemaVersion": "3.4.16",
  "updatedAt": "2024-04-25T06:59:30.987Z",
  "devdoc": {
    "kind": "dev",
    "methods": {},
    "version": 1
  },
  "userdoc": {
    "kind": "user",
    "methods": {},
    "version": 1
  }
}