{
  "contractName": "WeightedVoting",
  "abi": [
    {
      "inputs": [
        {
          "internalType": "string",
          "name": "_candidate1",
          "type": "string"
        },
        {
          "internalType": "string",
          "name": "_candidate2",
          "type": "string"
        },
        {
          "internalType": "string",
          "name": "_candidate3",
          "type": "string"
        }
      ],
      "stateMutability": "nonpayable",
      "type": "constructor"
    },
    {
      "inputs": [
        {
          "internalType": "uint256",
          "name": "",
          "type": "uint256"
        }
      ],
      "name": "candidatesList",
      "outputs": [
        {
          "internalType": "string",
          "name": "name",
          "type": "string"
        },
        {
          "internalType": "uint256",
          "name": "voteCount",
          "type": "uint256"
        }
      ],
      "stateMutability": "view",
      "type": "function"
    },
    {
      "inputs": [],
      "name": "owner",
      "outputs": [
        {
          "internalType": "address",
          "name": "",
          "type": "address"
        }
      ],
      "stateMutability": "view",
      "type": "function"
    },
    {
      "inputs": [
        {
          "internalType": "address",
          "name": "_address",
          "type": "address"
        },
        {
          "internalType": "uint256",
          "name": "_weight",
          "type": "uint256"
        }
      ],
      "name": "authorizeVoter",
      "outputs": [],
      "stateMutability": "nonpayable",
      "type": "function"
    },
    {
      "inputs": [
        {
          "internalType": "uint256",
          "name": "_index",
          "type": "uint256"
        }
      ],
      "name": "voteForCandidate",
      "outputs": [],
      "stateMutability": "nonpayable",
      "type": "function"
    },
    {
      "inputs": [
        {
          "internalType": "uint256",
          "name": "_index",
          "type": "uint256"
        }
      ],
      "name": "getVoteForCandidate",
      "outputs": [
        {
          "internalType": "uint256",
          "name": "",
          "type": "uint256"
        }
      ],
      "stateMutability": "view",
      "type": "function"
    },
    {
      "inputs": [],
      "name": "isAuthorizedVoter",
      "outputs": [
        {
          "internalType": "uint256",
          "name": "",
          "type": "uint256"
        },
        {
          "internalType": "bool",
          "name": "",
          "type": "bool"
        }
      ],
      "stateMutability": "view",
      "type": "function"
    },
    {
      "inputs": [],
      "name": "getAllCandidatesWithVotes",
      "outputs": [
        {
          "internalType": "string",
          "name": "",
          "type": "string"
        },
        {
          "internalType": "uint256",
          "name": "",
          "type": "uint256"
        },
        {
          "internalType": "string",
          "name": "",
          "type": "string"
        },
        {
          "internalType": "uint256",
          "name": "",
          "type": "uint256"
        },
        {
          "internalType": "string",
          "name": "",
          "type": "string"
        },
        {
          "internalType": "uint256",
          "name": "",
          "type": "uint256"
        }
      ],
      "stateMutability": "view",
      "type": "function"
    }
  ],
  "bytecode": "0x60806040523480156200001157600080fd5b50604051620014c2380380620014c28339818101604052810190620000379190620003e4565b600160405180604001604052808581526020016000815250908060018154018082558091505060019003906000526020600020906002020160009091909190915060008201518160000190816200008f9190620006e8565b5060208201518160010155505060016040518060400160405280848152602001600081525090806001815401808255809150506001900390600052602060002090600202016000909190919091506000820151816000019081620000f49190620006e8565b5060208201518160010155505060016040518060400160405280838152602001600081525090806001815401808255809150506001900390600052602060002090600202016000909190919091506000820151816000019081620001599190620006e8565b5060208201518160010155505033600260006101000a81548173ffffffffffffffffffffffffffffffffffffffff021916908373ffffffffffffffffffffffffffffffffffffffff16021790555060016000803373ffffffffffffffffffffffffffffffffffffffff1673ffffffffffffffffffffffffffffffffffffffff1681526020019081526020016000206000018190555060008060003373ffffffffffffffffffffffffffffffffffffffff1673ffffffffffffffffffffffffffffffffffffffff16815260200190815260200160002060010160006101000a81548160ff021916908315150217905550505050620007cf565b6000604051905090565b600080fd5b600080fd5b600080fd5b600080fd5b6000601f19601f8301169050919050565b7f4e487b7100000000000000000000000000000000000000000000000000000000600052604160045260246000fd5b620002ba826200026f565b810181811067ffffffffffffffff82111715620002dc57620002db62000280565b5b80604052505050565b6000620002f162000251565b9050620002ff8282620002af565b919050565b600067ffffffffffffffff82111562000322576200032162000280565b5b6200032d826200026f565b9050602081019050919050565b60005b838110156200035a5780820151818401526020810190506200033d565b60008484015250505050565b60006200037d620003778462000304565b620002e5565b9050828152602081018484840111156200039c576200039b6200026a565b5b620003a98482856200033a565b509392505050565b600082601f830112620003c957620003c862000265565b5b8151620003db84826020860162000366565b91505092915050565b6000806000606084860312156200040057620003ff6200025b565b5b600084015167ffffffffffffffff81111562000421576200042062000260565b5b6200042f86828701620003b1565b935050602084015167ffffffffffffffff81111562000453576200045262000260565b5b6200046186828701620003b1565b925050604084015167ffffffffffffffff81111562000485576200048462000260565b5b6200049386828701620003b1565b9150509250925092565b600081519050919050565b7f4e487b7100000000000000000000000000000000000000000000000000000000600052602260045260246000fd5b60006002820490506001821680620004f057607f821691505b602082108103620005065762000505620004a8565b5b50919050565b60008190508160005260206000209050919050565b60006020601f8301049050919050565b600082821b905092915050565b600060088302620005707fffffffffffffffffffffffffffffffffffffffffffffffffffffffffffffffff8262000531565b6200057c868362000531565b95508019841693508086168417925050509392505050565b6000819050919050565b6000819050919050565b6000620005c9620005c3620005bd8462000594565b6200059e565b62000594565b9050919050565b6000819050919050565b620005e583620005a8565b620005fd620005f482620005d0565b8484546200053e565b825550505050565b600090565b6200061462000605565b62000621818484620005da565b505050565b5b8181101562000649576200063d6000826200060a565b60018101905062000627565b5050565b601f821115620006985762000662816200050c565b6200066d8462000521565b810160208510156200067d578190505b620006956200068c8562000521565b83018262000626565b50505b505050565b600082821c905092915050565b6000620006bd600019846008026200069d565b1980831691505092915050565b6000620006d88383620006aa565b9150826002028217905092915050565b620006f3826200049d565b67ffffffffffffffff8111156200070f576200070e62000280565b5b6200071b8254620004d7565b620007288282856200064d565b600060209050601f8311600181146200076057600084156200074b578287015190505b620007578582620006ca565b865550620007c7565b601f19841662000770866200050c565b60005b828110156200079a5784890151825560018201915060208501945060208101905062000773565b86831015620007ba5784890151620007b6601f891682620006aa565b8355505b6001600288020188555050505b505050505050565b610ce380620007df6000396000f3fe608060405234801561001057600080fd5b506004361061007d5760003560e01c8063c3dce91f1161005b578063c3dce91f146100d8578063df2d5ec714610108578063f0f4b0cd14610139578063f6d42f15146101585761007d565b806336c8c5ee146100825780638da5cb5b1461009e578063be82ae06146100bc575b600080fd5b61009c600480360381019061009791906108f3565b61017b565b005b6100a6610320565b6040516100b39190610961565b60405180910390f35b6100d660048036038101906100d191906109a8565b610346565b005b6100f260048036038101906100ed91906108f3565b610488565b6040516100ff91906109f7565b60405180910390f35b610122600480360381019061011d91906108f3565b6104b7565b604051610130929190610aa2565b60405180910390f35b610141610573565b60405161014f929190610aed565b60405180910390f35b61016061060f565b60405161017296959493929190610b16565b60405180910390f35b60008060003373ffffffffffffffffffffffffffffffffffffffff1673ffffffffffffffffffffffffffffffffffffffff16815260200190815260200160002060000154036101c957600080fd5b600015156000803373ffffffffffffffffffffffffffffffffffffffff1673ffffffffffffffffffffffffffffffffffffffff16815260200190815260200160002060010160009054906101000a900460ff1615151461022857600080fd5b6000803373ffffffffffffffffffffffffffffffffffffffff1673ffffffffffffffffffffffffffffffffffffffff168152602001908152602001600020600001546001828154811061027e5761027d610b8c565b5b90600052602060002090600202016001015461029a9190610bea565b600182815481106102ae576102ad610b8c565b5b90600052602060002090600202016001018190555060016000803373ffffffffffffffffffffffffffffffffffffffff1673ffffffffffffffffffffffffffffffffffffffff16815260200190815260200160002060010160006101000a81548160ff02191690831515021790555050565b600260009054906101000a900473ffffffffffffffffffffffffffffffffffffffff1681565b600260009054906101000a900473ffffffffffffffffffffffffffffffffffffffff1673ffffffffffffffffffffffffffffffffffffffff163373ffffffffffffffffffffffffffffffffffffffff16146103a4576103a3610c1e565b5b6000808373ffffffffffffffffffffffffffffffffffffffff1673ffffffffffffffffffffffffffffffffffffffff16815260200190815260200160002060010160009054906101000a900460ff161561040157610400610c1e565b5b6040518060400160405280828152602001600015158152506000808473ffffffffffffffffffffffffffffffffffffffff1673ffffffffffffffffffffffffffffffffffffffff1681526020019081526020016000206000820151816000015560208201518160010160006101000a81548160ff0219169083151502179055509050505050565b60006001828154811061049e5761049d610b8c565b5b9060005260206000209060020201600101549050919050565b600181815481106104c757600080fd5b90600052602060002090600202016000915090508060000180546104ea90610c7c565b80601f016020809104026020016040519081016040528092919081815260200182805461051690610c7c565b80156105635780601f1061053857610100808354040283529160200191610563565b820191906000526020600020905b81548152906001019060200180831161054657829003601f168201915b5050505050908060010154905082565b6000806000803373ffffffffffffffffffffffffffffffffffffffff1673ffffffffffffffffffffffffffffffffffffffff168152602001908152602001600020600001546000803373ffffffffffffffffffffffffffffffffffffffff1673ffffffffffffffffffffffffffffffffffffffff16815260200190815260200160002060010160009054906101000a900460ff16915091509091565b60606000606060006060600060016000815481106106305761062f610b8c565b5b9060005260206000209060020201600001600160008154811061065657610655610b8c565b5b9060005260206000209060020201600101546001808154811061067c5761067b610b8c565b5b9060005260206000209060020201600001600180815481106106a1576106a0610b8c565b5b90600052602060002090600202016001015460016002815481106106c8576106c7610b8c565b5b906000526020600020906002020160000160016002815481106106ee576106ed610b8c565b5b90600052602060002090600202016001015485805461070c90610c7c565b80601f016020809104026020016040519081016040528092919081815260200182805461073890610c7c565b80156107855780601f1061075a57610100808354040283529160200191610785565b820191906000526020600020905b81548152906001019060200180831161076857829003601f168201915b5050505050955083805461079890610c7c565b80601f01602080910402602001604051908101604052809291908181526020018280546107c490610c7c565b80156108115780601f106107e657610100808354040283529160200191610811565b820191906000526020600020905b8154815290600101906020018083116107f457829003601f168201915b5050505050935081805461082490610c7c565b80601f016020809104026020016040519081016040528092919081815260200182805461085090610c7c565b801561089d5780601f106108725761010080835404028352916020019161089d565b820191906000526020600020905b81548152906001019060200180831161088057829003601f168201915b50505050509150955095509550955095509550909192939495565b600080fd5b6000819050919050565b6108d0816108bd565b81146108db57600080fd5b50565b6000813590506108ed816108c7565b92915050565b600060208284031215610909576109086108b8565b5b6000610917848285016108de565b91505092915050565b600073ffffffffffffffffffffffffffffffffffffffff82169050919050565b600061094b82610920565b9050919050565b61095b81610940565b82525050565b60006020820190506109766000830184610952565b92915050565b61098581610940565b811461099057600080fd5b50565b6000813590506109a28161097c565b92915050565b600080604083850312156109bf576109be6108b8565b5b60006109cd85828601610993565b92505060206109de858286016108de565b9150509250929050565b6109f1816108bd565b82525050565b6000602082019050610a0c60008301846109e8565b92915050565b600081519050919050565b600082825260208201905092915050565b60005b83811015610a4c578082015181840152602081019050610a31565b60008484015250505050565b6000601f19601f8301169050919050565b6000610a7482610a12565b610a7e8185610a1d565b9350610a8e818560208601610a2e565b610a9781610a58565b840191505092915050565b60006040820190508181036000830152610abc8185610a69565b9050610acb60208301846109e8565b9392505050565b60008115159050919050565b610ae781610ad2565b82525050565b6000604082019050610b0260008301856109e8565b610b0f6020830184610ade565b9392505050565b600060c0820190508181036000830152610b308189610a69565b9050610b3f60208301886109e8565b8181036040830152610b518187610a69565b9050610b6060608301866109e8565b8181036080830152610b728185610a69565b9050610b8160a08301846109e8565b979650505050505050565b7f4e487b7100000000000000000000000000000000000000000000000000000000600052603260045260246000fd5b7f4e487b7100000000000000000000000000000000000000000000000000000000600052601160045260246000fd5b6000610bf5826108bd565b9150610c00836108bd565b9250828201905080821115610c1857610c17610bbb565b5b92915050565b7f4e487b7100000000000000000000000000000000000000000000000000000000600052600160045260246000fd5b7f4e487b7100000000000000000000000000000000000000000000000000000000600052602260045260246000fd5b60006002820490506001821680610c9457607f821691505b602082108103610ca757610ca6610c4d565b5b5091905056fea2646970667358221220ef134671c51a6f3d2531f59bc1f28fa1638b3a65050ef67af501b26304d07e4764736f6c63430008140033",
  "immutableReferences": {},
  "source": "// SPDX-License-Identifier: MIT\r\npragma solidity ^0.8.20;\r\n\r\ncontract WeightedVoting {\r\n    struct Voters {\r\n        uint weight;\r\n        bool hasVoted;\r\n    }\r\n\r\n    struct Candidates {\r\n        string name;\r\n        uint voteCount;\r\n    }\r\n\r\n    mapping(address => Voters) voters;\r\n\r\n    Candidates[] public candidatesList;\r\n\r\n    address public owner;\r\n\r\n    constructor(\r\n        string memory _candidate1,\r\n        string memory _candidate2,\r\n        string memory _candidate3\r\n    ) {\r\n        candidatesList.push(Candidates({name: _candidate1, voteCount: 0}));\r\n        candidatesList.push(Candidates({name: _candidate2, voteCount: 0}));\r\n        candidatesList.push(Candidates({name: _candidate3, voteCount: 0}));\r\n        owner = msg.sender;\r\n        voters[msg.sender].weight = 1;\r\n        voters[msg.sender].hasVoted = false;\r\n    }\r\n\r\n    function authorizeVoter(address _address, uint _weight) public {\r\n        assert(msg.sender == owner);\r\n        assert(!voters[_address].hasVoted);\r\n        voters[_address] = Voters({weight: _weight, hasVoted: false});\r\n    }\r\n\r\n    function voteForCandidate(uint _index) public {\r\n        require(voters[msg.sender].weight != 0);\r\n        require(voters[msg.sender].hasVoted == false);\r\n        candidatesList[_index].voteCount =\r\n            candidatesList[_index].voteCount +\r\n            voters[msg.sender].weight;\r\n            voters[msg.sender].hasVoted = true;\r\n    }\r\n\r\n    function getVoteForCandidate(uint _index) public view returns (uint) {\r\n        return candidatesList[_index].voteCount;\r\n    }\r\n\r\n    function isAuthorizedVoter() public view returns(uint,bool){\r\n        return (voters[msg.sender].weight,voters[msg.sender].hasVoted);\r\n    }\r\n\r\n    function getAllCandidatesWithVotes()\r\n        public\r\n        view\r\n        returns (string memory, uint, string memory, uint, string memory, uint)\r\n    {\r\n        return (\r\n            candidatesList[0].name,\r\n            candidatesList[0].voteCount,\r\n            candidatesList[1].name,\r\n            candidatesList[1].voteCount,\r\n            candidatesList[2].name,\r\n            candidatesList[2].voteCount\r\n        );\r\n    }\r\n}\r\n",
  "sourcePath": "C:\\Users\\farid\\Desktop\\CertifiedBlockchainTruffle\\truffle\\contracts\\weightedVoting.sol",
  "compiler": {
    "name": "solc",
    "version": "0.8.20+commit.a1b79de6.Emscripten.clang"
  },
  "schemaVersion": "3.4.16",
  "updatedAt": "2024-04-25T06:59:30.993Z",
  "devdoc": {
    "kind": "dev",
    "methods": {},
    "version": 1
  },
  "userdoc": {
    "kind": "user",
    "methods": {},
    "version": 1
  }
}